{
	"contracts/DAO_Project/dao.sol": {
		"dao": {
			"abi": [
				{
					"inputs": [
						{
							"internalType": "uint256",
							"name": "_contributionTimeEnd",
							"type": "uint256"
						},
						{
							"internalType": "uint256",
							"name": "_voteTime",
							"type": "uint256"
						},
						{
							"internalType": "uint256",
							"name": "_quorum",
							"type": "uint256"
						}
					],
					"stateMutability": "nonpayable",
					"type": "constructor"
				},
				{
					"inputs": [
						{
							"internalType": "uint256",
							"name": "_proposalId",
							"type": "uint256"
						}
					],
					"name": "CancelProposal",
					"outputs": [],
					"stateMutability": "nonpayable",
					"type": "function"
				},
				{
					"inputs": [],
					"name": "ProposalList",
					"outputs": [
						{
							"components": [
								{
									"internalType": "uint256",
									"name": "id",
									"type": "uint256"
								},
								{
									"internalType": "string",
									"name": "description",
									"type": "string"
								},
								{
									"internalType": "uint256",
									"name": "amount",
									"type": "uint256"
								},
								{
									"internalType": "address payable",
									"name": "recipient",
									"type": "address"
								},
								{
									"internalType": "uint256",
									"name": "votes",
									"type": "uint256"
								},
								{
									"internalType": "uint256",
									"name": "end",
									"type": "uint256"
								},
								{
									"internalType": "bool",
									"name": "isExecuted",
									"type": "bool"
								},
								{
									"internalType": "bool",
									"name": "veto",
									"type": "bool"
								},
								{
									"internalType": "bool",
									"name": "canceled",
									"type": "bool"
								}
							],
							"internalType": "struct dao.Proposal[]",
							"name": "",
							"type": "tuple[]"
						}
					],
					"stateMutability": "view",
					"type": "function"
				},
				{
					"inputs": [
						{
							"internalType": "uint256",
							"name": "_proposalId",
							"type": "uint256"
						}
					],
					"name": "Veto",
					"outputs": [],
					"stateMutability": "nonpayable",
					"type": "function"
				},
				{
					"inputs": [],
					"name": "availableFunds",
					"outputs": [
						{
							"internalType": "uint256",
							"name": "",
							"type": "uint256"
						}
					],
					"stateMutability": "view",
					"type": "function"
				},
				{
					"inputs": [],
					"name": "contribution",
					"outputs": [],
					"stateMutability": "payable",
					"type": "function"
				},
				{
					"inputs": [],
					"name": "contributionTimeEnd",
					"outputs": [
						{
							"internalType": "uint256",
							"name": "",
							"type": "uint256"
						}
					],
					"stateMutability": "view",
					"type": "function"
				},
				{
					"inputs": [
						{
							"internalType": "string",
							"name": "_description",
							"type": "string"
						},
						{
							"internalType": "uint256",
							"name": "_amount",
							"type": "uint256"
						},
						{
							"internalType": "address payable",
							"name": "_recepient",
							"type": "address"
						}
					],
					"name": "createProposal",
					"outputs": [],
					"stateMutability": "nonpayable",
					"type": "function"
				},
				{
					"inputs": [
						{
							"internalType": "uint256",
							"name": "_proposalId",
							"type": "uint256"
						}
					],
					"name": "executeProposal",
					"outputs": [],
					"stateMutability": "nonpayable",
					"type": "function"
				},
				{
					"inputs": [
						{
							"internalType": "uint256",
							"name": "",
							"type": "uint256"
						}
					],
					"name": "investorsList",
					"outputs": [
						{
							"internalType": "address",
							"name": "",
							"type": "address"
						}
					],
					"stateMutability": "view",
					"type": "function"
				},
				{
					"inputs": [
						{
							"internalType": "address",
							"name": "",
							"type": "address"
						},
						{
							"internalType": "uint256",
							"name": "",
							"type": "uint256"
						}
					],
					"name": "isVoted",
					"outputs": [
						{
							"internalType": "bool",
							"name": "",
							"type": "bool"
						}
					],
					"stateMutability": "view",
					"type": "function"
				},
				{
					"inputs": [],
					"name": "manager",
					"outputs": [
						{
							"internalType": "address",
							"name": "",
							"type": "address"
						}
					],
					"stateMutability": "view",
					"type": "function"
				},
				{
					"inputs": [],
					"name": "nextProposalId",
					"outputs": [
						{
							"internalType": "uint256",
							"name": "",
							"type": "uint256"
						}
					],
					"stateMutability": "view",
					"type": "function"
				},
				{
					"inputs": [
						{
							"internalType": "address",
							"name": "",
							"type": "address"
						}
					],
					"name": "numOfShares",
					"outputs": [
						{
							"internalType": "uint256",
							"name": "",
							"type": "uint256"
						}
					],
					"stateMutability": "view",
					"type": "function"
				},
				{
					"inputs": [
						{
							"internalType": "uint256",
							"name": "",
							"type": "uint256"
						}
					],
					"name": "proposals",
					"outputs": [
						{
							"internalType": "uint256",
							"name": "id",
							"type": "uint256"
						},
						{
							"internalType": "string",
							"name": "description",
							"type": "string"
						},
						{
							"internalType": "uint256",
							"name": "amount",
							"type": "uint256"
						},
						{
							"internalType": "address payable",
							"name": "recipient",
							"type": "address"
						},
						{
							"internalType": "uint256",
							"name": "votes",
							"type": "uint256"
						},
						{
							"internalType": "uint256",
							"name": "end",
							"type": "uint256"
						},
						{
							"internalType": "bool",
							"name": "isExecuted",
							"type": "bool"
						},
						{
							"internalType": "bool",
							"name": "veto",
							"type": "bool"
						},
						{
							"internalType": "bool",
							"name": "canceled",
							"type": "bool"
						}
					],
					"stateMutability": "view",
					"type": "function"
				},
				{
					"inputs": [],
					"name": "quorum",
					"outputs": [
						{
							"internalType": "uint256",
							"name": "",
							"type": "uint256"
						}
					],
					"stateMutability": "view",
					"type": "function"
				},
				{
					"inputs": [
						{
							"internalType": "uint256",
							"name": "_amount",
							"type": "uint256"
						}
					],
					"name": "reedemShare",
					"outputs": [],
					"stateMutability": "nonpayable",
					"type": "function"
				},
				{
					"inputs": [],
					"name": "totalShares",
					"outputs": [
						{
							"internalType": "uint256",
							"name": "",
							"type": "uint256"
						}
					],
					"stateMutability": "view",
					"type": "function"
				},
				{
					"inputs": [
						{
							"internalType": "uint256",
							"name": "_amount",
							"type": "uint256"
						},
						{
							"internalType": "address",
							"name": "_to",
							"type": "address"
						}
					],
					"name": "transferShare",
					"outputs": [],
					"stateMutability": "nonpayable",
					"type": "function"
				},
				{
					"inputs": [
						{
							"internalType": "uint256",
							"name": "_proposalId",
							"type": "uint256"
						}
					],
					"name": "voteProposal",
					"outputs": [],
					"stateMutability": "nonpayable",
					"type": "function"
				},
				{
					"inputs": [],
					"name": "voteTime",
					"outputs": [
						{
							"internalType": "uint256",
							"name": "",
							"type": "uint256"
						}
					],
					"stateMutability": "view",
					"type": "function"
				}
			],
			"devdoc": {
				"kind": "dev",
				"methods": {},
				"version": 1
			},
			"evm": {
				"assembly": "    /* \"contracts/DAO_Project/dao.sol\":63:5510  contract dao{... */\n  mstore(0x40, 0x80)\n    /* \"contracts/DAO_Project/dao.sol\":1171:1463  constructor(uint _contributionTimeEnd, uint _voteTime, uint _quorum){... */\n  callvalue\n  dup1\n  iszero\n  tag_1\n  jumpi\n  0x00\n  dup1\n  revert\ntag_1:\n  pop\n  mload(0x40)\n  sub(codesize, bytecodeSize)\n  dup1\n  bytecodeSize\n  dup4\n  codecopy\n  dup2\n  dup2\n  add\n  0x40\n  mstore\n  dup2\n  add\n  swap1\n  tag_2\n  swap2\n  swap1\n  tag_3\n  jump\t// in\ntag_2:\n    /* \"contracts/DAO_Project/dao.sol\":1265:1266  0 */\n  0x00\n    /* \"contracts/DAO_Project/dao.sol\":1257:1264  _quorum */\n  dup2\n    /* \"contracts/DAO_Project/dao.sol\":1257:1266  _quorum>0 */\n  gt\n    /* \"contracts/DAO_Project/dao.sol\":1257:1282  _quorum>0 && _quorum<=100 */\n  dup1\n  iszero\n  tag_6\n  jumpi\n  pop\n    /* \"contracts/DAO_Project/dao.sol\":1279:1282  100 */\n  0x64\n    /* \"contracts/DAO_Project/dao.sol\":1270:1277  _quorum */\n  dup2\n    /* \"contracts/DAO_Project/dao.sol\":1270:1282  _quorum<=100 */\n  gt\n  iszero\n    /* \"contracts/DAO_Project/dao.sol\":1257:1282  _quorum>0 && _quorum<=100 */\ntag_6:\n    /* \"contracts/DAO_Project/dao.sol\":1249:1302  require(_quorum>0 && _quorum<=100,\"Not valid values\") */\n  tag_7\n  jumpi\n  mload(0x40)\n  0x08c379a000000000000000000000000000000000000000000000000000000000\n  dup2\n  mstore\n  0x04\n  add\n  tag_8\n  swap1\n  tag_9\n  jump\t// in\ntag_8:\n  mload(0x40)\n  dup1\n  swap2\n  sub\n  swap1\n  revert\ntag_7:\n    /* \"contracts/DAO_Project/dao.sol\":1350:1370  _contributionTimeEnd */\n  dup3\n    /* \"contracts/DAO_Project/dao.sol\":1334:1349  block.timestamp */\n  timestamp\n    /* \"contracts/DAO_Project/dao.sol\":1334:1370  block.timestamp+_contributionTimeEnd */\n  tag_10\n  swap2\n  swap1\n  tag_11\n  jump\t// in\ntag_10:\n    /* \"contracts/DAO_Project/dao.sol\":1312:1331  contributionTimeEnd */\n  0x07\n    /* \"contracts/DAO_Project/dao.sol\":1312:1370  contributionTimeEnd = block.timestamp+_contributionTimeEnd */\n  dup2\n  swap1\n  sstore\n  pop\n    /* \"contracts/DAO_Project/dao.sol\":1391:1400  _voteTime */\n  dup2\n    /* \"contracts/DAO_Project/dao.sol\":1380:1388  voteTime */\n  0x09\n    /* \"contracts/DAO_Project/dao.sol\":1380:1400  voteTime = _voteTime */\n  dup2\n  swap1\n  sstore\n  pop\n    /* \"contracts/DAO_Project/dao.sol\":1419:1426  _quorum */\n  dup1\n    /* \"contracts/DAO_Project/dao.sol\":1410:1416  quorum */\n  0x0a\n    /* \"contracts/DAO_Project/dao.sol\":1410:1426  quorum = _quorum */\n  dup2\n  swap1\n  sstore\n  pop\n    /* \"contracts/DAO_Project/dao.sol\":1446:1456  msg.sender */\n  caller\n    /* \"contracts/DAO_Project/dao.sol\":1436:1443  manager */\n  0x0b\n  0x00\n    /* \"contracts/DAO_Project/dao.sol\":1436:1456  manager = msg.sender */\n  0x0100\n  exp\n  dup2\n  sload\n  dup2\n  0xffffffffffffffffffffffffffffffffffffffff\n  mul\n  not\n  and\n  swap1\n  dup4\n  0xffffffffffffffffffffffffffffffffffffffff\n  and\n  mul\n  or\n  swap1\n  sstore\n  pop\n    /* \"contracts/DAO_Project/dao.sol\":1171:1463  constructor(uint _contributionTimeEnd, uint _voteTime, uint _quorum){... */\n  pop\n  pop\n  pop\n    /* \"contracts/DAO_Project/dao.sol\":63:5510  contract dao{... */\n  jump(tag_12)\n    /* \"#utility.yul\":88:205   */\ntag_14:\n    /* \"#utility.yul\":197:198   */\n  0x00\n    /* \"#utility.yul\":194:195   */\n  dup1\n    /* \"#utility.yul\":187:199   */\n  revert\n    /* \"#utility.yul\":334:411   */\ntag_16:\n    /* \"#utility.yul\":371:378   */\n  0x00\n    /* \"#utility.yul\":400:405   */\n  dup2\n    /* \"#utility.yul\":389:405   */\n  swap1\n  pop\n    /* \"#utility.yul\":334:411   */\n  swap2\n  swap1\n  pop\n  jump\t// out\n    /* \"#utility.yul\":417:539   */\ntag_17:\n    /* \"#utility.yul\":490:514   */\n  tag_29\n    /* \"#utility.yul\":508:513   */\n  dup2\n    /* \"#utility.yul\":490:514   */\n  tag_16\n  jump\t// in\ntag_29:\n    /* \"#utility.yul\":483:488   */\n  dup2\n    /* \"#utility.yul\":480:515   */\n  eq\n    /* \"#utility.yul\":470:533   */\n  tag_30\n  jumpi\n    /* \"#utility.yul\":529:530   */\n  0x00\n    /* \"#utility.yul\":526:527   */\n  dup1\n    /* \"#utility.yul\":519:531   */\n  revert\n    /* \"#utility.yul\":470:533   */\ntag_30:\n    /* \"#utility.yul\":417:539   */\n  pop\n  jump\t// out\n    /* \"#utility.yul\":545:688   */\ntag_18:\n    /* \"#utility.yul\":602:607   */\n  0x00\n    /* \"#utility.yul\":633:639   */\n  dup2\n    /* \"#utility.yul\":627:640   */\n  mload\n    /* \"#utility.yul\":618:640   */\n  swap1\n  pop\n    /* \"#utility.yul\":649:682   */\n  tag_32\n    /* \"#utility.yul\":676:681   */\n  dup2\n    /* \"#utility.yul\":649:682   */\n  tag_17\n  jump\t// in\ntag_32:\n    /* \"#utility.yul\":545:688   */\n  swap3\n  swap2\n  pop\n  pop\n  jump\t// out\n    /* \"#utility.yul\":694:1357   */\ntag_3:\n    /* \"#utility.yul\":782:788   */\n  0x00\n    /* \"#utility.yul\":790:796   */\n  dup1\n    /* \"#utility.yul\":798:804   */\n  0x00\n    /* \"#utility.yul\":847:849   */\n  0x60\n    /* \"#utility.yul\":835:844   */\n  dup5\n    /* \"#utility.yul\":826:833   */\n  dup7\n    /* \"#utility.yul\":822:845   */\n  sub\n    /* \"#utility.yul\":818:850   */\n  slt\n    /* \"#utility.yul\":815:934   */\n  iszero\n  tag_34\n  jumpi\n    /* \"#utility.yul\":853:932   */\n  tag_35\n  tag_14\n  jump\t// in\ntag_35:\n    /* \"#utility.yul\":815:934   */\ntag_34:\n    /* \"#utility.yul\":973:974   */\n  0x00\n    /* \"#utility.yul\":998:1062   */\n  tag_36\n    /* \"#utility.yul\":1054:1061   */\n  dup7\n    /* \"#utility.yul\":1045:1051   */\n  dup3\n    /* \"#utility.yul\":1034:1043   */\n  dup8\n    /* \"#utility.yul\":1030:1052   */\n  add\n    /* \"#utility.yul\":998:1062   */\n  tag_18\n  jump\t// in\ntag_36:\n    /* \"#utility.yul\":988:1062   */\n  swap4\n  pop\n    /* \"#utility.yul\":944:1072   */\n  pop\n    /* \"#utility.yul\":1111:1113   */\n  0x20\n    /* \"#utility.yul\":1137:1201   */\n  tag_37\n    /* \"#utility.yul\":1193:1200   */\n  dup7\n    /* \"#utility.yul\":1184:1190   */\n  dup3\n    /* \"#utility.yul\":1173:1182   */\n  dup8\n    /* \"#utility.yul\":1169:1191   */\n  add\n    /* \"#utility.yul\":1137:1201   */\n  tag_18\n  jump\t// in\ntag_37:\n    /* \"#utility.yul\":1127:1201   */\n  swap3\n  pop\n    /* \"#utility.yul\":1082:1211   */\n  pop\n    /* \"#utility.yul\":1250:1252   */\n  0x40\n    /* \"#utility.yul\":1276:1340   */\n  tag_38\n    /* \"#utility.yul\":1332:1339   */\n  dup7\n    /* \"#utility.yul\":1323:1329   */\n  dup3\n    /* \"#utility.yul\":1312:1321   */\n  dup8\n    /* \"#utility.yul\":1308:1330   */\n  add\n    /* \"#utility.yul\":1276:1340   */\n  tag_18\n  jump\t// in\ntag_38:\n    /* \"#utility.yul\":1266:1340   */\n  swap2\n  pop\n    /* \"#utility.yul\":1221:1350   */\n  pop\n    /* \"#utility.yul\":694:1357   */\n  swap3\n  pop\n  swap3\n  pop\n  swap3\n  jump\t// out\n    /* \"#utility.yul\":1363:1532   */\ntag_19:\n    /* \"#utility.yul\":1447:1458   */\n  0x00\n    /* \"#utility.yul\":1481:1487   */\n  dup3\n    /* \"#utility.yul\":1476:1479   */\n  dup3\n    /* \"#utility.yul\":1469:1488   */\n  mstore\n    /* \"#utility.yul\":1521:1525   */\n  0x20\n    /* \"#utility.yul\":1516:1519   */\n  dup3\n    /* \"#utility.yul\":1512:1526   */\n  add\n    /* \"#utility.yul\":1497:1526   */\n  swap1\n  pop\n    /* \"#utility.yul\":1363:1532   */\n  swap3\n  swap2\n  pop\n  pop\n  jump\t// out\n    /* \"#utility.yul\":1538:1704   */\ntag_20:\n    /* \"#utility.yul\":1678:1696   */\n  0x4e6f742076616c69642076616c75657300000000000000000000000000000000\n    /* \"#utility.yul\":1674:1675   */\n  0x00\n    /* \"#utility.yul\":1666:1672   */\n  dup3\n    /* \"#utility.yul\":1662:1676   */\n  add\n    /* \"#utility.yul\":1655:1697   */\n  mstore\n    /* \"#utility.yul\":1538:1704   */\n  pop\n  jump\t// out\n    /* \"#utility.yul\":1710:2076   */\ntag_21:\n    /* \"#utility.yul\":1852:1855   */\n  0x00\n    /* \"#utility.yul\":1873:1940   */\n  tag_42\n    /* \"#utility.yul\":1937:1939   */\n  0x10\n    /* \"#utility.yul\":1932:1935   */\n  dup4\n    /* \"#utility.yul\":1873:1940   */\n  tag_19\n  jump\t// in\ntag_42:\n    /* \"#utility.yul\":1866:1940   */\n  swap2\n  pop\n    /* \"#utility.yul\":1949:2042   */\n  tag_43\n    /* \"#utility.yul\":2038:2041   */\n  dup3\n    /* \"#utility.yul\":1949:2042   */\n  tag_20\n  jump\t// in\ntag_43:\n    /* \"#utility.yul\":2067:2069   */\n  0x20\n    /* \"#utility.yul\":2062:2065   */\n  dup3\n    /* \"#utility.yul\":2058:2070   */\n  add\n    /* \"#utility.yul\":2051:2070   */\n  swap1\n  pop\n    /* \"#utility.yul\":1710:2076   */\n  swap2\n  swap1\n  pop\n  jump\t// out\n    /* \"#utility.yul\":2082:2501   */\ntag_9:\n    /* \"#utility.yul\":2248:2252   */\n  0x00\n    /* \"#utility.yul\":2286:2288   */\n  0x20\n    /* \"#utility.yul\":2275:2284   */\n  dup3\n    /* \"#utility.yul\":2271:2289   */\n  add\n    /* \"#utility.yul\":2263:2289   */\n  swap1\n  pop\n    /* \"#utility.yul\":2335:2344   */\n  dup2\n    /* \"#utility.yul\":2329:2333   */\n  dup2\n    /* \"#utility.yul\":2325:2345   */\n  sub\n    /* \"#utility.yul\":2321:2322   */\n  0x00\n    /* \"#utility.yul\":2310:2319   */\n  dup4\n    /* \"#utility.yul\":2306:2323   */\n  add\n    /* \"#utility.yul\":2299:2346   */\n  mstore\n    /* \"#utility.yul\":2363:2494   */\n  tag_45\n    /* \"#utility.yul\":2489:2493   */\n  dup2\n    /* \"#utility.yul\":2363:2494   */\n  tag_21\n  jump\t// in\ntag_45:\n    /* \"#utility.yul\":2355:2494   */\n  swap1\n  pop\n    /* \"#utility.yul\":2082:2501   */\n  swap2\n  swap1\n  pop\n  jump\t// out\n    /* \"#utility.yul\":2507:2687   */\ntag_22:\n    /* \"#utility.yul\":2555:2632   */\n  0x4e487b7100000000000000000000000000000000000000000000000000000000\n    /* \"#utility.yul\":2552:2553   */\n  0x00\n    /* \"#utility.yul\":2545:2633   */\n  mstore\n    /* \"#utility.yul\":2652:2656   */\n  0x11\n    /* \"#utility.yul\":2649:2650   */\n  0x04\n    /* \"#utility.yul\":2642:2657   */\n  mstore\n    /* \"#utility.yul\":2676:2680   */\n  0x24\n    /* \"#utility.yul\":2673:2674   */\n  0x00\n    /* \"#utility.yul\":2666:2681   */\n  revert\n    /* \"#utility.yul\":2693:2884   */\ntag_11:\n    /* \"#utility.yul\":2733:2736   */\n  0x00\n    /* \"#utility.yul\":2752:2772   */\n  tag_48\n    /* \"#utility.yul\":2770:2771   */\n  dup3\n    /* \"#utility.yul\":2752:2772   */\n  tag_16\n  jump\t// in\ntag_48:\n    /* \"#utility.yul\":2747:2772   */\n  swap2\n  pop\n    /* \"#utility.yul\":2786:2806   */\n  tag_49\n    /* \"#utility.yul\":2804:2805   */\n  dup4\n    /* \"#utility.yul\":2786:2806   */\n  tag_16\n  jump\t// in\ntag_49:\n    /* \"#utility.yul\":2781:2806   */\n  swap3\n  pop\n    /* \"#utility.yul\":2829:2830   */\n  dup3\n    /* \"#utility.yul\":2826:2827   */\n  dup3\n    /* \"#utility.yul\":2822:2831   */\n  add\n    /* \"#utility.yul\":2815:2831   */\n  swap1\n  pop\n    /* \"#utility.yul\":2850:2853   */\n  dup1\n    /* \"#utility.yul\":2847:2848   */\n  dup3\n    /* \"#utility.yul\":2844:2854   */\n  gt\n    /* \"#utility.yul\":2841:2877   */\n  iszero\n  tag_50\n  jumpi\n    /* \"#utility.yul\":2857:2875   */\n  tag_51\n  tag_22\n  jump\t// in\ntag_51:\n    /* \"#utility.yul\":2841:2877   */\ntag_50:\n    /* \"#utility.yul\":2693:2884   */\n  swap3\n  swap2\n  pop\n  pop\n  jump\t// out\n    /* \"contracts/DAO_Project/dao.sol\":63:5510  contract dao{... */\ntag_12:\n  dataSize(sub_0)\n  dup1\n  dataOffset(sub_0)\n  0x00\n  codecopy\n  0x00\n  return\nstop\n\nsub_0: assembly {\n        /* \"contracts/DAO_Project/dao.sol\":63:5510  contract dao{... */\n      mstore(0x40, 0x80)\n      jumpi(tag_1, lt(calldatasize, 0x04))\n      shr(0xe0, calldataload(0x00))\n      dup1\n      0x50520b1f\n      gt\n      tag_22\n      jumpi\n      dup1\n      0x8896f24c\n      gt\n      tag_23\n      jumpi\n      dup1\n      0x8896f24c\n      eq\n      tag_17\n      jumpi\n      dup1\n      0x8ee36f05\n      eq\n      tag_18\n      jumpi\n      dup1\n      0xafc8275b\n      eq\n      tag_19\n      jumpi\n      dup1\n      0xbcf93dd6\n      eq\n      tag_20\n      jumpi\n      dup1\n      0xc1188cff\n      eq\n      tag_21\n      jumpi\n      jump(tag_1)\n    tag_23:\n      dup1\n      0x50520b1f\n      eq\n      tag_12\n      jumpi\n      dup1\n      0x6a907803\n      eq\n      tag_13\n      jumpi\n      dup1\n      0x6ac1e01f\n      eq\n      tag_14\n      jumpi\n      dup1\n      0x6dfc1099\n      eq\n      tag_15\n      jumpi\n      dup1\n      0x807896d5\n      eq\n      tag_16\n      jumpi\n      jump(tag_1)\n    tag_22:\n      dup1\n      0x2ab09d14\n      gt\n      tag_24\n      jumpi\n      dup1\n      0x2ab09d14\n      eq\n      tag_7\n      jumpi\n      dup1\n      0x2ccc8727\n      eq\n      tag_8\n      jumpi\n      dup1\n      0x3a98ef39\n      eq\n      tag_9\n      jumpi\n      dup1\n      0x46fcff4c\n      eq\n      tag_10\n      jumpi\n      dup1\n      0x481c6a75\n      eq\n      tag_11\n      jumpi\n      jump(tag_1)\n    tag_24:\n      dup1\n      0x013cf08b\n      eq\n      tag_2\n      jumpi\n      dup1\n      0x016bc65f\n      eq\n      tag_3\n      jumpi\n      dup1\n      0x039383e6\n      eq\n      tag_4\n      jumpi\n      dup1\n      0x0d61b519\n      eq\n      tag_5\n      jumpi\n      dup1\n      0x1703a018\n      eq\n      tag_6\n      jumpi\n    tag_1:\n      0x00\n      dup1\n      revert\n        /* \"contracts/DAO_Project/dao.sol\":788:828  mapping(uint=>Proposal) public proposals */\n    tag_2:\n      callvalue\n      dup1\n      iszero\n      tag_25\n      jumpi\n      0x00\n      dup1\n      revert\n    tag_25:\n      pop\n      tag_26\n      0x04\n      dup1\n      calldatasize\n      sub\n      dup2\n      add\n      swap1\n      tag_27\n      swap2\n      swap1\n      tag_28\n      jump\t// in\n    tag_27:\n      tag_29\n      jump\t// in\n    tag_26:\n      mload(0x40)\n      tag_30\n      swap10\n      swap9\n      swap8\n      swap7\n      swap6\n      swap5\n      swap4\n      swap3\n      swap2\n      swap1\n      tag_31\n      jump\t// in\n    tag_30:\n      mload(0x40)\n      dup1\n      swap2\n      sub\n      swap1\n      return\n        /* \"contracts/DAO_Project/dao.sol\":5003:5257  function Veto(uint _proposalId) external onlyInvestor(){... */\n    tag_3:\n      callvalue\n      dup1\n      iszero\n      tag_32\n      jumpi\n      0x00\n      dup1\n      revert\n    tag_32:\n      pop\n      tag_33\n      0x04\n      dup1\n      calldatasize\n      sub\n      dup2\n      add\n      swap1\n      tag_34\n      swap2\n      swap1\n      tag_28\n      jump\t// in\n    tag_34:\n      tag_35\n      jump\t// in\n    tag_33:\n      stop\n        /* \"contracts/DAO_Project/dao.sol\":2507:2968  function transferShare(uint _amount, address _to) public onlyInvestor(){... */\n    tag_4:\n      callvalue\n      dup1\n      iszero\n      tag_36\n      jumpi\n      0x00\n      dup1\n      revert\n    tag_36:\n      pop\n      tag_37\n      0x04\n      dup1\n      calldatasize\n      sub\n      dup2\n      add\n      swap1\n      tag_38\n      swap2\n      swap1\n      tag_39\n      jump\t// in\n    tag_38:\n      tag_40\n      jump\t// in\n    tag_37:\n      stop\n        /* \"contracts/DAO_Project/dao.sol\":4123:4630  function executeProposal(uint _proposalId) public onlyManager(){... */\n    tag_5:\n      callvalue\n      dup1\n      iszero\n      tag_41\n      jumpi\n      0x00\n      dup1\n      revert\n    tag_41:\n      pop\n      tag_42\n      0x04\n      dup1\n      calldatasize\n      sub\n      dup2\n      add\n      swap1\n      tag_43\n      swap2\n      swap1\n      tag_28\n      jump\t// in\n    tag_43:\n      tag_44\n      jump\t// in\n    tag_42:\n      stop\n        /* \"contracts/DAO_Project/dao.sol\":1053:1071  uint public quorum */\n    tag_6:\n      callvalue\n      dup1\n      iszero\n      tag_45\n      jumpi\n      0x00\n      dup1\n      revert\n    tag_45:\n      pop\n      tag_46\n      tag_47\n      jump\t// in\n    tag_46:\n      mload(0x40)\n      tag_48\n      swap2\n      swap1\n      tag_49\n      jump\t// in\n    tag_48:\n      mload(0x40)\n      dup1\n      swap2\n      sub\n      swap1\n      return\n        /* \"contracts/DAO_Project/dao.sol\":933:959  uint public nextProposalId */\n    tag_7:\n      callvalue\n      dup1\n      iszero\n      tag_50\n      jumpi\n      0x00\n      dup1\n      revert\n    tag_50:\n      pop\n      tag_51\n      tag_52\n      jump\t// in\n    tag_51:\n      mload(0x40)\n      tag_53\n      swap2\n      swap1\n      tag_49\n      jump\t// in\n    tag_53:\n      mload(0x40)\n      dup1\n      swap2\n      sub\n      swap1\n      return\n        /* \"contracts/DAO_Project/dao.sol\":752:782  address[] public investorsList */\n    tag_8:\n      callvalue\n      dup1\n      iszero\n      tag_54\n      jumpi\n      0x00\n      dup1\n      revert\n    tag_54:\n      pop\n      tag_55\n      0x04\n      dup1\n      calldatasize\n      sub\n      dup2\n      add\n      swap1\n      tag_56\n      swap2\n      swap1\n      tag_28\n      jump\t// in\n    tag_56:\n      tag_57\n      jump\t// in\n    tag_55:\n      mload(0x40)\n      tag_58\n      swap2\n      swap1\n      tag_59\n      jump\t// in\n    tag_58:\n      mload(0x40)\n      dup1\n      swap2\n      sub\n      swap1\n      return\n        /* \"contracts/DAO_Project/dao.sol\":835:858  uint public totalShares */\n    tag_9:\n      callvalue\n      dup1\n      iszero\n      tag_60\n      jumpi\n      0x00\n      dup1\n      revert\n    tag_60:\n      pop\n      tag_61\n      tag_62\n      jump\t// in\n    tag_61:\n      mload(0x40)\n      tag_63\n      swap2\n      swap1\n      tag_49\n      jump\t// in\n    tag_63:\n      mload(0x40)\n      dup1\n      swap2\n      sub\n      swap1\n      return\n        /* \"contracts/DAO_Project/dao.sol\":864:890  uint public availableFunds */\n    tag_10:\n      callvalue\n      dup1\n      iszero\n      tag_64\n      jumpi\n      0x00\n      dup1\n      revert\n    tag_64:\n      pop\n      tag_65\n      tag_66\n      jump\t// in\n    tag_65:\n      mload(0x40)\n      tag_67\n      swap2\n      swap1\n      tag_49\n      jump\t// in\n    tag_67:\n      mload(0x40)\n      dup1\n      swap2\n      sub\n      swap1\n      return\n        /* \"contracts/DAO_Project/dao.sol\":1077:1099  address public manager */\n    tag_11:\n      callvalue\n      dup1\n      iszero\n      tag_68\n      jumpi\n      0x00\n      dup1\n      revert\n    tag_68:\n      pop\n      tag_69\n      tag_70\n      jump\t// in\n    tag_69:\n      mload(0x40)\n      tag_71\n      swap2\n      swap1\n      tag_59\n      jump\t// in\n    tag_71:\n      mload(0x40)\n      dup1\n      swap2\n      sub\n      swap1\n      return\n        /* \"contracts/DAO_Project/dao.sol\":1695:2070  function contribution() external payable{... */\n    tag_12:\n      tag_72\n      tag_73\n      jump\t// in\n    tag_72:\n      stop\n        /* \"contracts/DAO_Project/dao.sol\":576:617  mapping(address=>uint) public numOfShares */\n    tag_13:\n      callvalue\n      dup1\n      iszero\n      tag_74\n      jumpi\n      0x00\n      dup1\n      revert\n    tag_74:\n      pop\n      tag_75\n      0x04\n      dup1\n      calldatasize\n      sub\n      dup2\n      add\n      swap1\n      tag_76\n      swap2\n      swap1\n      tag_77\n      jump\t// in\n    tag_76:\n      tag_78\n      jump\t// in\n    tag_75:\n      mload(0x40)\n      tag_79\n      swap2\n      swap1\n      tag_49\n      jump\t// in\n    tag_79:\n      mload(0x40)\n      dup1\n      swap2\n      sub\n      swap1\n      return\n        /* \"contracts/DAO_Project/dao.sol\":2974:3430  function createProposal(string calldata _description, uint _amount, address payable _recepient) public {... */\n    tag_14:\n      callvalue\n      dup1\n      iszero\n      tag_80\n      jumpi\n      0x00\n      dup1\n      revert\n    tag_80:\n      pop\n      tag_81\n      0x04\n      dup1\n      calldatasize\n      sub\n      dup2\n      add\n      swap1\n      tag_82\n      swap2\n      swap1\n      tag_83\n      jump\t// in\n    tag_82:\n      tag_84\n      jump\t// in\n    tag_81:\n      stop\n        /* \"contracts/DAO_Project/dao.sol\":4755:4997  function ProposalList() public view returns(Proposal[] memory){... */\n    tag_15:\n      callvalue\n      dup1\n      iszero\n      tag_85\n      jumpi\n      0x00\n      dup1\n      revert\n    tag_85:\n      pop\n      tag_86\n      tag_87\n      jump\t// in\n    tag_86:\n      mload(0x40)\n      tag_88\n      swap2\n      swap1\n      tag_89\n      jump\t// in\n    tag_88:\n      mload(0x40)\n      dup1\n      swap2\n      sub\n      swap1\n      return\n        /* \"contracts/DAO_Project/dao.sol\":3436:4117  function voteProposal(uint _proposalId) public onlyInvestor(){... */\n    tag_16:\n      callvalue\n      dup1\n      iszero\n      tag_90\n      jumpi\n      0x00\n      dup1\n      revert\n    tag_90:\n      pop\n      tag_91\n      0x04\n      dup1\n      calldatasize\n      sub\n      dup2\n      add\n      swap1\n      tag_92\n      swap2\n      swap1\n      tag_28\n      jump\t// in\n    tag_92:\n      tag_93\n      jump\t// in\n    tag_91:\n      stop\n        /* \"contracts/DAO_Project/dao.sol\":5263:5507  function CancelProposal(uint _proposalId) external onlyManager(){... */\n    tag_17:\n      callvalue\n      dup1\n      iszero\n      tag_94\n      jumpi\n      0x00\n      dup1\n      revert\n    tag_94:\n      pop\n      tag_95\n      0x04\n      dup1\n      calldatasize\n      sub\n      dup2\n      add\n      swap1\n      tag_96\n      swap2\n      swap1\n      tag_28\n      jump\t// in\n    tag_96:\n      tag_97\n      jump\t// in\n    tag_95:\n      stop\n        /* \"contracts/DAO_Project/dao.sol\":623:675  mapping(address=>mapping(uint=>bool)) public isVoted */\n    tag_18:\n      callvalue\n      dup1\n      iszero\n      tag_98\n      jumpi\n      0x00\n      dup1\n      revert\n    tag_98:\n      pop\n      tag_99\n      0x04\n      dup1\n      calldatasize\n      sub\n      dup2\n      add\n      swap1\n      tag_100\n      swap2\n      swap1\n      tag_101\n      jump\t// in\n    tag_100:\n      tag_102\n      jump\t// in\n    tag_99:\n      mload(0x40)\n      tag_103\n      swap2\n      swap1\n      tag_104\n      jump\t// in\n    tag_103:\n      mload(0x40)\n      dup1\n      swap2\n      sub\n      swap1\n      return\n        /* \"contracts/DAO_Project/dao.sol\":896:927  uint public contributionTimeEnd */\n    tag_19:\n      callvalue\n      dup1\n      iszero\n      tag_105\n      jumpi\n      0x00\n      dup1\n      revert\n    tag_105:\n      pop\n      tag_106\n      tag_107\n      jump\t// in\n    tag_106:\n      mload(0x40)\n      tag_108\n      swap2\n      swap1\n      tag_49\n      jump\t// in\n    tag_108:\n      mload(0x40)\n      dup1\n      swap2\n      sub\n      swap1\n      return\n        /* \"contracts/DAO_Project/dao.sol\":965:985  uint public voteTime */\n    tag_20:\n      callvalue\n      dup1\n      iszero\n      tag_109\n      jumpi\n      0x00\n      dup1\n      revert\n    tag_109:\n      pop\n      tag_110\n      tag_111\n      jump\t// in\n    tag_110:\n      mload(0x40)\n      tag_112\n      swap2\n      swap1\n      tag_49\n      jump\t// in\n    tag_112:\n      mload(0x40)\n      dup1\n      swap2\n      sub\n      swap1\n      return\n        /* \"contracts/DAO_Project/dao.sol\":2076:2501  function reedemShare(uint _amount) public onlyInvestor(){... */\n    tag_21:\n      callvalue\n      dup1\n      iszero\n      tag_113\n      jumpi\n      0x00\n      dup1\n      revert\n    tag_113:\n      pop\n      tag_114\n      0x04\n      dup1\n      calldatasize\n      sub\n      dup2\n      add\n      swap1\n      tag_115\n      swap2\n      swap1\n      tag_28\n      jump\t// in\n    tag_115:\n      tag_116\n      jump\t// in\n    tag_114:\n      stop\n        /* \"contracts/DAO_Project/dao.sol\":788:828  mapping(uint=>Proposal) public proposals */\n    tag_29:\n      mstore(0x20, 0x04)\n      dup1\n      0x00\n      mstore\n      keccak256(0x00, 0x40)\n      0x00\n      swap2\n      pop\n      swap1\n      pop\n      dup1\n      0x00\n      add\n      sload\n      swap1\n      dup1\n      0x01\n      add\n      dup1\n      sload\n      tag_117\n      swap1\n      tag_118\n      jump\t// in\n    tag_117:\n      dup1\n      0x1f\n      add\n      0x20\n      dup1\n      swap2\n      div\n      mul\n      0x20\n      add\n      mload(0x40)\n      swap1\n      dup2\n      add\n      0x40\n      mstore\n      dup1\n      swap3\n      swap2\n      swap1\n      dup2\n      dup2\n      mstore\n      0x20\n      add\n      dup3\n      dup1\n      sload\n      tag_119\n      swap1\n      tag_118\n      jump\t// in\n    tag_119:\n      dup1\n      iszero\n      tag_120\n      jumpi\n      dup1\n      0x1f\n      lt\n      tag_121\n      jumpi\n      0x0100\n      dup1\n      dup4\n      sload\n      div\n      mul\n      dup4\n      mstore\n      swap2\n      0x20\n      add\n      swap2\n      jump(tag_120)\n    tag_121:\n      dup3\n      add\n      swap2\n      swap1\n      0x00\n      mstore\n      keccak256(0x00, 0x20)\n      swap1\n    tag_122:\n      dup2\n      sload\n      dup2\n      mstore\n      swap1\n      0x01\n      add\n      swap1\n      0x20\n      add\n      dup1\n      dup4\n      gt\n      tag_122\n      jumpi\n      dup3\n      swap1\n      sub\n      0x1f\n      and\n      dup3\n      add\n      swap2\n    tag_120:\n      pop\n      pop\n      pop\n      pop\n      pop\n      swap1\n      dup1\n      0x02\n      add\n      sload\n      swap1\n      dup1\n      0x03\n      add\n      0x00\n      swap1\n      sload\n      swap1\n      0x0100\n      exp\n      swap1\n      div\n      0xffffffffffffffffffffffffffffffffffffffff\n      and\n      swap1\n      dup1\n      0x04\n      add\n      sload\n      swap1\n      dup1\n      0x05\n      add\n      sload\n      swap1\n      dup1\n      0x06\n      add\n      0x00\n      swap1\n      sload\n      swap1\n      0x0100\n      exp\n      swap1\n      div\n      0xff\n      and\n      swap1\n      dup1\n      0x06\n      add\n      0x01\n      swap1\n      sload\n      swap1\n      0x0100\n      exp\n      swap1\n      div\n      0xff\n      and\n      swap1\n      dup1\n      0x06\n      add\n      0x02\n      swap1\n      sload\n      swap1\n      0x0100\n      exp\n      swap1\n      div\n      0xff\n      and\n      swap1\n      pop\n      dup10\n      jump\t// out\n        /* \"contracts/DAO_Project/dao.sol\":5003:5257  function Veto(uint _proposalId) external onlyInvestor(){... */\n    tag_35:\n        /* \"contracts/DAO_Project/dao.sol\":1534:1538  true */\n      0x01\n        /* \"contracts/DAO_Project/dao.sol\":1510:1538  isInvestor[msg.sender]==true */\n      iszero\n      iszero\n        /* \"contracts/DAO_Project/dao.sol\":1510:1520  isInvestor */\n      0x00\n        /* \"contracts/DAO_Project/dao.sol\":1510:1532  isInvestor[msg.sender] */\n      dup1\n        /* \"contracts/DAO_Project/dao.sol\":1521:1531  msg.sender */\n      caller\n        /* \"contracts/DAO_Project/dao.sol\":1510:1532  isInvestor[msg.sender] */\n      0xffffffffffffffffffffffffffffffffffffffff\n      and\n      0xffffffffffffffffffffffffffffffffffffffff\n      and\n      dup2\n      mstore\n      0x20\n      add\n      swap1\n      dup2\n      mstore\n      0x20\n      add\n      0x00\n      keccak256\n      0x00\n      swap1\n      sload\n      swap1\n      0x0100\n      exp\n      swap1\n      div\n      0xff\n      and\n        /* \"contracts/DAO_Project/dao.sol\":1510:1538  isInvestor[msg.sender]==true */\n      iszero\n      iszero\n      eq\n        /* \"contracts/DAO_Project/dao.sol\":1502:1565  require(isInvestor[msg.sender]==true,\"You are not an investor\") */\n      tag_124\n      jumpi\n      mload(0x40)\n      0x08c379a000000000000000000000000000000000000000000000000000000000\n      dup2\n      mstore\n      0x04\n      add\n      tag_125\n      swap1\n      tag_126\n      jump\t// in\n    tag_125:\n      mload(0x40)\n      dup1\n      swap2\n      sub\n      swap1\n      revert\n    tag_124:\n        /* \"contracts/DAO_Project/dao.sol\":5118:5120  33 */\n      0x21\n        /* \"contracts/DAO_Project/dao.sol\":5105:5116  totalShares */\n      sload(0x05)\n        /* \"contracts/DAO_Project/dao.sol\":5101:5104  100 */\n      0x64\n        /* \"contracts/DAO_Project/dao.sol\":5077:5088  numOfShares */\n      0x01\n        /* \"contracts/DAO_Project/dao.sol\":5077:5100  numOfShares[msg.sender] */\n      0x00\n        /* \"contracts/DAO_Project/dao.sol\":5089:5099  msg.sender */\n      caller\n        /* \"contracts/DAO_Project/dao.sol\":5077:5100  numOfShares[msg.sender] */\n      0xffffffffffffffffffffffffffffffffffffffff\n      and\n      0xffffffffffffffffffffffffffffffffffffffff\n      and\n      dup2\n      mstore\n      0x20\n      add\n      swap1\n      dup2\n      mstore\n      0x20\n      add\n      0x00\n      keccak256\n      sload\n        /* \"contracts/DAO_Project/dao.sol\":5077:5104  numOfShares[msg.sender]*100 */\n      tag_128\n      swap2\n      swap1\n      tag_129\n      jump\t// in\n    tag_128:\n        /* \"contracts/DAO_Project/dao.sol\":5077:5116  numOfShares[msg.sender]*100/totalShares */\n      tag_130\n      swap2\n      swap1\n      tag_131\n      jump\t// in\n    tag_130:\n        /* \"contracts/DAO_Project/dao.sol\":5076:5120  (numOfShares[msg.sender]*100/totalShares)>33 */\n      gt\n        /* \"contracts/DAO_Project/dao.sol\":5068:5161  require((numOfShares[msg.sender]*100/totalShares)>33,\"You do not have to power to give veto\") */\n      tag_132\n      jumpi\n      mload(0x40)\n      0x08c379a000000000000000000000000000000000000000000000000000000000\n      dup2\n      mstore\n      0x04\n      add\n      tag_133\n      swap1\n      tag_134\n      jump\t// in\n    tag_133:\n      mload(0x40)\n      dup1\n      swap2\n      sub\n      swap1\n      revert\n    tag_132:\n        /* \"contracts/DAO_Project/dao.sol\":5171:5196  Proposal storage proposal */\n      0x00\n        /* \"contracts/DAO_Project/dao.sol\":5198:5207  proposals */\n      0x04\n        /* \"contracts/DAO_Project/dao.sol\":5198:5220  proposals[_proposalId] */\n      0x00\n        /* \"contracts/DAO_Project/dao.sol\":5208:5219  _proposalId */\n      dup4\n        /* \"contracts/DAO_Project/dao.sol\":5198:5220  proposals[_proposalId] */\n      dup2\n      mstore\n      0x20\n      add\n      swap1\n      dup2\n      mstore\n      0x20\n      add\n      0x00\n      keccak256\n        /* \"contracts/DAO_Project/dao.sol\":5171:5220  Proposal storage proposal= proposals[_proposalId] */\n      swap1\n      pop\n        /* \"contracts/DAO_Project/dao.sol\":5246:5250  true */\n      0x01\n        /* \"contracts/DAO_Project/dao.sol\":5230:5238  proposal */\n      dup2\n        /* \"contracts/DAO_Project/dao.sol\":5230:5243  proposal.veto */\n      0x06\n      add\n      0x01\n        /* \"contracts/DAO_Project/dao.sol\":5230:5250  proposal.veto = true */\n      0x0100\n      exp\n      dup2\n      sload\n      dup2\n      0xff\n      mul\n      not\n      and\n      swap1\n      dup4\n      iszero\n      iszero\n      mul\n      or\n      swap1\n      sstore\n      pop\n        /* \"contracts/DAO_Project/dao.sol\":5058:5257  {... */\n      pop\n        /* \"contracts/DAO_Project/dao.sol\":5003:5257  function Veto(uint _proposalId) external onlyInvestor(){... */\n      pop\n      jump\t// out\n        /* \"contracts/DAO_Project/dao.sol\":2507:2968  function transferShare(uint _amount, address _to) public onlyInvestor(){... */\n    tag_40:\n        /* \"contracts/DAO_Project/dao.sol\":1534:1538  true */\n      0x01\n        /* \"contracts/DAO_Project/dao.sol\":1510:1538  isInvestor[msg.sender]==true */\n      iszero\n      iszero\n        /* \"contracts/DAO_Project/dao.sol\":1510:1520  isInvestor */\n      0x00\n        /* \"contracts/DAO_Project/dao.sol\":1510:1532  isInvestor[msg.sender] */\n      dup1\n        /* \"contracts/DAO_Project/dao.sol\":1521:1531  msg.sender */\n      caller\n        /* \"contracts/DAO_Project/dao.sol\":1510:1532  isInvestor[msg.sender] */\n      0xffffffffffffffffffffffffffffffffffffffff\n      and\n      0xffffffffffffffffffffffffffffffffffffffff\n      and\n      dup2\n      mstore\n      0x20\n      add\n      swap1\n      dup2\n      mstore\n      0x20\n      add\n      0x00\n      keccak256\n      0x00\n      swap1\n      sload\n      swap1\n      0x0100\n      exp\n      swap1\n      div\n      0xff\n      and\n        /* \"contracts/DAO_Project/dao.sol\":1510:1538  isInvestor[msg.sender]==true */\n      iszero\n      iszero\n      eq\n        /* \"contracts/DAO_Project/dao.sol\":1502:1565  require(isInvestor[msg.sender]==true,\"You are not an investor\") */\n      tag_136\n      jumpi\n      mload(0x40)\n      0x08c379a000000000000000000000000000000000000000000000000000000000\n      dup2\n      mstore\n      0x04\n      add\n      tag_137\n      swap1\n      tag_126\n      jump\t// in\n    tag_137:\n      mload(0x40)\n      dup1\n      swap2\n      sub\n      swap1\n      revert\n    tag_136:\n        /* \"contracts/DAO_Project/dao.sol\":2621:2628  _amount */\n      dup2\n        /* \"contracts/DAO_Project/dao.sol\":2596:2607  numOfShares */\n      0x01\n        /* \"contracts/DAO_Project/dao.sol\":2596:2619  numOfShares[msg.sender] */\n      0x00\n        /* \"contracts/DAO_Project/dao.sol\":2608:2618  msg.sender */\n      caller\n        /* \"contracts/DAO_Project/dao.sol\":2596:2619  numOfShares[msg.sender] */\n      0xffffffffffffffffffffffffffffffffffffffff\n      and\n      0xffffffffffffffffffffffffffffffffffffffff\n      and\n      dup2\n      mstore\n      0x20\n      add\n      swap1\n      dup2\n      mstore\n      0x20\n      add\n      0x00\n      keccak256\n      sload\n        /* \"contracts/DAO_Project/dao.sol\":2596:2628  numOfShares[msg.sender]>=_amount */\n      lt\n      iszero\n        /* \"contracts/DAO_Project/dao.sol\":2588:2662  require(numOfShares[msg.sender]>=_amount,\"You don't have tihs much share\") */\n      tag_139\n      jumpi\n      mload(0x40)\n      0x08c379a000000000000000000000000000000000000000000000000000000000\n      dup2\n      mstore\n      0x04\n      add\n      tag_140\n      swap1\n      tag_141\n      jump\t// in\n    tag_140:\n      mload(0x40)\n      dup1\n      swap2\n      sub\n      swap1\n      revert\n    tag_139:\n        /* \"contracts/DAO_Project/dao.sol\":2696:2703  _amount */\n      dup2\n        /* \"contracts/DAO_Project/dao.sol\":2680:2694  availableFunds */\n      sload(0x06)\n        /* \"contracts/DAO_Project/dao.sol\":2680:2703  availableFunds>=_amount */\n      lt\n      iszero\n        /* \"contracts/DAO_Project/dao.sol\":2672:2725  require(availableFunds>=_amount,\"Insufficient Funds\") */\n      tag_142\n      jumpi\n      mload(0x40)\n      0x08c379a000000000000000000000000000000000000000000000000000000000\n      dup2\n      mstore\n      0x04\n      add\n      tag_143\n      swap1\n      tag_144\n      jump\t// in\n    tag_143:\n      mload(0x40)\n      dup1\n      swap2\n      sub\n      swap1\n      revert\n    tag_142:\n        /* \"contracts/DAO_Project/dao.sol\":2761:2768  _amount */\n      dup2\n        /* \"contracts/DAO_Project/dao.sol\":2736:2747  numOfShares */\n      0x01\n        /* \"contracts/DAO_Project/dao.sol\":2736:2759  numOfShares[msg.sender] */\n      0x00\n        /* \"contracts/DAO_Project/dao.sol\":2748:2758  msg.sender */\n      caller\n        /* \"contracts/DAO_Project/dao.sol\":2736:2759  numOfShares[msg.sender] */\n      0xffffffffffffffffffffffffffffffffffffffff\n      and\n      0xffffffffffffffffffffffffffffffffffffffff\n      and\n      dup2\n      mstore\n      0x20\n      add\n      swap1\n      dup2\n      mstore\n      0x20\n      add\n      0x00\n      keccak256\n      0x00\n        /* \"contracts/DAO_Project/dao.sol\":2736:2768  numOfShares[msg.sender]-=_amount */\n      dup3\n      dup3\n      sload\n      tag_145\n      swap2\n      swap1\n      tag_146\n      jump\t// in\n    tag_145:\n      swap3\n      pop\n      pop\n      dup2\n      swap1\n      sstore\n      pop\n        /* \"contracts/DAO_Project/dao.sol\":2806:2807  0 */\n      0x00\n        /* \"contracts/DAO_Project/dao.sol\":2781:2792  numOfShares */\n      0x01\n        /* \"contracts/DAO_Project/dao.sol\":2781:2804  numOfShares[msg.sender] */\n      0x00\n        /* \"contracts/DAO_Project/dao.sol\":2793:2803  msg.sender */\n      caller\n        /* \"contracts/DAO_Project/dao.sol\":2781:2804  numOfShares[msg.sender] */\n      0xffffffffffffffffffffffffffffffffffffffff\n      and\n      0xffffffffffffffffffffffffffffffffffffffff\n      and\n      dup2\n      mstore\n      0x20\n      add\n      swap1\n      dup2\n      mstore\n      0x20\n      add\n      0x00\n      keccak256\n      sload\n        /* \"contracts/DAO_Project/dao.sol\":2781:2807  numOfShares[msg.sender]==0 */\n      sub\n        /* \"contracts/DAO_Project/dao.sol\":2778:2862  if(numOfShares[msg.sender]==0){... */\n      tag_147\n      jumpi\n        /* \"contracts/DAO_Project/dao.sol\":2846:2851  false */\n      0x00\n        /* \"contracts/DAO_Project/dao.sol\":2822:2832  isInvestor */\n      dup1\n        /* \"contracts/DAO_Project/dao.sol\":2822:2844  isInvestor[msg.sender] */\n      0x00\n        /* \"contracts/DAO_Project/dao.sol\":2833:2843  msg.sender */\n      caller\n        /* \"contracts/DAO_Project/dao.sol\":2822:2844  isInvestor[msg.sender] */\n      0xffffffffffffffffffffffffffffffffffffffff\n      and\n      0xffffffffffffffffffffffffffffffffffffffff\n      and\n      dup2\n      mstore\n      0x20\n      add\n      swap1\n      dup2\n      mstore\n      0x20\n      add\n      0x00\n      keccak256\n      0x00\n        /* \"contracts/DAO_Project/dao.sol\":2822:2851  isInvestor[msg.sender]= false */\n      0x0100\n      exp\n      dup2\n      sload\n      dup2\n      0xff\n      mul\n      not\n      and\n      swap1\n      dup4\n      iszero\n      iszero\n      mul\n      or\n      swap1\n      sstore\n      pop\n        /* \"contracts/DAO_Project/dao.sol\":2778:2862  if(numOfShares[msg.sender]==0){... */\n    tag_147:\n        /* \"contracts/DAO_Project/dao.sol\":2889:2896  _amount */\n      dup2\n        /* \"contracts/DAO_Project/dao.sol\":2871:2882  numOfShares */\n      0x01\n        /* \"contracts/DAO_Project/dao.sol\":2871:2887  numOfShares[_to] */\n      0x00\n        /* \"contracts/DAO_Project/dao.sol\":2883:2886  _to */\n      dup4\n        /* \"contracts/DAO_Project/dao.sol\":2871:2887  numOfShares[_to] */\n      0xffffffffffffffffffffffffffffffffffffffff\n      and\n      0xffffffffffffffffffffffffffffffffffffffff\n      and\n      dup2\n      mstore\n      0x20\n      add\n      swap1\n      dup2\n      mstore\n      0x20\n      add\n      0x00\n      keccak256\n      0x00\n        /* \"contracts/DAO_Project/dao.sol\":2871:2896  numOfShares[_to]+=_amount */\n      dup3\n      dup3\n      sload\n      tag_148\n      swap2\n      swap1\n      tag_149\n      jump\t// in\n    tag_148:\n      swap3\n      pop\n      pop\n      dup2\n      swap1\n      sstore\n      pop\n        /* \"contracts/DAO_Project/dao.sol\":2924:2928  true */\n      0x01\n        /* \"contracts/DAO_Project/dao.sol\":2906:2916  isInvestor */\n      0x00\n        /* \"contracts/DAO_Project/dao.sol\":2906:2921  isInvestor[_to] */\n      dup1\n        /* \"contracts/DAO_Project/dao.sol\":2917:2920  _to */\n      dup4\n        /* \"contracts/DAO_Project/dao.sol\":2906:2921  isInvestor[_to] */\n      0xffffffffffffffffffffffffffffffffffffffff\n      and\n      0xffffffffffffffffffffffffffffffffffffffff\n      and\n      dup2\n      mstore\n      0x20\n      add\n      swap1\n      dup2\n      mstore\n      0x20\n      add\n      0x00\n      keccak256\n      0x00\n        /* \"contracts/DAO_Project/dao.sol\":2906:2928  isInvestor[_to] = true */\n      0x0100\n      exp\n      dup2\n      sload\n      dup2\n      0xff\n      mul\n      not\n      and\n      swap1\n      dup4\n      iszero\n      iszero\n      mul\n      or\n      swap1\n      sstore\n      pop\n        /* \"contracts/DAO_Project/dao.sol\":2938:2951  investorsList */\n      0x03\n        /* \"contracts/DAO_Project/dao.sol\":2957:2960  _to */\n      dup2\n        /* \"contracts/DAO_Project/dao.sol\":2938:2961  investorsList.push(_to) */\n      swap1\n      dup1\n      0x01\n      dup2\n      sload\n      add\n      dup1\n      dup3\n      sstore\n      dup1\n      swap2\n      pop\n      pop\n      0x01\n      swap1\n      sub\n      swap1\n      0x00\n      mstore\n      keccak256(0x00, 0x20)\n      add\n      0x00\n      swap1\n      swap2\n      swap1\n      swap2\n      swap1\n      swap2\n      0x0100\n      exp\n      dup2\n      sload\n      dup2\n      0xffffffffffffffffffffffffffffffffffffffff\n      mul\n      not\n      and\n      swap1\n      dup4\n      0xffffffffffffffffffffffffffffffffffffffff\n      and\n      mul\n      or\n      swap1\n      sstore\n      pop\n        /* \"contracts/DAO_Project/dao.sol\":2507:2968  function transferShare(uint _amount, address _to) public onlyInvestor(){... */\n      pop\n      pop\n      jump\t// out\n        /* \"contracts/DAO_Project/dao.sol\":4123:4630  function executeProposal(uint _proposalId) public onlyManager(){... */\n    tag_44:\n        /* \"contracts/DAO_Project/dao.sol\":1638:1648  msg.sender */\n      caller\n        /* \"contracts/DAO_Project/dao.sol\":1629:1648  manager==msg.sender */\n      0xffffffffffffffffffffffffffffffffffffffff\n      and\n        /* \"contracts/DAO_Project/dao.sol\":1629:1636  manager */\n      0x0b\n      0x00\n      swap1\n      sload\n      swap1\n      0x0100\n      exp\n      swap1\n      div\n      0xffffffffffffffffffffffffffffffffffffffff\n      and\n        /* \"contracts/DAO_Project/dao.sol\":1629:1648  manager==msg.sender */\n      0xffffffffffffffffffffffffffffffffffffffff\n      and\n      eq\n        /* \"contracts/DAO_Project/dao.sol\":1621:1671  require(manager==msg.sender,\"You are not manager\") */\n      tag_152\n      jumpi\n      mload(0x40)\n      0x08c379a000000000000000000000000000000000000000000000000000000000\n      dup2\n      mstore\n      0x04\n      add\n      tag_153\n      swap1\n      tag_154\n      jump\t// in\n    tag_153:\n      mload(0x40)\n      dup1\n      swap2\n      sub\n      swap1\n      revert\n    tag_152:\n        /* \"contracts/DAO_Project/dao.sol\":4196:4221  Proposal storage proposal */\n      0x00\n        /* \"contracts/DAO_Project/dao.sol\":4224:4233  proposals */\n      0x04\n        /* \"contracts/DAO_Project/dao.sol\":4224:4246  proposals[_proposalId] */\n      0x00\n        /* \"contracts/DAO_Project/dao.sol\":4234:4245  _proposalId */\n      dup4\n        /* \"contracts/DAO_Project/dao.sol\":4224:4246  proposals[_proposalId] */\n      dup2\n      mstore\n      0x20\n      add\n      swap1\n      dup2\n      mstore\n      0x20\n      add\n      0x00\n      keccak256\n        /* \"contracts/DAO_Project/dao.sol\":4196:4246  Proposal storage proposal = proposals[_proposalId] */\n      swap1\n      pop\n        /* \"contracts/DAO_Project/dao.sol\":4300:4306  quorum */\n      sload(0x0a)\n        /* \"contracts/DAO_Project/dao.sol\":4286:4297  totalShares */\n      sload(0x05)\n        /* \"contracts/DAO_Project/dao.sol\":4281:4284  100 */\n      0x64\n        /* \"contracts/DAO_Project/dao.sol\":4266:4274  proposal */\n      dup4\n        /* \"contracts/DAO_Project/dao.sol\":4266:4280  proposal.votes */\n      0x04\n      add\n      sload\n        /* \"contracts/DAO_Project/dao.sol\":4266:4284  proposal.votes*100 */\n      tag_156\n      swap2\n      swap1\n      tag_129\n      jump\t// in\n    tag_156:\n        /* \"contracts/DAO_Project/dao.sol\":4265:4297  (proposal.votes*100)/totalShares */\n      tag_157\n      swap2\n      swap1\n      tag_131\n      jump\t// in\n    tag_157:\n        /* \"contracts/DAO_Project/dao.sol\":4264:4306  ((proposal.votes*100)/totalShares)>=quorum */\n      lt\n      iszero\n        /* \"contracts/DAO_Project/dao.sol\":4256:4335  require(((proposal.votes*100)/totalShares)>=quorum,\"Majority does not support\") */\n      tag_158\n      jumpi\n      mload(0x40)\n      0x08c379a000000000000000000000000000000000000000000000000000000000\n      dup2\n      mstore\n      0x04\n      add\n      tag_159\n      swap1\n      tag_160\n      jump\t// in\n    tag_159:\n      mload(0x40)\n      dup1\n      swap2\n      sub\n      swap1\n      revert\n    tag_158:\n        /* \"contracts/DAO_Project/dao.sol\":4368:4373  false */\n      0x00\n        /* \"contracts/DAO_Project/dao.sol\":4353:4373  proposal.veto==false */\n      iszero\n      iszero\n        /* \"contracts/DAO_Project/dao.sol\":4353:4361  proposal */\n      dup2\n        /* \"contracts/DAO_Project/dao.sol\":4353:4366  proposal.veto */\n      0x06\n      add\n      0x01\n      swap1\n      sload\n      swap1\n      0x0100\n      exp\n      swap1\n      div\n      0xff\n      and\n        /* \"contracts/DAO_Project/dao.sol\":4353:4373  proposal.veto==false */\n      iszero\n      iszero\n      eq\n        /* \"contracts/DAO_Project/dao.sol\":4345:4413  require(proposal.veto==false,\"Veto has been given to this proposal\") */\n      tag_161\n      jumpi\n      mload(0x40)\n      0x08c379a000000000000000000000000000000000000000000000000000000000\n      dup2\n      mstore\n      0x04\n      add\n      tag_162\n      swap1\n      tag_163\n      jump\t// in\n    tag_162:\n      mload(0x40)\n      dup1\n      swap2\n      sub\n      swap1\n      revert\n    tag_161:\n        /* \"contracts/DAO_Project/dao.sol\":4452:4457  false */\n      0x00\n        /* \"contracts/DAO_Project/dao.sol\":4431:4457  proposal.canceled == false */\n      iszero\n      iszero\n        /* \"contracts/DAO_Project/dao.sol\":4431:4439  proposal */\n      dup2\n        /* \"contracts/DAO_Project/dao.sol\":4431:4448  proposal.canceled */\n      0x06\n      add\n      0x02\n      swap1\n      sload\n      swap1\n      0x0100\n      exp\n      swap1\n      div\n      0xff\n      and\n        /* \"contracts/DAO_Project/dao.sol\":4431:4457  proposal.canceled == false */\n      iszero\n      iszero\n      eq\n        /* \"contracts/DAO_Project/dao.sol\":4423:4491  require(proposal.canceled == false,\"The proposal has been canceled\") */\n      tag_164\n      jumpi\n      mload(0x40)\n      0x08c379a000000000000000000000000000000000000000000000000000000000\n      dup2\n      mstore\n      0x04\n      add\n      tag_165\n      swap1\n      tag_166\n      jump\t// in\n    tag_165:\n      mload(0x40)\n      dup1\n      swap2\n      sub\n      swap1\n      revert\n    tag_164:\n        /* \"contracts/DAO_Project/dao.sol\":4522:4526  true */\n      0x01\n        /* \"contracts/DAO_Project/dao.sol\":4501:4526  proposal.isExecuted==true */\n      iszero\n      iszero\n        /* \"contracts/DAO_Project/dao.sol\":4501:4509  proposal */\n      dup2\n        /* \"contracts/DAO_Project/dao.sol\":4501:4520  proposal.isExecuted */\n      0x06\n      add\n      0x00\n      swap1\n      sload\n      swap1\n      0x0100\n      exp\n      swap1\n      pop\n      pop\n        /* \"contracts/DAO_Project/dao.sol\":4501:4526  proposal.isExecuted==true */\n      pop\n        /* \"contracts/DAO_Project/dao.sol\":4553:4561  proposal */\n      dup1\n        /* \"contracts/DAO_Project/dao.sol\":4553:4568  proposal.amount */\n      0x02\n      add\n      sload\n        /* \"contracts/DAO_Project/dao.sol\":4536:4550  availableFunds */\n      0x06\n      0x00\n        /* \"contracts/DAO_Project/dao.sol\":4536:4568  availableFunds -=proposal.amount */\n      dup3\n      dup3\n      sload\n      tag_167\n      swap2\n      swap1\n      tag_146\n      jump\t// in\n    tag_167:\n      swap3\n      pop\n      pop\n      dup2\n      swap1\n      sstore\n      pop\n        /* \"contracts/DAO_Project/dao.sol\":4578:4623  _transfer(proposal.amount,proposal.recipient) */\n      tag_168\n        /* \"contracts/DAO_Project/dao.sol\":4588:4596  proposal */\n      dup2\n        /* \"contracts/DAO_Project/dao.sol\":4588:4603  proposal.amount */\n      0x02\n      add\n      sload\n        /* \"contracts/DAO_Project/dao.sol\":4604:4612  proposal */\n      dup3\n        /* \"contracts/DAO_Project/dao.sol\":4604:4622  proposal.recipient */\n      0x03\n      add\n      0x00\n      swap1\n      sload\n      swap1\n      0x0100\n      exp\n      swap1\n      div\n      0xffffffffffffffffffffffffffffffffffffffff\n      and\n        /* \"contracts/DAO_Project/dao.sol\":4578:4587  _transfer */\n      tag_169\n        /* \"contracts/DAO_Project/dao.sol\":4578:4623  _transfer(proposal.amount,proposal.recipient) */\n      jump\t// in\n    tag_168:\n        /* \"contracts/DAO_Project/dao.sol\":4186:4630  {... */\n      pop\n        /* \"contracts/DAO_Project/dao.sol\":4123:4630  function executeProposal(uint _proposalId) public onlyManager(){... */\n      pop\n      jump\t// out\n        /* \"contracts/DAO_Project/dao.sol\":1053:1071  uint public quorum */\n    tag_47:\n      sload(0x0a)\n      dup2\n      jump\t// out\n        /* \"contracts/DAO_Project/dao.sol\":933:959  uint public nextProposalId */\n    tag_52:\n      sload(0x08)\n      dup2\n      jump\t// out\n        /* \"contracts/DAO_Project/dao.sol\":752:782  address[] public investorsList */\n    tag_57:\n      0x03\n      dup2\n      dup2\n      sload\n      dup2\n      lt\n      tag_170\n      jumpi\n      0x00\n      dup1\n      revert\n    tag_170:\n      swap1\n      0x00\n      mstore\n      keccak256(0x00, 0x20)\n      add\n      0x00\n      swap2\n      pop\n      sload\n      swap1\n      0x0100\n      exp\n      swap1\n      div\n      0xffffffffffffffffffffffffffffffffffffffff\n      and\n      dup2\n      jump\t// out\n        /* \"contracts/DAO_Project/dao.sol\":835:858  uint public totalShares */\n    tag_62:\n      sload(0x05)\n      dup2\n      jump\t// out\n        /* \"contracts/DAO_Project/dao.sol\":864:890  uint public availableFunds */\n    tag_66:\n      sload(0x06)\n      dup2\n      jump\t// out\n        /* \"contracts/DAO_Project/dao.sol\":1077:1099  address public manager */\n    tag_70:\n      0x0b\n      0x00\n      swap1\n      sload\n      swap1\n      0x0100\n      exp\n      swap1\n      div\n      0xffffffffffffffffffffffffffffffffffffffff\n      and\n      dup2\n      jump\t// out\n        /* \"contracts/DAO_Project/dao.sol\":1695:2070  function contribution() external payable{... */\n    tag_73:\n        /* \"contracts/DAO_Project/dao.sol\":1774:1789  block.timestamp */\n      timestamp\n        /* \"contracts/DAO_Project/dao.sol\":1753:1772  contributionTimeEnd */\n      sload(0x07)\n        /* \"contracts/DAO_Project/dao.sol\":1753:1789  contributionTimeEnd>=block.timestamp */\n      lt\n      iszero\n        /* \"contracts/DAO_Project/dao.sol\":1745:1818  require(contributionTimeEnd>=block.timestamp,\"Contribution time expired\") */\n      tag_173\n      jumpi\n      mload(0x40)\n      0x08c379a000000000000000000000000000000000000000000000000000000000\n      dup2\n      mstore\n      0x04\n      add\n      tag_174\n      swap1\n      tag_175\n      jump\t// in\n    tag_174:\n      mload(0x40)\n      dup1\n      swap2\n      sub\n      swap1\n      revert\n    tag_173:\n        /* \"contracts/DAO_Project/dao.sol\":1846:1847  0 */\n      0x00\n        /* \"contracts/DAO_Project/dao.sol\":1836:1845  msg.value */\n      callvalue\n        /* \"contracts/DAO_Project/dao.sol\":1836:1847  msg.value>0 */\n      gt\n        /* \"contracts/DAO_Project/dao.sol\":1828:1874  require(msg.value>0,\"Can not send zero ether\") */\n      tag_176\n      jumpi\n      mload(0x40)\n      0x08c379a000000000000000000000000000000000000000000000000000000000\n      dup2\n      mstore\n      0x04\n      add\n      tag_177\n      swap1\n      tag_178\n      jump\t// in\n    tag_177:\n      mload(0x40)\n      dup1\n      swap2\n      sub\n      swap1\n      revert\n    tag_176:\n        /* \"contracts/DAO_Project/dao.sol\":1907:1911  true */\n      0x01\n        /* \"contracts/DAO_Project/dao.sol\":1884:1894  isInvestor */\n      0x00\n        /* \"contracts/DAO_Project/dao.sol\":1884:1906  isInvestor[msg.sender] */\n      dup1\n        /* \"contracts/DAO_Project/dao.sol\":1895:1905  msg.sender */\n      caller\n        /* \"contracts/DAO_Project/dao.sol\":1884:1906  isInvestor[msg.sender] */\n      0xffffffffffffffffffffffffffffffffffffffff\n      and\n      0xffffffffffffffffffffffffffffffffffffffff\n      and\n      dup2\n      mstore\n      0x20\n      add\n      swap1\n      dup2\n      mstore\n      0x20\n      add\n      0x00\n      keccak256\n      0x00\n        /* \"contracts/DAO_Project/dao.sol\":1884:1911  isInvestor[msg.sender]=true */\n      0x0100\n      exp\n      dup2\n      sload\n      dup2\n      0xff\n      mul\n      not\n      and\n      swap1\n      dup4\n      iszero\n      iszero\n      mul\n      or\n      swap1\n      sstore\n      pop\n        /* \"contracts/DAO_Project/dao.sol\":1947:1956  msg.value */\n      callvalue\n        /* \"contracts/DAO_Project/dao.sol\":1921:1932  numOfShares */\n      0x01\n        /* \"contracts/DAO_Project/dao.sol\":1921:1944  numOfShares[msg.sender] */\n      0x00\n        /* \"contracts/DAO_Project/dao.sol\":1933:1943  msg.sender */\n      caller\n        /* \"contracts/DAO_Project/dao.sol\":1921:1944  numOfShares[msg.sender] */\n      0xffffffffffffffffffffffffffffffffffffffff\n      and\n      0xffffffffffffffffffffffffffffffffffffffff\n      and\n      dup2\n      mstore\n      0x20\n      add\n      swap1\n      dup2\n      mstore\n      0x20\n      add\n      0x00\n      keccak256\n      0x00\n        /* \"contracts/DAO_Project/dao.sol\":1921:1956  numOfShares[msg.sender]+= msg.value */\n      dup3\n      dup3\n      sload\n      tag_179\n      swap2\n      swap1\n      tag_149\n      jump\t// in\n    tag_179:\n      swap3\n      pop\n      pop\n      dup2\n      swap1\n      sstore\n      pop\n        /* \"contracts/DAO_Project/dao.sol\":1979:1988  msg.value */\n      callvalue\n        /* \"contracts/DAO_Project/dao.sol\":1966:1977  totalShares */\n      0x05\n      0x00\n        /* \"contracts/DAO_Project/dao.sol\":1966:1988  totalShares+=msg.value */\n      dup3\n      dup3\n      sload\n      tag_180\n      swap2\n      swap1\n      tag_149\n      jump\t// in\n    tag_180:\n      swap3\n      pop\n      pop\n      dup2\n      swap1\n      sstore\n      pop\n        /* \"contracts/DAO_Project/dao.sol\":1998:2011  investorsList */\n      0x03\n        /* \"contracts/DAO_Project/dao.sol\":2017:2027  msg.sender */\n      caller\n        /* \"contracts/DAO_Project/dao.sol\":1998:2028  investorsList.push(msg.sender) */\n      swap1\n      dup1\n      0x01\n      dup2\n      sload\n      add\n      dup1\n      dup3\n      sstore\n      dup1\n      swap2\n      pop\n      pop\n      0x01\n      swap1\n      sub\n      swap1\n      0x00\n      mstore\n      keccak256(0x00, 0x20)\n      add\n      0x00\n      swap1\n      swap2\n      swap1\n      swap2\n      swap1\n      swap2\n      0x0100\n      exp\n      dup2\n      sload\n      dup2\n      0xffffffffffffffffffffffffffffffffffffffff\n      mul\n      not\n      and\n      swap1\n      dup4\n      0xffffffffffffffffffffffffffffffffffffffff\n      and\n      mul\n      or\n      swap1\n      sstore\n      pop\n        /* \"contracts/DAO_Project/dao.sol\":2054:2063  msg.value */\n      callvalue\n        /* \"contracts/DAO_Project/dao.sol\":2038:2052  availableFunds */\n      0x06\n      0x00\n        /* \"contracts/DAO_Project/dao.sol\":2038:2063  availableFunds+=msg.value */\n      dup3\n      dup3\n      sload\n      tag_182\n      swap2\n      swap1\n      tag_149\n      jump\t// in\n    tag_182:\n      swap3\n      pop\n      pop\n      dup2\n      swap1\n      sstore\n      pop\n        /* \"contracts/DAO_Project/dao.sol\":1695:2070  function contribution() external payable{... */\n      jump\t// out\n        /* \"contracts/DAO_Project/dao.sol\":576:617  mapping(address=>uint) public numOfShares */\n    tag_78:\n      mstore(0x20, 0x01)\n      dup1\n      0x00\n      mstore\n      keccak256(0x00, 0x40)\n      0x00\n      swap2\n      pop\n      swap1\n      pop\n      sload\n      dup2\n      jump\t// out\n        /* \"contracts/DAO_Project/dao.sol\":2974:3430  function createProposal(string calldata _description, uint _amount, address payable _recepient) public {... */\n    tag_84:\n        /* \"contracts/DAO_Project/dao.sol\":3111:3118  _amount */\n      dup2\n        /* \"contracts/DAO_Project/dao.sol\":3095:3109  availableFunds */\n      sload(0x06)\n        /* \"contracts/DAO_Project/dao.sol\":3095:3118  availableFunds>=_amount */\n      lt\n      iszero\n        /* \"contracts/DAO_Project/dao.sol\":3087:3138  require(availableFunds>=_amount,\"Not enough funds\") */\n      tag_184\n      jumpi\n      mload(0x40)\n      0x08c379a000000000000000000000000000000000000000000000000000000000\n      dup2\n      mstore\n      0x04\n      add\n      tag_185\n      swap1\n      tag_186\n      jump\t// in\n    tag_185:\n      mload(0x40)\n      dup1\n      swap2\n      sub\n      swap1\n      revert\n    tag_184:\n        /* \"contracts/DAO_Project/dao.sol\":3177:3396  Proposal(nextProposalId,... */\n      mload(0x40)\n      dup1\n      0x0120\n      add\n      0x40\n      mstore\n      dup1\n        /* \"contracts/DAO_Project/dao.sol\":3186:3200  nextProposalId */\n      sload(0x08)\n        /* \"contracts/DAO_Project/dao.sol\":3177:3396  Proposal(nextProposalId,... */\n      dup2\n      mstore\n      0x20\n      add\n        /* \"contracts/DAO_Project/dao.sol\":3214:3226  _description */\n      dup6\n      dup6\n        /* \"contracts/DAO_Project/dao.sol\":3177:3396  Proposal(nextProposalId,... */\n      dup1\n      dup1\n      0x1f\n      add\n      0x20\n      dup1\n      swap2\n      div\n      mul\n      0x20\n      add\n      mload(0x40)\n      swap1\n      dup2\n      add\n      0x40\n      mstore\n      dup1\n      swap4\n      swap3\n      swap2\n      swap1\n      dup2\n      dup2\n      mstore\n      0x20\n      add\n      dup4\n      dup4\n      dup1\n      dup3\n      dup5\n      calldatacopy\n      0x00\n      dup2\n      dup5\n      add\n      mstore\n      not(0x1f)\n      0x1f\n      dup3\n      add\n      and\n      swap1\n      pop\n      dup1\n      dup4\n      add\n      swap3\n      pop\n      pop\n      pop\n      pop\n      pop\n      pop\n      pop\n      dup2\n      mstore\n      0x20\n      add\n        /* \"contracts/DAO_Project/dao.sol\":3240:3247  _amount */\n      dup4\n        /* \"contracts/DAO_Project/dao.sol\":3177:3396  Proposal(nextProposalId,... */\n      dup2\n      mstore\n      0x20\n      add\n        /* \"contracts/DAO_Project/dao.sol\":3261:3271  _recepient */\n      dup3\n        /* \"contracts/DAO_Project/dao.sol\":3177:3396  Proposal(nextProposalId,... */\n      0xffffffffffffffffffffffffffffffffffffffff\n      and\n      dup2\n      mstore\n      0x20\n      add\n        /* \"contracts/DAO_Project/dao.sol\":3286:3287  0 */\n      0x00\n        /* \"contracts/DAO_Project/dao.sol\":3177:3396  Proposal(nextProposalId,... */\n      dup2\n      mstore\n      0x20\n      add\n        /* \"contracts/DAO_Project/dao.sol\":3318:3326  voteTime */\n      sload(0x09)\n        /* \"contracts/DAO_Project/dao.sol\":3302:3317  block.timestamp */\n      timestamp\n        /* \"contracts/DAO_Project/dao.sol\":3302:3326  block.timestamp+voteTime */\n      tag_187\n      swap2\n      swap1\n      tag_149\n      jump\t// in\n    tag_187:\n        /* \"contracts/DAO_Project/dao.sol\":3177:3396  Proposal(nextProposalId,... */\n      dup2\n      mstore\n      0x20\n      add\n        /* \"contracts/DAO_Project/dao.sol\":3341:3346  false */\n      0x00\n        /* \"contracts/DAO_Project/dao.sol\":3177:3396  Proposal(nextProposalId,... */\n      iszero\n      iszero\n      dup2\n      mstore\n      0x20\n      add\n        /* \"contracts/DAO_Project/dao.sol\":3361:3366  false */\n      0x00\n        /* \"contracts/DAO_Project/dao.sol\":3177:3396  Proposal(nextProposalId,... */\n      iszero\n      iszero\n      dup2\n      mstore\n      0x20\n      add\n        /* \"contracts/DAO_Project/dao.sol\":3381:3386  false */\n      0x00\n        /* \"contracts/DAO_Project/dao.sol\":3177:3396  Proposal(nextProposalId,... */\n      iszero\n      iszero\n      dup2\n      mstore\n      pop\n        /* \"contracts/DAO_Project/dao.sol\":3149:3158  proposals */\n      0x04\n        /* \"contracts/DAO_Project/dao.sol\":3149:3174  proposals[nextProposalId] */\n      0x00\n        /* \"contracts/DAO_Project/dao.sol\":3159:3173  nextProposalId */\n      sload(0x08)\n        /* \"contracts/DAO_Project/dao.sol\":3149:3174  proposals[nextProposalId] */\n      dup2\n      mstore\n      0x20\n      add\n      swap1\n      dup2\n      mstore\n      0x20\n      add\n      0x00\n      keccak256\n        /* \"contracts/DAO_Project/dao.sol\":3149:3396  proposals[nextProposalId] = Proposal(nextProposalId,... */\n      0x00\n      dup3\n      add\n      mload\n      dup2\n      0x00\n      add\n      sstore\n      0x20\n      dup3\n      add\n      mload\n      dup2\n      0x01\n      add\n      swap1\n      dup2\n      tag_188\n      swap2\n      swap1\n      tag_189\n      jump\t// in\n    tag_188:\n      pop\n      0x40\n      dup3\n      add\n      mload\n      dup2\n      0x02\n      add\n      sstore\n      0x60\n      dup3\n      add\n      mload\n      dup2\n      0x03\n      add\n      exp(0x0100, 0x00)\n      dup2\n      sload\n      dup2\n      0xffffffffffffffffffffffffffffffffffffffff\n      mul\n      not\n      and\n      swap1\n      dup4\n      0xffffffffffffffffffffffffffffffffffffffff\n      and\n      mul\n      or\n      swap1\n      sstore\n      pop\n      0x80\n      dup3\n      add\n      mload\n      dup2\n      0x04\n      add\n      sstore\n      0xa0\n      dup3\n      add\n      mload\n      dup2\n      0x05\n      add\n      sstore\n      0xc0\n      dup3\n      add\n      mload\n      dup2\n      0x06\n      add\n      exp(0x0100, 0x00)\n      dup2\n      sload\n      dup2\n      0xff\n      mul\n      not\n      and\n      swap1\n      dup4\n      iszero\n      iszero\n      mul\n      or\n      swap1\n      sstore\n      pop\n      0xe0\n      dup3\n      add\n      mload\n      dup2\n      0x06\n      add\n      exp(0x0100, 0x01)\n      dup2\n      sload\n      dup2\n      0xff\n      mul\n      not\n      and\n      swap1\n      dup4\n      iszero\n      iszero\n      mul\n      or\n      swap1\n      sstore\n      pop\n      0x0100\n      dup3\n      add\n      mload\n      dup2\n      0x06\n      add\n      exp(0x0100, 0x02)\n      dup2\n      sload\n      dup2\n      0xff\n      mul\n      not\n      and\n      swap1\n      dup4\n      iszero\n      iszero\n      mul\n      or\n      swap1\n      sstore\n      pop\n      swap1\n      pop\n      pop\n        /* \"contracts/DAO_Project/dao.sol\":3407:3421  nextProposalId */\n      0x08\n      0x00\n        /* \"contracts/DAO_Project/dao.sol\":3407:3423  nextProposalId++ */\n      dup2\n      sload\n      dup1\n      swap3\n      swap2\n      swap1\n      tag_190\n      swap1\n      tag_191\n      jump\t// in\n    tag_190:\n      swap2\n      swap1\n      pop\n      sstore\n      pop\n        /* \"contracts/DAO_Project/dao.sol\":2974:3430  function createProposal(string calldata _description, uint _amount, address payable _recepient) public {... */\n      pop\n      pop\n      pop\n      pop\n      jump\t// out\n        /* \"contracts/DAO_Project/dao.sol\":4755:4997  function ProposalList() public view returns(Proposal[] memory){... */\n    tag_87:\n        /* \"contracts/DAO_Project/dao.sol\":4799:4816  Proposal[] memory */\n      0x60\n        /* \"contracts/DAO_Project/dao.sol\":4827:4848  Proposal[] memory arr */\n      0x00\n        /* \"contracts/DAO_Project/dao.sol\":4866:4880  nextProposalId */\n      sload(0x08)\n        /* \"contracts/DAO_Project/dao.sol\":4851:4881  new Proposal[](nextProposalId) */\n      0xffffffffffffffff\n      dup2\n      gt\n      iszero\n      tag_193\n      jumpi\n      tag_194\n      tag_195\n      jump\t// in\n    tag_194:\n    tag_193:\n      mload(0x40)\n      swap1\n      dup1\n      dup3\n      mstore\n      dup1\n      0x20\n      mul\n      0x20\n      add\n      dup3\n      add\n      0x40\n      mstore\n      dup1\n      iszero\n      tag_196\n      jumpi\n      dup2\n      0x20\n      add\n    tag_197:\n      tag_198\n      tag_199\n      jump\t// in\n    tag_198:\n      dup2\n      mstore\n      0x20\n      add\n      swap1\n      0x01\n      swap1\n      sub\n      swap1\n      dup2\n      tag_197\n      jumpi\n      swap1\n      pop\n    tag_196:\n      pop\n        /* \"contracts/DAO_Project/dao.sol\":4827:4881  Proposal[] memory arr = new Proposal[](nextProposalId) */\n      swap1\n      pop\n        /* \"contracts/DAO_Project/dao.sol\":4895:4901  uint i */\n      0x00\n        /* \"contracts/DAO_Project/dao.sol\":4891:4971  for(uint i=0; i<nextProposalId; i++){... */\n    tag_200:\n        /* \"contracts/DAO_Project/dao.sol\":4907:4921  nextProposalId */\n      sload(0x08)\n        /* \"contracts/DAO_Project/dao.sol\":4905:4906  i */\n      dup2\n        /* \"contracts/DAO_Project/dao.sol\":4905:4921  i<nextProposalId */\n      lt\n        /* \"contracts/DAO_Project/dao.sol\":4891:4971  for(uint i=0; i<nextProposalId; i++){... */\n      iszero\n      tag_201\n      jumpi\n        /* \"contracts/DAO_Project/dao.sol\":4948:4957  proposals */\n      0x04\n        /* \"contracts/DAO_Project/dao.sol\":4948:4960  proposals[i] */\n      0x00\n        /* \"contracts/DAO_Project/dao.sol\":4958:4959  i */\n      dup3\n        /* \"contracts/DAO_Project/dao.sol\":4948:4960  proposals[i] */\n      dup2\n      mstore\n      0x20\n      add\n      swap1\n      dup2\n      mstore\n      0x20\n      add\n      0x00\n      keccak256\n        /* \"contracts/DAO_Project/dao.sol\":4941:4960  arr[i]=proposals[i] */\n      mload(0x40)\n      dup1\n      0x0120\n      add\n      0x40\n      mstore\n      swap1\n      dup2\n      0x00\n      dup3\n      add\n      sload\n      dup2\n      mstore\n      0x20\n      add\n      0x01\n      dup3\n      add\n      dup1\n      sload\n      tag_203\n      swap1\n      tag_118\n      jump\t// in\n    tag_203:\n      dup1\n      0x1f\n      add\n      0x20\n      dup1\n      swap2\n      div\n      mul\n      0x20\n      add\n      mload(0x40)\n      swap1\n      dup2\n      add\n      0x40\n      mstore\n      dup1\n      swap3\n      swap2\n      swap1\n      dup2\n      dup2\n      mstore\n      0x20\n      add\n      dup3\n      dup1\n      sload\n      tag_204\n      swap1\n      tag_118\n      jump\t// in\n    tag_204:\n      dup1\n      iszero\n      tag_205\n      jumpi\n      dup1\n      0x1f\n      lt\n      tag_206\n      jumpi\n      0x0100\n      dup1\n      dup4\n      sload\n      div\n      mul\n      dup4\n      mstore\n      swap2\n      0x20\n      add\n      swap2\n      jump(tag_205)\n    tag_206:\n      dup3\n      add\n      swap2\n      swap1\n      0x00\n      mstore\n      keccak256(0x00, 0x20)\n      swap1\n    tag_207:\n      dup2\n      sload\n      dup2\n      mstore\n      swap1\n      0x01\n      add\n      swap1\n      0x20\n      add\n      dup1\n      dup4\n      gt\n      tag_207\n      jumpi\n      dup3\n      swap1\n      sub\n      0x1f\n      and\n      dup3\n      add\n      swap2\n    tag_205:\n      pop\n      pop\n      pop\n      pop\n      pop\n      dup2\n      mstore\n      0x20\n      add\n      0x02\n      dup3\n      add\n      sload\n      dup2\n      mstore\n      0x20\n      add\n      0x03\n      dup3\n      add\n      0x00\n      swap1\n      sload\n      swap1\n      0x0100\n      exp\n      swap1\n      div\n      0xffffffffffffffffffffffffffffffffffffffff\n      and\n      0xffffffffffffffffffffffffffffffffffffffff\n      and\n      0xffffffffffffffffffffffffffffffffffffffff\n      and\n      dup2\n      mstore\n      0x20\n      add\n      0x04\n      dup3\n      add\n      sload\n      dup2\n      mstore\n      0x20\n      add\n      0x05\n      dup3\n      add\n      sload\n      dup2\n      mstore\n      0x20\n      add\n      0x06\n      dup3\n      add\n      0x00\n      swap1\n      sload\n      swap1\n      0x0100\n      exp\n      swap1\n      div\n      0xff\n      and\n      iszero\n      iszero\n      iszero\n      iszero\n      dup2\n      mstore\n      0x20\n      add\n      0x06\n      dup3\n      add\n      0x01\n      swap1\n      sload\n      swap1\n      0x0100\n      exp\n      swap1\n      div\n      0xff\n      and\n      iszero\n      iszero\n      iszero\n      iszero\n      dup2\n      mstore\n      0x20\n      add\n      0x06\n      dup3\n      add\n      0x02\n      swap1\n      sload\n      swap1\n      0x0100\n      exp\n      swap1\n      div\n      0xff\n      and\n      iszero\n      iszero\n      iszero\n      iszero\n      dup2\n      mstore\n      pop\n      pop\n        /* \"contracts/DAO_Project/dao.sol\":4941:4944  arr */\n      dup3\n        /* \"contracts/DAO_Project/dao.sol\":4945:4946  i */\n      dup3\n        /* \"contracts/DAO_Project/dao.sol\":4941:4947  arr[i] */\n      dup2\n      mload\n      dup2\n      lt\n      tag_208\n      jumpi\n      tag_209\n      tag_210\n      jump\t// in\n    tag_209:\n    tag_208:\n      0x20\n      mul\n      0x20\n      add\n      add\n        /* \"contracts/DAO_Project/dao.sol\":4941:4960  arr[i]=proposals[i] */\n      dup2\n      swap1\n      mstore\n      pop\n        /* \"contracts/DAO_Project/dao.sol\":4923:4926  i++ */\n      dup1\n      dup1\n      tag_211\n      swap1\n      tag_191\n      jump\t// in\n    tag_211:\n      swap2\n      pop\n      pop\n        /* \"contracts/DAO_Project/dao.sol\":4891:4971  for(uint i=0; i<nextProposalId; i++){... */\n      jump(tag_200)\n    tag_201:\n      pop\n        /* \"contracts/DAO_Project/dao.sol\":4987:4990  arr */\n      dup1\n        /* \"contracts/DAO_Project/dao.sol\":4980:4990  return arr */\n      swap2\n      pop\n      pop\n        /* \"contracts/DAO_Project/dao.sol\":4755:4997  function ProposalList() public view returns(Proposal[] memory){... */\n      swap1\n      jump\t// out\n        /* \"contracts/DAO_Project/dao.sol\":3436:4117  function voteProposal(uint _proposalId) public onlyInvestor(){... */\n    tag_93:\n        /* \"contracts/DAO_Project/dao.sol\":1534:1538  true */\n      0x01\n        /* \"contracts/DAO_Project/dao.sol\":1510:1538  isInvestor[msg.sender]==true */\n      iszero\n      iszero\n        /* \"contracts/DAO_Project/dao.sol\":1510:1520  isInvestor */\n      0x00\n        /* \"contracts/DAO_Project/dao.sol\":1510:1532  isInvestor[msg.sender] */\n      dup1\n        /* \"contracts/DAO_Project/dao.sol\":1521:1531  msg.sender */\n      caller\n        /* \"contracts/DAO_Project/dao.sol\":1510:1532  isInvestor[msg.sender] */\n      0xffffffffffffffffffffffffffffffffffffffff\n      and\n      0xffffffffffffffffffffffffffffffffffffffff\n      and\n      dup2\n      mstore\n      0x20\n      add\n      swap1\n      dup2\n      mstore\n      0x20\n      add\n      0x00\n      keccak256\n      0x00\n      swap1\n      sload\n      swap1\n      0x0100\n      exp\n      swap1\n      div\n      0xff\n      and\n        /* \"contracts/DAO_Project/dao.sol\":1510:1538  isInvestor[msg.sender]==true */\n      iszero\n      iszero\n      eq\n        /* \"contracts/DAO_Project/dao.sol\":1502:1565  require(isInvestor[msg.sender]==true,\"You are not an investor\") */\n      tag_213\n      jumpi\n      mload(0x40)\n      0x08c379a000000000000000000000000000000000000000000000000000000000\n      dup2\n      mstore\n      0x04\n      add\n      tag_214\n      swap1\n      tag_126\n      jump\t// in\n    tag_214:\n      mload(0x40)\n      dup1\n      swap2\n      sub\n      swap1\n      revert\n    tag_213:\n        /* \"contracts/DAO_Project/dao.sol\":3507:3532  Proposal storage proposal */\n      0x00\n        /* \"contracts/DAO_Project/dao.sol\":3535:3544  proposals */\n      0x04\n        /* \"contracts/DAO_Project/dao.sol\":3535:3557  proposals[_proposalId] */\n      0x00\n        /* \"contracts/DAO_Project/dao.sol\":3545:3556  _proposalId */\n      dup4\n        /* \"contracts/DAO_Project/dao.sol\":3535:3557  proposals[_proposalId] */\n      dup2\n      mstore\n      0x20\n      add\n      swap1\n      dup2\n      mstore\n      0x20\n      add\n      0x00\n      keccak256\n        /* \"contracts/DAO_Project/dao.sol\":3507:3557  Proposal storage proposal = proposals[_proposalId] */\n      swap1\n      pop\n        /* \"contracts/DAO_Project/dao.sol\":3680:3685  false */\n      0x00\n        /* \"contracts/DAO_Project/dao.sol\":3646:3685  isVoted[msg.sender][_proposalId]==false */\n      iszero\n      iszero\n        /* \"contracts/DAO_Project/dao.sol\":3646:3653  isVoted */\n      0x02\n        /* \"contracts/DAO_Project/dao.sol\":3646:3665  isVoted[msg.sender] */\n      0x00\n        /* \"contracts/DAO_Project/dao.sol\":3654:3664  msg.sender */\n      caller\n        /* \"contracts/DAO_Project/dao.sol\":3646:3665  isVoted[msg.sender] */\n      0xffffffffffffffffffffffffffffffffffffffff\n      and\n      0xffffffffffffffffffffffffffffffffffffffff\n      and\n      dup2\n      mstore\n      0x20\n      add\n      swap1\n      dup2\n      mstore\n      0x20\n      add\n      0x00\n      keccak256\n        /* \"contracts/DAO_Project/dao.sol\":3646:3678  isVoted[msg.sender][_proposalId] */\n      0x00\n        /* \"contracts/DAO_Project/dao.sol\":3666:3677  _proposalId */\n      dup5\n        /* \"contracts/DAO_Project/dao.sol\":3646:3678  isVoted[msg.sender][_proposalId] */\n      dup2\n      mstore\n      0x20\n      add\n      swap1\n      dup2\n      mstore\n      0x20\n      add\n      0x00\n      keccak256\n      0x00\n      swap1\n      sload\n      swap1\n      0x0100\n      exp\n      swap1\n      div\n      0xff\n      and\n        /* \"contracts/DAO_Project/dao.sol\":3646:3685  isVoted[msg.sender][_proposalId]==false */\n      iszero\n      iszero\n      eq\n        /* \"contracts/DAO_Project/dao.sol\":3638:3729  require(isVoted[msg.sender][_proposalId]==false,\"You have already voted for this proposal\") */\n      tag_216\n      jumpi\n      mload(0x40)\n      0x08c379a000000000000000000000000000000000000000000000000000000000\n      dup2\n      mstore\n      0x04\n      add\n      tag_217\n      swap1\n      tag_218\n      jump\t// in\n    tag_217:\n      mload(0x40)\n      dup1\n      swap2\n      sub\n      swap1\n      revert\n    tag_216:\n        /* \"contracts/DAO_Project/dao.sol\":3828:3843  block.timestamp */\n      timestamp\n        /* \"contracts/DAO_Project/dao.sol\":3814:3822  proposal */\n      dup2\n        /* \"contracts/DAO_Project/dao.sol\":3814:3826  proposal.end */\n      0x05\n      add\n      sload\n        /* \"contracts/DAO_Project/dao.sol\":3814:3843  proposal.end>=block.timestamp */\n      lt\n      iszero\n        /* \"contracts/DAO_Project/dao.sol\":3806:3864  require(proposal.end>=block.timestamp,\"Voting Time Ended\") */\n      tag_219\n      jumpi\n      mload(0x40)\n      0x08c379a000000000000000000000000000000000000000000000000000000000\n      dup2\n      mstore\n      0x04\n      add\n      tag_220\n      swap1\n      tag_221\n      jump\t// in\n    tag_220:\n      mload(0x40)\n      dup1\n      swap2\n      sub\n      swap1\n      revert\n    tag_219:\n        /* \"contracts/DAO_Project/dao.sol\":3903:3908  false */\n      0x00\n        /* \"contracts/DAO_Project/dao.sol\":3882:3908  proposal.isExecuted==false */\n      iszero\n      iszero\n        /* \"contracts/DAO_Project/dao.sol\":3882:3890  proposal */\n      dup2\n        /* \"contracts/DAO_Project/dao.sol\":3882:3901  proposal.isExecuted */\n      0x06\n      add\n      0x00\n      swap1\n      sload\n      swap1\n      0x0100\n      exp\n      swap1\n      div\n      0xff\n      and\n        /* \"contracts/DAO_Project/dao.sol\":3882:3908  proposal.isExecuted==false */\n      iszero\n      iszero\n      eq\n        /* \"contracts/DAO_Project/dao.sol\":3874:3934  require(proposal.isExecuted==false,\"It is already Executed\") */\n      tag_222\n      jumpi\n      mload(0x40)\n      0x08c379a000000000000000000000000000000000000000000000000000000000\n      dup2\n      mstore\n      0x04\n      add\n      tag_223\n      swap1\n      tag_224\n      jump\t// in\n    tag_223:\n      mload(0x40)\n      dup1\n      swap2\n      sub\n      swap1\n      revert\n    tag_222:\n        /* \"contracts/DAO_Project/dao.sol\":3973:3978  false */\n      0x00\n        /* \"contracts/DAO_Project/dao.sol\":3952:3978  proposal.canceled == false */\n      iszero\n      iszero\n        /* \"contracts/DAO_Project/dao.sol\":3952:3960  proposal */\n      dup2\n        /* \"contracts/DAO_Project/dao.sol\":3952:3969  proposal.canceled */\n      0x06\n      add\n      0x02\n      swap1\n      sload\n      swap1\n      0x0100\n      exp\n      swap1\n      div\n      0xff\n      and\n        /* \"contracts/DAO_Project/dao.sol\":3952:3978  proposal.canceled == false */\n      iszero\n      iszero\n      eq\n        /* \"contracts/DAO_Project/dao.sol\":3944:4012  require(proposal.canceled == false,\"The proposal has been canceled\") */\n      tag_225\n      jumpi\n      mload(0x40)\n      0x08c379a000000000000000000000000000000000000000000000000000000000\n      dup2\n      mstore\n      0x04\n      add\n      tag_226\n      swap1\n      tag_166\n      jump\t// in\n    tag_226:\n      mload(0x40)\n      dup1\n      swap2\n      sub\n      swap1\n      revert\n    tag_225:\n        /* \"contracts/DAO_Project/dao.sol\":4057:4061  true */\n      0x01\n        /* \"contracts/DAO_Project/dao.sol\":4023:4030  isVoted */\n      0x02\n        /* \"contracts/DAO_Project/dao.sol\":4023:4042  isVoted[msg.sender] */\n      0x00\n        /* \"contracts/DAO_Project/dao.sol\":4031:4041  msg.sender */\n      caller\n        /* \"contracts/DAO_Project/dao.sol\":4023:4042  isVoted[msg.sender] */\n      0xffffffffffffffffffffffffffffffffffffffff\n      and\n      0xffffffffffffffffffffffffffffffffffffffff\n      and\n      dup2\n      mstore\n      0x20\n      add\n      swap1\n      dup2\n      mstore\n      0x20\n      add\n      0x00\n      keccak256\n        /* \"contracts/DAO_Project/dao.sol\":4023:4055  isVoted[msg.sender][_proposalId] */\n      0x00\n        /* \"contracts/DAO_Project/dao.sol\":4043:4054  _proposalId */\n      dup5\n        /* \"contracts/DAO_Project/dao.sol\":4023:4055  isVoted[msg.sender][_proposalId] */\n      dup2\n      mstore\n      0x20\n      add\n      swap1\n      dup2\n      mstore\n      0x20\n      add\n      0x00\n      keccak256\n      0x00\n        /* \"contracts/DAO_Project/dao.sol\":4023:4061  isVoted[msg.sender][_proposalId]= true */\n      0x0100\n      exp\n      dup2\n      sload\n      dup2\n      0xff\n      mul\n      not\n      and\n      swap1\n      dup4\n      iszero\n      iszero\n      mul\n      or\n      swap1\n      sstore\n      pop\n        /* \"contracts/DAO_Project/dao.sol\":4087:4098  numOfShares */\n      0x01\n        /* \"contracts/DAO_Project/dao.sol\":4087:4110  numOfShares[msg.sender] */\n      0x00\n        /* \"contracts/DAO_Project/dao.sol\":4099:4109  msg.sender */\n      caller\n        /* \"contracts/DAO_Project/dao.sol\":4087:4110  numOfShares[msg.sender] */\n      0xffffffffffffffffffffffffffffffffffffffff\n      and\n      0xffffffffffffffffffffffffffffffffffffffff\n      and\n      dup2\n      mstore\n      0x20\n      add\n      swap1\n      dup2\n      mstore\n      0x20\n      add\n      0x00\n      keccak256\n      sload\n        /* \"contracts/DAO_Project/dao.sol\":4071:4079  proposal */\n      dup2\n        /* \"contracts/DAO_Project/dao.sol\":4071:4085  proposal.votes */\n      0x04\n      add\n      0x00\n        /* \"contracts/DAO_Project/dao.sol\":4071:4110  proposal.votes+=numOfShares[msg.sender] */\n      dup3\n      dup3\n      sload\n      tag_227\n      swap2\n      swap1\n      tag_149\n      jump\t// in\n    tag_227:\n      swap3\n      pop\n      pop\n      dup2\n      swap1\n      sstore\n      pop\n        /* \"contracts/DAO_Project/dao.sol\":3497:4117  {... */\n      pop\n        /* \"contracts/DAO_Project/dao.sol\":3436:4117  function voteProposal(uint _proposalId) public onlyInvestor(){... */\n      pop\n      jump\t// out\n        /* \"contracts/DAO_Project/dao.sol\":5263:5507  function CancelProposal(uint _proposalId) external onlyManager(){... */\n    tag_97:\n        /* \"contracts/DAO_Project/dao.sol\":1638:1648  msg.sender */\n      caller\n        /* \"contracts/DAO_Project/dao.sol\":1629:1648  manager==msg.sender */\n      0xffffffffffffffffffffffffffffffffffffffff\n      and\n        /* \"contracts/DAO_Project/dao.sol\":1629:1636  manager */\n      0x0b\n      0x00\n      swap1\n      sload\n      swap1\n      0x0100\n      exp\n      swap1\n      div\n      0xffffffffffffffffffffffffffffffffffffffff\n      and\n        /* \"contracts/DAO_Project/dao.sol\":1629:1648  manager==msg.sender */\n      0xffffffffffffffffffffffffffffffffffffffff\n      and\n      eq\n        /* \"contracts/DAO_Project/dao.sol\":1621:1671  require(manager==msg.sender,\"You are not manager\") */\n      tag_229\n      jumpi\n      mload(0x40)\n      0x08c379a000000000000000000000000000000000000000000000000000000000\n      dup2\n      mstore\n      0x04\n      add\n      tag_230\n      swap1\n      tag_154\n      jump\t// in\n    tag_230:\n      mload(0x40)\n      dup1\n      swap2\n      sub\n      swap1\n      revert\n    tag_229:\n        /* \"contracts/DAO_Project/dao.sol\":5337:5362  Proposal storage proposal */\n      0x00\n        /* \"contracts/DAO_Project/dao.sol\":5364:5373  proposals */\n      0x04\n        /* \"contracts/DAO_Project/dao.sol\":5364:5386  proposals[_proposalId] */\n      0x00\n        /* \"contracts/DAO_Project/dao.sol\":5374:5385  _proposalId */\n      dup4\n        /* \"contracts/DAO_Project/dao.sol\":5364:5386  proposals[_proposalId] */\n      dup2\n      mstore\n      0x20\n      add\n      swap1\n      dup2\n      mstore\n      0x20\n      add\n      0x00\n      keccak256\n        /* \"contracts/DAO_Project/dao.sol\":5337:5386  Proposal storage proposal= proposals[_proposalId] */\n      swap1\n      pop\n        /* \"contracts/DAO_Project/dao.sol\":5418:5433  block.timestamp */\n      timestamp\n        /* \"contracts/DAO_Project/dao.sol\":5405:5413  proposal */\n      dup2\n        /* \"contracts/DAO_Project/dao.sol\":5405:5417  proposal.end */\n      0x05\n      add\n      sload\n        /* \"contracts/DAO_Project/dao.sol\":5405:5433  proposal.end>block.timestamp */\n      gt\n        /* \"contracts/DAO_Project/dao.sol\":5396:5466  require((proposal.end>block.timestamp),\"Cancalation time has expired\") */\n      tag_232\n      jumpi\n      mload(0x40)\n      0x08c379a000000000000000000000000000000000000000000000000000000000\n      dup2\n      mstore\n      0x04\n      add\n      tag_233\n      swap1\n      tag_234\n      jump\t// in\n    tag_233:\n      mload(0x40)\n      dup1\n      swap2\n      sub\n      swap1\n      revert\n    tag_232:\n        /* \"contracts/DAO_Project/dao.sol\":5496:5500  true */\n      0x01\n        /* \"contracts/DAO_Project/dao.sol\":5476:5484  proposal */\n      dup2\n        /* \"contracts/DAO_Project/dao.sol\":5476:5493  proposal.canceled */\n      0x06\n      add\n      0x02\n        /* \"contracts/DAO_Project/dao.sol\":5476:5500  proposal.canceled = true */\n      0x0100\n      exp\n      dup2\n      sload\n      dup2\n      0xff\n      mul\n      not\n      and\n      swap1\n      dup4\n      iszero\n      iszero\n      mul\n      or\n      swap1\n      sstore\n      pop\n        /* \"contracts/DAO_Project/dao.sol\":5327:5507  {... */\n      pop\n        /* \"contracts/DAO_Project/dao.sol\":5263:5507  function CancelProposal(uint _proposalId) external onlyManager(){... */\n      pop\n      jump\t// out\n        /* \"contracts/DAO_Project/dao.sol\":623:675  mapping(address=>mapping(uint=>bool)) public isVoted */\n    tag_102:\n      mstore(0x20, 0x02)\n      dup2\n      0x00\n      mstore\n      mstore(0x20, keccak256(0x00, 0x40))\n      dup1\n      0x00\n      mstore\n      keccak256(0x00, 0x40)\n      0x00\n      swap2\n      pop\n      swap2\n      pop\n      swap1\n      sload\n      swap1\n      0x0100\n      exp\n      swap1\n      div\n      0xff\n      and\n      dup2\n      jump\t// out\n        /* \"contracts/DAO_Project/dao.sol\":896:927  uint public contributionTimeEnd */\n    tag_107:\n      sload(0x07)\n      dup2\n      jump\t// out\n        /* \"contracts/DAO_Project/dao.sol\":965:985  uint public voteTime */\n    tag_111:\n      sload(0x09)\n      dup2\n      jump\t// out\n        /* \"contracts/DAO_Project/dao.sol\":2076:2501  function reedemShare(uint _amount) public onlyInvestor(){... */\n    tag_116:\n        /* \"contracts/DAO_Project/dao.sol\":1534:1538  true */\n      0x01\n        /* \"contracts/DAO_Project/dao.sol\":1510:1538  isInvestor[msg.sender]==true */\n      iszero\n      iszero\n        /* \"contracts/DAO_Project/dao.sol\":1510:1520  isInvestor */\n      0x00\n        /* \"contracts/DAO_Project/dao.sol\":1510:1532  isInvestor[msg.sender] */\n      dup1\n        /* \"contracts/DAO_Project/dao.sol\":1521:1531  msg.sender */\n      caller\n        /* \"contracts/DAO_Project/dao.sol\":1510:1532  isInvestor[msg.sender] */\n      0xffffffffffffffffffffffffffffffffffffffff\n      and\n      0xffffffffffffffffffffffffffffffffffffffff\n      and\n      dup2\n      mstore\n      0x20\n      add\n      swap1\n      dup2\n      mstore\n      0x20\n      add\n      0x00\n      keccak256\n      0x00\n      swap1\n      sload\n      swap1\n      0x0100\n      exp\n      swap1\n      div\n      0xff\n      and\n        /* \"contracts/DAO_Project/dao.sol\":1510:1538  isInvestor[msg.sender]==true */\n      iszero\n      iszero\n      eq\n        /* \"contracts/DAO_Project/dao.sol\":1502:1565  require(isInvestor[msg.sender]==true,\"You are not an investor\") */\n      tag_236\n      jumpi\n      mload(0x40)\n      0x08c379a000000000000000000000000000000000000000000000000000000000\n      dup2\n      mstore\n      0x04\n      add\n      tag_237\n      swap1\n      tag_126\n      jump\t// in\n    tag_237:\n      mload(0x40)\n      dup1\n      swap2\n      sub\n      swap1\n      revert\n    tag_236:\n        /* \"contracts/DAO_Project/dao.sol\":2175:2182  _amount */\n      dup1\n        /* \"contracts/DAO_Project/dao.sol\":2150:2161  numOfShares */\n      0x01\n        /* \"contracts/DAO_Project/dao.sol\":2150:2173  numOfShares[msg.sender] */\n      0x00\n        /* \"contracts/DAO_Project/dao.sol\":2162:2172  msg.sender */\n      caller\n        /* \"contracts/DAO_Project/dao.sol\":2150:2173  numOfShares[msg.sender] */\n      0xffffffffffffffffffffffffffffffffffffffff\n      and\n      0xffffffffffffffffffffffffffffffffffffffff\n      and\n      dup2\n      mstore\n      0x20\n      add\n      swap1\n      dup2\n      mstore\n      0x20\n      add\n      0x00\n      keccak256\n      sload\n        /* \"contracts/DAO_Project/dao.sol\":2150:2182  numOfShares[msg.sender]>=_amount */\n      lt\n      iszero\n        /* \"contracts/DAO_Project/dao.sol\":2142:2216  require(numOfShares[msg.sender]>=_amount,\"You don't have tihs much share\") */\n      tag_239\n      jumpi\n      mload(0x40)\n      0x08c379a000000000000000000000000000000000000000000000000000000000\n      dup2\n      mstore\n      0x04\n      add\n      tag_240\n      swap1\n      tag_141\n      jump\t// in\n    tag_240:\n      mload(0x40)\n      dup1\n      swap2\n      sub\n      swap1\n      revert\n    tag_239:\n        /* \"contracts/DAO_Project/dao.sol\":2250:2257  _amount */\n      dup1\n        /* \"contracts/DAO_Project/dao.sol\":2234:2248  availableFunds */\n      sload(0x06)\n        /* \"contracts/DAO_Project/dao.sol\":2234:2257  availableFunds>=_amount */\n      lt\n      iszero\n        /* \"contracts/DAO_Project/dao.sol\":2226:2279  require(availableFunds>=_amount,\"Insufficient Funds\") */\n      tag_241\n      jumpi\n      mload(0x40)\n      0x08c379a000000000000000000000000000000000000000000000000000000000\n      dup2\n      mstore\n      0x04\n      add\n      tag_242\n      swap1\n      tag_144\n      jump\t// in\n    tag_242:\n      mload(0x40)\n      dup1\n      swap2\n      sub\n      swap1\n      revert\n    tag_241:\n        /* \"contracts/DAO_Project/dao.sol\":2315:2322  _amount */\n      dup1\n        /* \"contracts/DAO_Project/dao.sol\":2290:2301  numOfShares */\n      0x01\n        /* \"contracts/DAO_Project/dao.sol\":2290:2313  numOfShares[msg.sender] */\n      0x00\n        /* \"contracts/DAO_Project/dao.sol\":2302:2312  msg.sender */\n      caller\n        /* \"contracts/DAO_Project/dao.sol\":2290:2313  numOfShares[msg.sender] */\n      0xffffffffffffffffffffffffffffffffffffffff\n      and\n      0xffffffffffffffffffffffffffffffffffffffff\n      and\n      dup2\n      mstore\n      0x20\n      add\n      swap1\n      dup2\n      mstore\n      0x20\n      add\n      0x00\n      keccak256\n      0x00\n        /* \"contracts/DAO_Project/dao.sol\":2290:2322  numOfShares[msg.sender]-=_amount */\n      dup3\n      dup3\n      sload\n      tag_243\n      swap2\n      swap1\n      tag_146\n      jump\t// in\n    tag_243:\n      swap3\n      pop\n      pop\n      dup2\n      swap1\n      sstore\n      pop\n        /* \"contracts/DAO_Project/dao.sol\":2360:2361  0 */\n      0x00\n        /* \"contracts/DAO_Project/dao.sol\":2335:2346  numOfShares */\n      0x01\n        /* \"contracts/DAO_Project/dao.sol\":2335:2358  numOfShares[msg.sender] */\n      0x00\n        /* \"contracts/DAO_Project/dao.sol\":2347:2357  msg.sender */\n      caller\n        /* \"contracts/DAO_Project/dao.sol\":2335:2358  numOfShares[msg.sender] */\n      0xffffffffffffffffffffffffffffffffffffffff\n      and\n      0xffffffffffffffffffffffffffffffffffffffff\n      and\n      dup2\n      mstore\n      0x20\n      add\n      swap1\n      dup2\n      mstore\n      0x20\n      add\n      0x00\n      keccak256\n      sload\n        /* \"contracts/DAO_Project/dao.sol\":2335:2361  numOfShares[msg.sender]==0 */\n      sub\n        /* \"contracts/DAO_Project/dao.sol\":2332:2415  if(numOfShares[msg.sender]==0){... */\n      tag_244\n      jumpi\n        /* \"contracts/DAO_Project/dao.sol\":2399:2404  false */\n      0x00\n        /* \"contracts/DAO_Project/dao.sol\":2376:2386  isInvestor */\n      dup1\n        /* \"contracts/DAO_Project/dao.sol\":2376:2398  isInvestor[msg.sender] */\n      0x00\n        /* \"contracts/DAO_Project/dao.sol\":2387:2397  msg.sender */\n      caller\n        /* \"contracts/DAO_Project/dao.sol\":2376:2398  isInvestor[msg.sender] */\n      0xffffffffffffffffffffffffffffffffffffffff\n      and\n      0xffffffffffffffffffffffffffffffffffffffff\n      and\n      dup2\n      mstore\n      0x20\n      add\n      swap1\n      dup2\n      mstore\n      0x20\n      add\n      0x00\n      keccak256\n      0x00\n        /* \"contracts/DAO_Project/dao.sol\":2376:2404  isInvestor[msg.sender]=false */\n      0x0100\n      exp\n      dup2\n      sload\n      dup2\n      0xff\n      mul\n      not\n      and\n      swap1\n      dup4\n      iszero\n      iszero\n      mul\n      or\n      swap1\n      sstore\n      pop\n        /* \"contracts/DAO_Project/dao.sol\":2332:2415  if(numOfShares[msg.sender]==0){... */\n    tag_244:\n        /* \"contracts/DAO_Project/dao.sol\":2440:2447  _amount */\n      dup1\n        /* \"contracts/DAO_Project/dao.sol\":2424:2438  availableFunds */\n      0x06\n      0x00\n        /* \"contracts/DAO_Project/dao.sol\":2424:2447  availableFunds-=_amount */\n      dup3\n      dup3\n      sload\n      tag_245\n      swap2\n      swap1\n      tag_146\n      jump\t// in\n    tag_245:\n      swap3\n      pop\n      pop\n      dup2\n      swap1\n      sstore\n      pop\n        /* \"contracts/DAO_Project/dao.sol\":2465:2475  msg.sender */\n      caller\n        /* \"contracts/DAO_Project/dao.sol\":2457:2485  payable(msg.sender).transfer */\n      0xffffffffffffffffffffffffffffffffffffffff\n      and\n        /* \"contracts/DAO_Project/dao.sol\":2457:2494  payable(msg.sender).transfer(_amount) */\n      0x08fc\n        /* \"contracts/DAO_Project/dao.sol\":2486:2493  _amount */\n      dup3\n        /* \"contracts/DAO_Project/dao.sol\":2457:2494  payable(msg.sender).transfer(_amount) */\n      swap1\n      dup2\n      iszero\n      mul\n      swap1\n      mload(0x40)\n      0x00\n      mload(0x40)\n      dup1\n      dup4\n      sub\n      dup2\n      dup6\n      dup9\n      dup9\n      call\n      swap4\n      pop\n      pop\n      pop\n      pop\n      iszero\n      dup1\n      iszero\n      tag_247\n      jumpi\n      returndatasize\n      0x00\n      dup1\n      returndatacopy\n      revert(0x00, returndatasize)\n    tag_247:\n      pop\n        /* \"contracts/DAO_Project/dao.sol\":2076:2501  function reedemShare(uint _amount) public onlyInvestor(){... */\n      pop\n      jump\t// out\n        /* \"contracts/DAO_Project/dao.sol\":4636:4749  function _transfer(uint _amount, address payable _recepient) private{... */\n    tag_169:\n        /* \"contracts/DAO_Project/dao.sol\":4714:4724  _recepient */\n      dup1\n        /* \"contracts/DAO_Project/dao.sol\":4714:4733  _recepient.transfer */\n      0xffffffffffffffffffffffffffffffffffffffff\n      and\n        /* \"contracts/DAO_Project/dao.sol\":4714:4742  _recepient.transfer(_amount) */\n      0x08fc\n        /* \"contracts/DAO_Project/dao.sol\":4734:4741  _amount */\n      dup4\n        /* \"contracts/DAO_Project/dao.sol\":4714:4742  _recepient.transfer(_amount) */\n      swap1\n      dup2\n      iszero\n      mul\n      swap1\n      mload(0x40)\n      0x00\n      mload(0x40)\n      dup1\n      dup4\n      sub\n      dup2\n      dup6\n      dup9\n      dup9\n      call\n      swap4\n      pop\n      pop\n      pop\n      pop\n      iszero\n      dup1\n      iszero\n      tag_250\n      jumpi\n      returndatasize\n      0x00\n      dup1\n      returndatacopy\n      revert(0x00, returndatasize)\n    tag_250:\n      pop\n        /* \"contracts/DAO_Project/dao.sol\":4636:4749  function _transfer(uint _amount, address payable _recepient) private{... */\n      pop\n      pop\n      jump\t// out\n    tag_199:\n      mload(0x40)\n      dup1\n      0x0120\n      add\n      0x40\n      mstore\n      dup1\n      0x00\n      dup2\n      mstore\n      0x20\n      add\n      0x60\n      dup2\n      mstore\n      0x20\n      add\n      0x00\n      dup2\n      mstore\n      0x20\n      add\n      and(0xffffffffffffffffffffffffffffffffffffffff, 0x00)\n      dup2\n      mstore\n      0x20\n      add\n      0x00\n      dup2\n      mstore\n      0x20\n      add\n      0x00\n      dup2\n      mstore\n      0x20\n      add\n      iszero(iszero(0x00))\n      dup2\n      mstore\n      0x20\n      add\n      iszero(iszero(0x00))\n      dup2\n      mstore\n      0x20\n      add\n      iszero(iszero(0x00))\n      dup2\n      mstore\n      pop\n      swap1\n      jump\t// out\n        /* \"#utility.yul\":88:205   */\n    tag_252:\n        /* \"#utility.yul\":197:198   */\n      0x00\n        /* \"#utility.yul\":194:195   */\n      dup1\n        /* \"#utility.yul\":187:199   */\n      revert\n        /* \"#utility.yul\":211:328   */\n    tag_253:\n        /* \"#utility.yul\":320:321   */\n      0x00\n        /* \"#utility.yul\":317:318   */\n      dup1\n        /* \"#utility.yul\":310:322   */\n      revert\n        /* \"#utility.yul\":334:411   */\n    tag_254:\n        /* \"#utility.yul\":371:378   */\n      0x00\n        /* \"#utility.yul\":400:405   */\n      dup2\n        /* \"#utility.yul\":389:405   */\n      swap1\n      pop\n        /* \"#utility.yul\":334:411   */\n      swap2\n      swap1\n      pop\n      jump\t// out\n        /* \"#utility.yul\":417:539   */\n    tag_255:\n        /* \"#utility.yul\":490:514   */\n      tag_344\n        /* \"#utility.yul\":508:513   */\n      dup2\n        /* \"#utility.yul\":490:514   */\n      tag_254\n      jump\t// in\n    tag_344:\n        /* \"#utility.yul\":483:488   */\n      dup2\n        /* \"#utility.yul\":480:515   */\n      eq\n        /* \"#utility.yul\":470:533   */\n      tag_345\n      jumpi\n        /* \"#utility.yul\":529:530   */\n      0x00\n        /* \"#utility.yul\":526:527   */\n      dup1\n        /* \"#utility.yul\":519:531   */\n      revert\n        /* \"#utility.yul\":470:533   */\n    tag_345:\n        /* \"#utility.yul\":417:539   */\n      pop\n      jump\t// out\n        /* \"#utility.yul\":545:684   */\n    tag_256:\n        /* \"#utility.yul\":591:596   */\n      0x00\n        /* \"#utility.yul\":629:635   */\n      dup2\n        /* \"#utility.yul\":616:636   */\n      calldataload\n        /* \"#utility.yul\":607:636   */\n      swap1\n      pop\n        /* \"#utility.yul\":645:678   */\n      tag_347\n        /* \"#utility.yul\":672:677   */\n      dup2\n        /* \"#utility.yul\":645:678   */\n      tag_255\n      jump\t// in\n    tag_347:\n        /* \"#utility.yul\":545:684   */\n      swap3\n      swap2\n      pop\n      pop\n      jump\t// out\n        /* \"#utility.yul\":690:1019   */\n    tag_28:\n        /* \"#utility.yul\":749:755   */\n      0x00\n        /* \"#utility.yul\":798:800   */\n      0x20\n        /* \"#utility.yul\":786:795   */\n      dup3\n        /* \"#utility.yul\":777:784   */\n      dup5\n        /* \"#utility.yul\":773:796   */\n      sub\n        /* \"#utility.yul\":769:801   */\n      slt\n        /* \"#utility.yul\":766:885   */\n      iszero\n      tag_349\n      jumpi\n        /* \"#utility.yul\":804:883   */\n      tag_350\n      tag_252\n      jump\t// in\n    tag_350:\n        /* \"#utility.yul\":766:885   */\n    tag_349:\n        /* \"#utility.yul\":924:925   */\n      0x00\n        /* \"#utility.yul\":949:1002   */\n      tag_351\n        /* \"#utility.yul\":994:1001   */\n      dup5\n        /* \"#utility.yul\":985:991   */\n      dup3\n        /* \"#utility.yul\":974:983   */\n      dup6\n        /* \"#utility.yul\":970:992   */\n      add\n        /* \"#utility.yul\":949:1002   */\n      tag_256\n      jump\t// in\n    tag_351:\n        /* \"#utility.yul\":939:1002   */\n      swap2\n      pop\n        /* \"#utility.yul\":895:1012   */\n      pop\n        /* \"#utility.yul\":690:1019   */\n      swap3\n      swap2\n      pop\n      pop\n      jump\t// out\n        /* \"#utility.yul\":1025:1143   */\n    tag_257:\n        /* \"#utility.yul\":1112:1136   */\n      tag_353\n        /* \"#utility.yul\":1130:1135   */\n      dup2\n        /* \"#utility.yul\":1112:1136   */\n      tag_254\n      jump\t// in\n    tag_353:\n        /* \"#utility.yul\":1107:1110   */\n      dup3\n        /* \"#utility.yul\":1100:1137   */\n      mstore\n        /* \"#utility.yul\":1025:1143   */\n      pop\n      pop\n      jump\t// out\n        /* \"#utility.yul\":1149:1248   */\n    tag_258:\n        /* \"#utility.yul\":1201:1207   */\n      0x00\n        /* \"#utility.yul\":1235:1240   */\n      dup2\n        /* \"#utility.yul\":1229:1241   */\n      mload\n        /* \"#utility.yul\":1219:1241   */\n      swap1\n      pop\n        /* \"#utility.yul\":1149:1248   */\n      swap2\n      swap1\n      pop\n      jump\t// out\n        /* \"#utility.yul\":1254:1423   */\n    tag_259:\n        /* \"#utility.yul\":1338:1349   */\n      0x00\n        /* \"#utility.yul\":1372:1378   */\n      dup3\n        /* \"#utility.yul\":1367:1370   */\n      dup3\n        /* \"#utility.yul\":1360:1379   */\n      mstore\n        /* \"#utility.yul\":1412:1416   */\n      0x20\n        /* \"#utility.yul\":1407:1410   */\n      dup3\n        /* \"#utility.yul\":1403:1417   */\n      add\n        /* \"#utility.yul\":1388:1417   */\n      swap1\n      pop\n        /* \"#utility.yul\":1254:1423   */\n      swap3\n      swap2\n      pop\n      pop\n      jump\t// out\n        /* \"#utility.yul\":1429:1675   */\n    tag_260:\n        /* \"#utility.yul\":1510:1511   */\n      0x00\n        /* \"#utility.yul\":1520:1633   */\n    tag_357:\n        /* \"#utility.yul\":1534:1540   */\n      dup4\n        /* \"#utility.yul\":1531:1532   */\n      dup2\n        /* \"#utility.yul\":1528:1541   */\n      lt\n        /* \"#utility.yul\":1520:1633   */\n      iszero\n      tag_359\n      jumpi\n        /* \"#utility.yul\":1619:1620   */\n      dup1\n        /* \"#utility.yul\":1614:1617   */\n      dup3\n        /* \"#utility.yul\":1610:1621   */\n      add\n        /* \"#utility.yul\":1604:1622   */\n      mload\n        /* \"#utility.yul\":1600:1601   */\n      dup2\n        /* \"#utility.yul\":1595:1598   */\n      dup5\n        /* \"#utility.yul\":1591:1602   */\n      add\n        /* \"#utility.yul\":1584:1623   */\n      mstore\n        /* \"#utility.yul\":1556:1558   */\n      0x20\n        /* \"#utility.yul\":1553:1554   */\n      dup2\n        /* \"#utility.yul\":1549:1559   */\n      add\n        /* \"#utility.yul\":1544:1559   */\n      swap1\n      pop\n        /* \"#utility.yul\":1520:1633   */\n      jump(tag_357)\n    tag_359:\n        /* \"#utility.yul\":1667:1668   */\n      0x00\n        /* \"#utility.yul\":1658:1664   */\n      dup5\n        /* \"#utility.yul\":1653:1656   */\n      dup5\n        /* \"#utility.yul\":1649:1665   */\n      add\n        /* \"#utility.yul\":1642:1669   */\n      mstore\n        /* \"#utility.yul\":1491:1675   */\n      pop\n        /* \"#utility.yul\":1429:1675   */\n      pop\n      pop\n      pop\n      jump\t// out\n        /* \"#utility.yul\":1681:1783   */\n    tag_261:\n        /* \"#utility.yul\":1722:1728   */\n      0x00\n        /* \"#utility.yul\":1773:1775   */\n      0x1f\n        /* \"#utility.yul\":1769:1776   */\n      not\n        /* \"#utility.yul\":1764:1766   */\n      0x1f\n        /* \"#utility.yul\":1757:1762   */\n      dup4\n        /* \"#utility.yul\":1753:1767   */\n      add\n        /* \"#utility.yul\":1749:1777   */\n      and\n        /* \"#utility.yul\":1739:1777   */\n      swap1\n      pop\n        /* \"#utility.yul\":1681:1783   */\n      swap2\n      swap1\n      pop\n      jump\t// out\n        /* \"#utility.yul\":1789:2166   */\n    tag_262:\n        /* \"#utility.yul\":1877:1880   */\n      0x00\n        /* \"#utility.yul\":1905:1944   */\n      tag_362\n        /* \"#utility.yul\":1938:1943   */\n      dup3\n        /* \"#utility.yul\":1905:1944   */\n      tag_258\n      jump\t// in\n    tag_362:\n        /* \"#utility.yul\":1960:2031   */\n      tag_363\n        /* \"#utility.yul\":2024:2030   */\n      dup2\n        /* \"#utility.yul\":2019:2022   */\n      dup6\n        /* \"#utility.yul\":1960:2031   */\n      tag_259\n      jump\t// in\n    tag_363:\n        /* \"#utility.yul\":1953:2031   */\n      swap4\n      pop\n        /* \"#utility.yul\":2040:2105   */\n      tag_364\n        /* \"#utility.yul\":2098:2104   */\n      dup2\n        /* \"#utility.yul\":2093:2096   */\n      dup6\n        /* \"#utility.yul\":2086:2090   */\n      0x20\n        /* \"#utility.yul\":2079:2084   */\n      dup7\n        /* \"#utility.yul\":2075:2091   */\n      add\n        /* \"#utility.yul\":2040:2105   */\n      tag_260\n      jump\t// in\n    tag_364:\n        /* \"#utility.yul\":2130:2159   */\n      tag_365\n        /* \"#utility.yul\":2152:2158   */\n      dup2\n        /* \"#utility.yul\":2130:2159   */\n      tag_261\n      jump\t// in\n    tag_365:\n        /* \"#utility.yul\":2125:2128   */\n      dup5\n        /* \"#utility.yul\":2121:2160   */\n      add\n        /* \"#utility.yul\":2114:2160   */\n      swap2\n      pop\n        /* \"#utility.yul\":1881:2166   */\n      pop\n        /* \"#utility.yul\":1789:2166   */\n      swap3\n      swap2\n      pop\n      pop\n      jump\t// out\n        /* \"#utility.yul\":2172:2298   */\n    tag_263:\n        /* \"#utility.yul\":2209:2216   */\n      0x00\n        /* \"#utility.yul\":2249:2291   */\n      0xffffffffffffffffffffffffffffffffffffffff\n        /* \"#utility.yul\":2242:2247   */\n      dup3\n        /* \"#utility.yul\":2238:2292   */\n      and\n        /* \"#utility.yul\":2227:2292   */\n      swap1\n      pop\n        /* \"#utility.yul\":2172:2298   */\n      swap2\n      swap1\n      pop\n      jump\t// out\n        /* \"#utility.yul\":2304:2408   */\n    tag_264:\n        /* \"#utility.yul\":2349:2356   */\n      0x00\n        /* \"#utility.yul\":2378:2402   */\n      tag_368\n        /* \"#utility.yul\":2396:2401   */\n      dup3\n        /* \"#utility.yul\":2378:2402   */\n      tag_263\n      jump\t// in\n    tag_368:\n        /* \"#utility.yul\":2367:2402   */\n      swap1\n      pop\n        /* \"#utility.yul\":2304:2408   */\n      swap2\n      swap1\n      pop\n      jump\t// out\n        /* \"#utility.yul\":2414:2556   */\n    tag_265:\n        /* \"#utility.yul\":2517:2549   */\n      tag_370\n        /* \"#utility.yul\":2543:2548   */\n      dup2\n        /* \"#utility.yul\":2517:2549   */\n      tag_264\n      jump\t// in\n    tag_370:\n        /* \"#utility.yul\":2512:2515   */\n      dup3\n        /* \"#utility.yul\":2505:2550   */\n      mstore\n        /* \"#utility.yul\":2414:2556   */\n      pop\n      pop\n      jump\t// out\n        /* \"#utility.yul\":2562:2652   */\n    tag_266:\n        /* \"#utility.yul\":2596:2603   */\n      0x00\n        /* \"#utility.yul\":2639:2644   */\n      dup2\n        /* \"#utility.yul\":2632:2645   */\n      iszero\n        /* \"#utility.yul\":2625:2646   */\n      iszero\n        /* \"#utility.yul\":2614:2646   */\n      swap1\n      pop\n        /* \"#utility.yul\":2562:2652   */\n      swap2\n      swap1\n      pop\n      jump\t// out\n        /* \"#utility.yul\":2658:2767   */\n    tag_267:\n        /* \"#utility.yul\":2739:2760   */\n      tag_373\n        /* \"#utility.yul\":2754:2759   */\n      dup2\n        /* \"#utility.yul\":2739:2760   */\n      tag_266\n      jump\t// in\n    tag_373:\n        /* \"#utility.yul\":2734:2737   */\n      dup3\n        /* \"#utility.yul\":2727:2761   */\n      mstore\n        /* \"#utility.yul\":2658:2767   */\n      pop\n      pop\n      jump\t// out\n        /* \"#utility.yul\":2773:3968   */\n    tag_31:\n        /* \"#utility.yul\":3108:3112   */\n      0x00\n        /* \"#utility.yul\":3146:3149   */\n      0x0120\n        /* \"#utility.yul\":3135:3144   */\n      dup3\n        /* \"#utility.yul\":3131:3150   */\n      add\n        /* \"#utility.yul\":3123:3150   */\n      swap1\n      pop\n        /* \"#utility.yul\":3160:3231   */\n      tag_375\n        /* \"#utility.yul\":3228:3229   */\n      0x00\n        /* \"#utility.yul\":3217:3226   */\n      dup4\n        /* \"#utility.yul\":3213:3230   */\n      add\n        /* \"#utility.yul\":3204:3210   */\n      dup13\n        /* \"#utility.yul\":3160:3231   */\n      tag_257\n      jump\t// in\n    tag_375:\n        /* \"#utility.yul\":3278:3287   */\n      dup2\n        /* \"#utility.yul\":3272:3276   */\n      dup2\n        /* \"#utility.yul\":3268:3288   */\n      sub\n        /* \"#utility.yul\":3263:3265   */\n      0x20\n        /* \"#utility.yul\":3252:3261   */\n      dup4\n        /* \"#utility.yul\":3248:3266   */\n      add\n        /* \"#utility.yul\":3241:3289   */\n      mstore\n        /* \"#utility.yul\":3306:3384   */\n      tag_376\n        /* \"#utility.yul\":3379:3383   */\n      dup2\n        /* \"#utility.yul\":3370:3376   */\n      dup12\n        /* \"#utility.yul\":3306:3384   */\n      tag_262\n      jump\t// in\n    tag_376:\n        /* \"#utility.yul\":3298:3384   */\n      swap1\n      pop\n        /* \"#utility.yul\":3394:3466   */\n      tag_377\n        /* \"#utility.yul\":3462:3464   */\n      0x40\n        /* \"#utility.yul\":3451:3460   */\n      dup4\n        /* \"#utility.yul\":3447:3465   */\n      add\n        /* \"#utility.yul\":3438:3444   */\n      dup11\n        /* \"#utility.yul\":3394:3466   */\n      tag_257\n      jump\t// in\n    tag_377:\n        /* \"#utility.yul\":3476:3564   */\n      tag_378\n        /* \"#utility.yul\":3560:3562   */\n      0x60\n        /* \"#utility.yul\":3549:3558   */\n      dup4\n        /* \"#utility.yul\":3545:3563   */\n      add\n        /* \"#utility.yul\":3536:3542   */\n      dup10\n        /* \"#utility.yul\":3476:3564   */\n      tag_265\n      jump\t// in\n    tag_378:\n        /* \"#utility.yul\":3574:3647   */\n      tag_379\n        /* \"#utility.yul\":3642:3645   */\n      0x80\n        /* \"#utility.yul\":3631:3640   */\n      dup4\n        /* \"#utility.yul\":3627:3646   */\n      add\n        /* \"#utility.yul\":3618:3624   */\n      dup9\n        /* \"#utility.yul\":3574:3647   */\n      tag_257\n      jump\t// in\n    tag_379:\n        /* \"#utility.yul\":3657:3730   */\n      tag_380\n        /* \"#utility.yul\":3725:3728   */\n      0xa0\n        /* \"#utility.yul\":3714:3723   */\n      dup4\n        /* \"#utility.yul\":3710:3729   */\n      add\n        /* \"#utility.yul\":3701:3707   */\n      dup8\n        /* \"#utility.yul\":3657:3730   */\n      tag_257\n      jump\t// in\n    tag_380:\n        /* \"#utility.yul\":3740:3807   */\n      tag_381\n        /* \"#utility.yul\":3802:3805   */\n      0xc0\n        /* \"#utility.yul\":3791:3800   */\n      dup4\n        /* \"#utility.yul\":3787:3806   */\n      add\n        /* \"#utility.yul\":3778:3784   */\n      dup7\n        /* \"#utility.yul\":3740:3807   */\n      tag_267\n      jump\t// in\n    tag_381:\n        /* \"#utility.yul\":3817:3884   */\n      tag_382\n        /* \"#utility.yul\":3879:3882   */\n      0xe0\n        /* \"#utility.yul\":3868:3877   */\n      dup4\n        /* \"#utility.yul\":3864:3883   */\n      add\n        /* \"#utility.yul\":3855:3861   */\n      dup6\n        /* \"#utility.yul\":3817:3884   */\n      tag_267\n      jump\t// in\n    tag_382:\n        /* \"#utility.yul\":3894:3961   */\n      tag_383\n        /* \"#utility.yul\":3956:3959   */\n      0x0100\n        /* \"#utility.yul\":3945:3954   */\n      dup4\n        /* \"#utility.yul\":3941:3960   */\n      add\n        /* \"#utility.yul\":3932:3938   */\n      dup5\n        /* \"#utility.yul\":3894:3961   */\n      tag_267\n      jump\t// in\n    tag_383:\n        /* \"#utility.yul\":2773:3968   */\n      swap11\n      swap10\n      pop\n      pop\n      pop\n      pop\n      pop\n      pop\n      pop\n      pop\n      pop\n      pop\n      jump\t// out\n        /* \"#utility.yul\":3974:4070   */\n    tag_268:\n        /* \"#utility.yul\":4011:4018   */\n      0x00\n        /* \"#utility.yul\":4040:4064   */\n      tag_385\n        /* \"#utility.yul\":4058:4063   */\n      dup3\n        /* \"#utility.yul\":4040:4064   */\n      tag_263\n      jump\t// in\n    tag_385:\n        /* \"#utility.yul\":4029:4064   */\n      swap1\n      pop\n        /* \"#utility.yul\":3974:4070   */\n      swap2\n      swap1\n      pop\n      jump\t// out\n        /* \"#utility.yul\":4076:4198   */\n    tag_269:\n        /* \"#utility.yul\":4149:4173   */\n      tag_387\n        /* \"#utility.yul\":4167:4172   */\n      dup2\n        /* \"#utility.yul\":4149:4173   */\n      tag_268\n      jump\t// in\n    tag_387:\n        /* \"#utility.yul\":4142:4147   */\n      dup2\n        /* \"#utility.yul\":4139:4174   */\n      eq\n        /* \"#utility.yul\":4129:4192   */\n      tag_388\n      jumpi\n        /* \"#utility.yul\":4188:4189   */\n      0x00\n        /* \"#utility.yul\":4185:4186   */\n      dup1\n        /* \"#utility.yul\":4178:4190   */\n      revert\n        /* \"#utility.yul\":4129:4192   */\n    tag_388:\n        /* \"#utility.yul\":4076:4198   */\n      pop\n      jump\t// out\n        /* \"#utility.yul\":4204:4343   */\n    tag_270:\n        /* \"#utility.yul\":4250:4255   */\n      0x00\n        /* \"#utility.yul\":4288:4294   */\n      dup2\n        /* \"#utility.yul\":4275:4295   */\n      calldataload\n        /* \"#utility.yul\":4266:4295   */\n      swap1\n      pop\n        /* \"#utility.yul\":4304:4337   */\n      tag_390\n        /* \"#utility.yul\":4331:4336   */\n      dup2\n        /* \"#utility.yul\":4304:4337   */\n      tag_269\n      jump\t// in\n    tag_390:\n        /* \"#utility.yul\":4204:4343   */\n      swap3\n      swap2\n      pop\n      pop\n      jump\t// out\n        /* \"#utility.yul\":4349:4823   */\n    tag_39:\n        /* \"#utility.yul\":4417:4423   */\n      0x00\n        /* \"#utility.yul\":4425:4431   */\n      dup1\n        /* \"#utility.yul\":4474:4476   */\n      0x40\n        /* \"#utility.yul\":4462:4471   */\n      dup4\n        /* \"#utility.yul\":4453:4460   */\n      dup6\n        /* \"#utility.yul\":4449:4472   */\n      sub\n        /* \"#utility.yul\":4445:4477   */\n      slt\n        /* \"#utility.yul\":4442:4561   */\n      iszero\n      tag_392\n      jumpi\n        /* \"#utility.yul\":4480:4559   */\n      tag_393\n      tag_252\n      jump\t// in\n    tag_393:\n        /* \"#utility.yul\":4442:4561   */\n    tag_392:\n        /* \"#utility.yul\":4600:4601   */\n      0x00\n        /* \"#utility.yul\":4625:4678   */\n      tag_394\n        /* \"#utility.yul\":4670:4677   */\n      dup6\n        /* \"#utility.yul\":4661:4667   */\n      dup3\n        /* \"#utility.yul\":4650:4659   */\n      dup7\n        /* \"#utility.yul\":4646:4668   */\n      add\n        /* \"#utility.yul\":4625:4678   */\n      tag_256\n      jump\t// in\n    tag_394:\n        /* \"#utility.yul\":4615:4678   */\n      swap3\n      pop\n        /* \"#utility.yul\":4571:4688   */\n      pop\n        /* \"#utility.yul\":4727:4729   */\n      0x20\n        /* \"#utility.yul\":4753:4806   */\n      tag_395\n        /* \"#utility.yul\":4798:4805   */\n      dup6\n        /* \"#utility.yul\":4789:4795   */\n      dup3\n        /* \"#utility.yul\":4778:4787   */\n      dup7\n        /* \"#utility.yul\":4774:4796   */\n      add\n        /* \"#utility.yul\":4753:4806   */\n      tag_270\n      jump\t// in\n    tag_395:\n        /* \"#utility.yul\":4743:4806   */\n      swap2\n      pop\n        /* \"#utility.yul\":4698:4816   */\n      pop\n        /* \"#utility.yul\":4349:4823   */\n      swap3\n      pop\n      swap3\n      swap1\n      pop\n      jump\t// out\n        /* \"#utility.yul\":4829:5051   */\n    tag_49:\n        /* \"#utility.yul\":4922:4926   */\n      0x00\n        /* \"#utility.yul\":4960:4962   */\n      0x20\n        /* \"#utility.yul\":4949:4958   */\n      dup3\n        /* \"#utility.yul\":4945:4963   */\n      add\n        /* \"#utility.yul\":4937:4963   */\n      swap1\n      pop\n        /* \"#utility.yul\":4973:5044   */\n      tag_397\n        /* \"#utility.yul\":5041:5042   */\n      0x00\n        /* \"#utility.yul\":5030:5039   */\n      dup4\n        /* \"#utility.yul\":5026:5043   */\n      add\n        /* \"#utility.yul\":5017:5023   */\n      dup5\n        /* \"#utility.yul\":4973:5044   */\n      tag_257\n      jump\t// in\n    tag_397:\n        /* \"#utility.yul\":4829:5051   */\n      swap3\n      swap2\n      pop\n      pop\n      jump\t// out\n        /* \"#utility.yul\":5057:5175   */\n    tag_271:\n        /* \"#utility.yul\":5144:5168   */\n      tag_399\n        /* \"#utility.yul\":5162:5167   */\n      dup2\n        /* \"#utility.yul\":5144:5168   */\n      tag_268\n      jump\t// in\n    tag_399:\n        /* \"#utility.yul\":5139:5142   */\n      dup3\n        /* \"#utility.yul\":5132:5169   */\n      mstore\n        /* \"#utility.yul\":5057:5175   */\n      pop\n      pop\n      jump\t// out\n        /* \"#utility.yul\":5181:5403   */\n    tag_59:\n        /* \"#utility.yul\":5274:5278   */\n      0x00\n        /* \"#utility.yul\":5312:5314   */\n      0x20\n        /* \"#utility.yul\":5301:5310   */\n      dup3\n        /* \"#utility.yul\":5297:5315   */\n      add\n        /* \"#utility.yul\":5289:5315   */\n      swap1\n      pop\n        /* \"#utility.yul\":5325:5396   */\n      tag_401\n        /* \"#utility.yul\":5393:5394   */\n      0x00\n        /* \"#utility.yul\":5382:5391   */\n      dup4\n        /* \"#utility.yul\":5378:5395   */\n      add\n        /* \"#utility.yul\":5369:5375   */\n      dup5\n        /* \"#utility.yul\":5325:5396   */\n      tag_271\n      jump\t// in\n    tag_401:\n        /* \"#utility.yul\":5181:5403   */\n      swap3\n      swap2\n      pop\n      pop\n      jump\t// out\n        /* \"#utility.yul\":5409:5738   */\n    tag_77:\n        /* \"#utility.yul\":5468:5474   */\n      0x00\n        /* \"#utility.yul\":5517:5519   */\n      0x20\n        /* \"#utility.yul\":5505:5514   */\n      dup3\n        /* \"#utility.yul\":5496:5503   */\n      dup5\n        /* \"#utility.yul\":5492:5515   */\n      sub\n        /* \"#utility.yul\":5488:5520   */\n      slt\n        /* \"#utility.yul\":5485:5604   */\n      iszero\n      tag_403\n      jumpi\n        /* \"#utility.yul\":5523:5602   */\n      tag_404\n      tag_252\n      jump\t// in\n    tag_404:\n        /* \"#utility.yul\":5485:5604   */\n    tag_403:\n        /* \"#utility.yul\":5643:5644   */\n      0x00\n        /* \"#utility.yul\":5668:5721   */\n      tag_405\n        /* \"#utility.yul\":5713:5720   */\n      dup5\n        /* \"#utility.yul\":5704:5710   */\n      dup3\n        /* \"#utility.yul\":5693:5702   */\n      dup6\n        /* \"#utility.yul\":5689:5711   */\n      add\n        /* \"#utility.yul\":5668:5721   */\n      tag_270\n      jump\t// in\n    tag_405:\n        /* \"#utility.yul\":5658:5721   */\n      swap2\n      pop\n        /* \"#utility.yul\":5614:5731   */\n      pop\n        /* \"#utility.yul\":5409:5738   */\n      swap3\n      swap2\n      pop\n      pop\n      jump\t// out\n        /* \"#utility.yul\":5744:5861   */\n    tag_272:\n        /* \"#utility.yul\":5853:5854   */\n      0x00\n        /* \"#utility.yul\":5850:5851   */\n      dup1\n        /* \"#utility.yul\":5843:5855   */\n      revert\n        /* \"#utility.yul\":5867:5984   */\n    tag_273:\n        /* \"#utility.yul\":5976:5977   */\n      0x00\n        /* \"#utility.yul\":5973:5974   */\n      dup1\n        /* \"#utility.yul\":5966:5978   */\n      revert\n        /* \"#utility.yul\":5990:6107   */\n    tag_274:\n        /* \"#utility.yul\":6099:6100   */\n      0x00\n        /* \"#utility.yul\":6096:6097   */\n      dup1\n        /* \"#utility.yul\":6089:6101   */\n      revert\n        /* \"#utility.yul\":6127:6680   */\n    tag_275:\n        /* \"#utility.yul\":6185:6193   */\n      0x00\n        /* \"#utility.yul\":6195:6201   */\n      dup1\n        /* \"#utility.yul\":6245:6248   */\n      dup4\n        /* \"#utility.yul\":6238:6242   */\n      0x1f\n        /* \"#utility.yul\":6230:6236   */\n      dup5\n        /* \"#utility.yul\":6226:6243   */\n      add\n        /* \"#utility.yul\":6222:6249   */\n      slt\n        /* \"#utility.yul\":6212:6334   */\n      tag_410\n      jumpi\n        /* \"#utility.yul\":6253:6332   */\n      tag_411\n      tag_272\n      jump\t// in\n    tag_411:\n        /* \"#utility.yul\":6212:6334   */\n    tag_410:\n        /* \"#utility.yul\":6366:6372   */\n      dup3\n        /* \"#utility.yul\":6353:6373   */\n      calldataload\n        /* \"#utility.yul\":6343:6373   */\n      swap1\n      pop\n        /* \"#utility.yul\":6396:6414   */\n      0xffffffffffffffff\n        /* \"#utility.yul\":6388:6394   */\n      dup2\n        /* \"#utility.yul\":6385:6415   */\n      gt\n        /* \"#utility.yul\":6382:6499   */\n      iszero\n      tag_412\n      jumpi\n        /* \"#utility.yul\":6418:6497   */\n      tag_413\n      tag_273\n      jump\t// in\n    tag_413:\n        /* \"#utility.yul\":6382:6499   */\n    tag_412:\n        /* \"#utility.yul\":6532:6536   */\n      0x20\n        /* \"#utility.yul\":6524:6530   */\n      dup4\n        /* \"#utility.yul\":6520:6537   */\n      add\n        /* \"#utility.yul\":6508:6537   */\n      swap2\n      pop\n        /* \"#utility.yul\":6586:6589   */\n      dup4\n        /* \"#utility.yul\":6578:6582   */\n      0x01\n        /* \"#utility.yul\":6570:6576   */\n      dup3\n        /* \"#utility.yul\":6566:6583   */\n      mul\n        /* \"#utility.yul\":6556:6564   */\n      dup4\n        /* \"#utility.yul\":6552:6584   */\n      add\n        /* \"#utility.yul\":6549:6590   */\n      gt\n        /* \"#utility.yul\":6546:6674   */\n      iszero\n      tag_414\n      jumpi\n        /* \"#utility.yul\":6593:6672   */\n      tag_415\n      tag_274\n      jump\t// in\n    tag_415:\n        /* \"#utility.yul\":6546:6674   */\n    tag_414:\n        /* \"#utility.yul\":6127:6680   */\n      swap3\n      pop\n      swap3\n      swap1\n      pop\n      jump\t// out\n        /* \"#utility.yul\":6686:6824   */\n    tag_276:\n        /* \"#utility.yul\":6767:6799   */\n      tag_417\n        /* \"#utility.yul\":6793:6798   */\n      dup2\n        /* \"#utility.yul\":6767:6799   */\n      tag_264\n      jump\t// in\n    tag_417:\n        /* \"#utility.yul\":6760:6765   */\n      dup2\n        /* \"#utility.yul\":6757:6800   */\n      eq\n        /* \"#utility.yul\":6747:6818   */\n      tag_418\n      jumpi\n        /* \"#utility.yul\":6814:6815   */\n      0x00\n        /* \"#utility.yul\":6811:6812   */\n      dup1\n        /* \"#utility.yul\":6804:6816   */\n      revert\n        /* \"#utility.yul\":6747:6818   */\n    tag_418:\n        /* \"#utility.yul\":6686:6824   */\n      pop\n      jump\t// out\n        /* \"#utility.yul\":6830:6985   */\n    tag_277:\n        /* \"#utility.yul\":6884:6889   */\n      0x00\n        /* \"#utility.yul\":6922:6928   */\n      dup2\n        /* \"#utility.yul\":6909:6929   */\n      calldataload\n        /* \"#utility.yul\":6900:6929   */\n      swap1\n      pop\n        /* \"#utility.yul\":6938:6979   */\n      tag_420\n        /* \"#utility.yul\":6973:6978   */\n      dup2\n        /* \"#utility.yul\":6938:6979   */\n      tag_276\n      jump\t// in\n    tag_420:\n        /* \"#utility.yul\":6830:6985   */\n      swap3\n      swap2\n      pop\n      pop\n      jump\t// out\n        /* \"#utility.yul\":6991:7826   */\n    tag_83:\n        /* \"#utility.yul\":7088:7094   */\n      0x00\n        /* \"#utility.yul\":7096:7102   */\n      dup1\n        /* \"#utility.yul\":7104:7110   */\n      0x00\n        /* \"#utility.yul\":7112:7118   */\n      dup1\n        /* \"#utility.yul\":7161:7163   */\n      0x60\n        /* \"#utility.yul\":7149:7158   */\n      dup6\n        /* \"#utility.yul\":7140:7147   */\n      dup8\n        /* \"#utility.yul\":7136:7159   */\n      sub\n        /* \"#utility.yul\":7132:7164   */\n      slt\n        /* \"#utility.yul\":7129:7248   */\n      iszero\n      tag_422\n      jumpi\n        /* \"#utility.yul\":7167:7246   */\n      tag_423\n      tag_252\n      jump\t// in\n    tag_423:\n        /* \"#utility.yul\":7129:7248   */\n    tag_422:\n        /* \"#utility.yul\":7315:7316   */\n      0x00\n        /* \"#utility.yul\":7304:7313   */\n      dup6\n        /* \"#utility.yul\":7300:7317   */\n      add\n        /* \"#utility.yul\":7287:7318   */\n      calldataload\n        /* \"#utility.yul\":7345:7363   */\n      0xffffffffffffffff\n        /* \"#utility.yul\":7337:7343   */\n      dup2\n        /* \"#utility.yul\":7334:7364   */\n      gt\n        /* \"#utility.yul\":7331:7448   */\n      iszero\n      tag_424\n      jumpi\n        /* \"#utility.yul\":7367:7446   */\n      tag_425\n      tag_253\n      jump\t// in\n    tag_425:\n        /* \"#utility.yul\":7331:7448   */\n    tag_424:\n        /* \"#utility.yul\":7480:7545   */\n      tag_426\n        /* \"#utility.yul\":7537:7544   */\n      dup8\n        /* \"#utility.yul\":7528:7534   */\n      dup3\n        /* \"#utility.yul\":7517:7526   */\n      dup9\n        /* \"#utility.yul\":7513:7535   */\n      add\n        /* \"#utility.yul\":7480:7545   */\n      tag_275\n      jump\t// in\n    tag_426:\n        /* \"#utility.yul\":7462:7545   */\n      swap5\n      pop\n      swap5\n      pop\n        /* \"#utility.yul\":7258:7555   */\n      pop\n        /* \"#utility.yul\":7594:7596   */\n      0x20\n        /* \"#utility.yul\":7620:7673   */\n      tag_427\n        /* \"#utility.yul\":7665:7672   */\n      dup8\n        /* \"#utility.yul\":7656:7662   */\n      dup3\n        /* \"#utility.yul\":7645:7654   */\n      dup9\n        /* \"#utility.yul\":7641:7663   */\n      add\n        /* \"#utility.yul\":7620:7673   */\n      tag_256\n      jump\t// in\n    tag_427:\n        /* \"#utility.yul\":7610:7673   */\n      swap3\n      pop\n        /* \"#utility.yul\":7565:7683   */\n      pop\n        /* \"#utility.yul\":7722:7724   */\n      0x40\n        /* \"#utility.yul\":7748:7809   */\n      tag_428\n        /* \"#utility.yul\":7801:7808   */\n      dup8\n        /* \"#utility.yul\":7792:7798   */\n      dup3\n        /* \"#utility.yul\":7781:7790   */\n      dup9\n        /* \"#utility.yul\":7777:7799   */\n      add\n        /* \"#utility.yul\":7748:7809   */\n      tag_277\n      jump\t// in\n    tag_428:\n        /* \"#utility.yul\":7738:7809   */\n      swap2\n      pop\n        /* \"#utility.yul\":7693:7819   */\n      pop\n        /* \"#utility.yul\":6991:7826   */\n      swap3\n      swap6\n      swap2\n      swap5\n      pop\n      swap3\n      pop\n      jump\t// out\n        /* \"#utility.yul\":7832:7970   */\n    tag_278:\n        /* \"#utility.yul\":7923:7929   */\n      0x00\n        /* \"#utility.yul\":7957:7962   */\n      dup2\n        /* \"#utility.yul\":7951:7963   */\n      mload\n        /* \"#utility.yul\":7941:7963   */\n      swap1\n      pop\n        /* \"#utility.yul\":7832:7970   */\n      swap2\n      swap1\n      pop\n      jump\t// out\n        /* \"#utility.yul\":7976:8184   */\n    tag_279:\n        /* \"#utility.yul\":8099:8110   */\n      0x00\n        /* \"#utility.yul\":8133:8139   */\n      dup3\n        /* \"#utility.yul\":8128:8131   */\n      dup3\n        /* \"#utility.yul\":8121:8140   */\n      mstore\n        /* \"#utility.yul\":8173:8177   */\n      0x20\n        /* \"#utility.yul\":8168:8171   */\n      dup3\n        /* \"#utility.yul\":8164:8178   */\n      add\n        /* \"#utility.yul\":8149:8178   */\n      swap1\n      pop\n        /* \"#utility.yul\":7976:8184   */\n      swap3\n      swap2\n      pop\n      pop\n      jump\t// out\n        /* \"#utility.yul\":8190:8346   */\n    tag_280:\n        /* \"#utility.yul\":8281:8285   */\n      0x00\n        /* \"#utility.yul\":8304:8307   */\n      dup2\n        /* \"#utility.yul\":8296:8307   */\n      swap1\n      pop\n        /* \"#utility.yul\":8334:8338   */\n      0x20\n        /* \"#utility.yul\":8329:8332   */\n      dup3\n        /* \"#utility.yul\":8325:8339   */\n      add\n        /* \"#utility.yul\":8317:8339   */\n      swap1\n      pop\n        /* \"#utility.yul\":8190:8346   */\n      swap2\n      swap1\n      pop\n      jump\t// out\n        /* \"#utility.yul\":8352:8460   */\n    tag_281:\n        /* \"#utility.yul\":8429:8453   */\n      tag_433\n        /* \"#utility.yul\":8447:8452   */\n      dup2\n        /* \"#utility.yul\":8429:8453   */\n      tag_254\n      jump\t// in\n    tag_433:\n        /* \"#utility.yul\":8424:8427   */\n      dup3\n        /* \"#utility.yul\":8417:8454   */\n      mstore\n        /* \"#utility.yul\":8352:8460   */\n      pop\n      pop\n      jump\t// out\n        /* \"#utility.yul\":8466:8625   */\n    tag_282:\n        /* \"#utility.yul\":8540:8551   */\n      0x00\n        /* \"#utility.yul\":8574:8580   */\n      dup3\n        /* \"#utility.yul\":8569:8572   */\n      dup3\n        /* \"#utility.yul\":8562:8581   */\n      mstore\n        /* \"#utility.yul\":8614:8618   */\n      0x20\n        /* \"#utility.yul\":8609:8612   */\n      dup3\n        /* \"#utility.yul\":8605:8619   */\n      add\n        /* \"#utility.yul\":8590:8619   */\n      swap1\n      pop\n        /* \"#utility.yul\":8466:8625   */\n      swap3\n      swap2\n      pop\n      pop\n      jump\t// out\n        /* \"#utility.yul\":8631:8988   */\n    tag_283:\n        /* \"#utility.yul\":8709:8712   */\n      0x00\n        /* \"#utility.yul\":8737:8776   */\n      tag_436\n        /* \"#utility.yul\":8770:8775   */\n      dup3\n        /* \"#utility.yul\":8737:8776   */\n      tag_258\n      jump\t// in\n    tag_436:\n        /* \"#utility.yul\":8792:8853   */\n      tag_437\n        /* \"#utility.yul\":8846:8852   */\n      dup2\n        /* \"#utility.yul\":8841:8844   */\n      dup6\n        /* \"#utility.yul\":8792:8853   */\n      tag_282\n      jump\t// in\n    tag_437:\n        /* \"#utility.yul\":8785:8853   */\n      swap4\n      pop\n        /* \"#utility.yul\":8862:8927   */\n      tag_438\n        /* \"#utility.yul\":8920:8926   */\n      dup2\n        /* \"#utility.yul\":8915:8918   */\n      dup6\n        /* \"#utility.yul\":8908:8912   */\n      0x20\n        /* \"#utility.yul\":8901:8906   */\n      dup7\n        /* \"#utility.yul\":8897:8913   */\n      add\n        /* \"#utility.yul\":8862:8927   */\n      tag_260\n      jump\t// in\n    tag_438:\n        /* \"#utility.yul\":8952:8981   */\n      tag_439\n        /* \"#utility.yul\":8974:8980   */\n      dup2\n        /* \"#utility.yul\":8952:8981   */\n      tag_261\n      jump\t// in\n    tag_439:\n        /* \"#utility.yul\":8947:8950   */\n      dup5\n        /* \"#utility.yul\":8943:8982   */\n      add\n        /* \"#utility.yul\":8936:8982   */\n      swap2\n      pop\n        /* \"#utility.yul\":8713:8988   */\n      pop\n        /* \"#utility.yul\":8631:8988   */\n      swap3\n      swap2\n      pop\n      pop\n      jump\t// out\n        /* \"#utility.yul\":8994:9126   */\n    tag_284:\n        /* \"#utility.yul\":9087:9119   */\n      tag_441\n        /* \"#utility.yul\":9113:9118   */\n      dup2\n        /* \"#utility.yul\":9087:9119   */\n      tag_264\n      jump\t// in\n    tag_441:\n        /* \"#utility.yul\":9082:9085   */\n      dup3\n        /* \"#utility.yul\":9075:9120   */\n      mstore\n        /* \"#utility.yul\":8994:9126   */\n      pop\n      pop\n      jump\t// out\n        /* \"#utility.yul\":9132:9231   */\n    tag_285:\n        /* \"#utility.yul\":9203:9224   */\n      tag_443\n        /* \"#utility.yul\":9218:9223   */\n      dup2\n        /* \"#utility.yul\":9203:9224   */\n      tag_266\n      jump\t// in\n    tag_443:\n        /* \"#utility.yul\":9198:9201   */\n      dup3\n        /* \"#utility.yul\":9191:9225   */\n      mstore\n        /* \"#utility.yul\":9132:9231   */\n      pop\n      pop\n      jump\t// out\n        /* \"#utility.yul\":9287:11125   */\n    tag_286:\n        /* \"#utility.yul\":9394:9397   */\n      0x00\n        /* \"#utility.yul\":9430:9436   */\n      0x0120\n        /* \"#utility.yul\":9425:9428   */\n      dup4\n        /* \"#utility.yul\":9421:9437   */\n      add\n        /* \"#utility.yul\":9517:9521   */\n      0x00\n        /* \"#utility.yul\":9510:9515   */\n      dup4\n        /* \"#utility.yul\":9506:9522   */\n      add\n        /* \"#utility.yul\":9500:9523   */\n      mload\n        /* \"#utility.yul\":9536:9599   */\n      tag_445\n        /* \"#utility.yul\":9593:9597   */\n      0x00\n        /* \"#utility.yul\":9588:9591   */\n      dup7\n        /* \"#utility.yul\":9584:9598   */\n      add\n        /* \"#utility.yul\":9570:9582   */\n      dup3\n        /* \"#utility.yul\":9536:9599   */\n      tag_281\n      jump\t// in\n    tag_445:\n        /* \"#utility.yul\":9447:9609   */\n      pop\n        /* \"#utility.yul\":9698:9702   */\n      0x20\n        /* \"#utility.yul\":9691:9696   */\n      dup4\n        /* \"#utility.yul\":9687:9703   */\n      add\n        /* \"#utility.yul\":9681:9704   */\n      mload\n        /* \"#utility.yul\":9751:9754   */\n      dup5\n        /* \"#utility.yul\":9745:9749   */\n      dup3\n        /* \"#utility.yul\":9741:9755   */\n      sub\n        /* \"#utility.yul\":9734:9738   */\n      0x20\n        /* \"#utility.yul\":9729:9732   */\n      dup7\n        /* \"#utility.yul\":9725:9739   */\n      add\n        /* \"#utility.yul\":9718:9756   */\n      mstore\n        /* \"#utility.yul\":9777:9850   */\n      tag_446\n        /* \"#utility.yul\":9845:9849   */\n      dup3\n        /* \"#utility.yul\":9831:9843   */\n      dup3\n        /* \"#utility.yul\":9777:9850   */\n      tag_283\n      jump\t// in\n    tag_446:\n        /* \"#utility.yul\":9769:9850   */\n      swap2\n      pop\n        /* \"#utility.yul\":9619:9861   */\n      pop\n        /* \"#utility.yul\":9945:9949   */\n      0x40\n        /* \"#utility.yul\":9938:9943   */\n      dup4\n        /* \"#utility.yul\":9934:9950   */\n      add\n        /* \"#utility.yul\":9928:9951   */\n      mload\n        /* \"#utility.yul\":9964:10027   */\n      tag_447\n        /* \"#utility.yul\":10021:10025   */\n      0x40\n        /* \"#utility.yul\":10016:10019   */\n      dup7\n        /* \"#utility.yul\":10012:10026   */\n      add\n        /* \"#utility.yul\":9998:10010   */\n      dup3\n        /* \"#utility.yul\":9964:10027   */\n      tag_281\n      jump\t// in\n    tag_447:\n        /* \"#utility.yul\":9871:10037   */\n      pop\n        /* \"#utility.yul\":10124:10128   */\n      0x60\n        /* \"#utility.yul\":10117:10122   */\n      dup4\n        /* \"#utility.yul\":10113:10129   */\n      add\n        /* \"#utility.yul\":10107:10130   */\n      mload\n        /* \"#utility.yul\":10143:10222   */\n      tag_448\n        /* \"#utility.yul\":10216:10220   */\n      0x60\n        /* \"#utility.yul\":10211:10214   */\n      dup7\n        /* \"#utility.yul\":10207:10221   */\n      add\n        /* \"#utility.yul\":10193:10205   */\n      dup3\n        /* \"#utility.yul\":10143:10222   */\n      tag_284\n      jump\t// in\n    tag_448:\n        /* \"#utility.yul\":10047:10232   */\n      pop\n        /* \"#utility.yul\":10315:10319   */\n      0x80\n        /* \"#utility.yul\":10308:10313   */\n      dup4\n        /* \"#utility.yul\":10304:10320   */\n      add\n        /* \"#utility.yul\":10298:10321   */\n      mload\n        /* \"#utility.yul\":10334:10397   */\n      tag_449\n        /* \"#utility.yul\":10391:10395   */\n      0x80\n        /* \"#utility.yul\":10386:10389   */\n      dup7\n        /* \"#utility.yul\":10382:10396   */\n      add\n        /* \"#utility.yul\":10368:10380   */\n      dup3\n        /* \"#utility.yul\":10334:10397   */\n      tag_281\n      jump\t// in\n    tag_449:\n        /* \"#utility.yul\":10242:10407   */\n      pop\n        /* \"#utility.yul\":10488:10492   */\n      0xa0\n        /* \"#utility.yul\":10481:10486   */\n      dup4\n        /* \"#utility.yul\":10477:10493   */\n      add\n        /* \"#utility.yul\":10471:10494   */\n      mload\n        /* \"#utility.yul\":10507:10570   */\n      tag_450\n        /* \"#utility.yul\":10564:10568   */\n      0xa0\n        /* \"#utility.yul\":10559:10562   */\n      dup7\n        /* \"#utility.yul\":10555:10569   */\n      add\n        /* \"#utility.yul\":10541:10553   */\n      dup3\n        /* \"#utility.yul\":10507:10570   */\n      tag_281\n      jump\t// in\n    tag_450:\n        /* \"#utility.yul\":10417:10580   */\n      pop\n        /* \"#utility.yul\":10668:10672   */\n      0xc0\n        /* \"#utility.yul\":10661:10666   */\n      dup4\n        /* \"#utility.yul\":10657:10673   */\n      add\n        /* \"#utility.yul\":10651:10674   */\n      mload\n        /* \"#utility.yul\":10687:10744   */\n      tag_451\n        /* \"#utility.yul\":10738:10742   */\n      0xc0\n        /* \"#utility.yul\":10733:10736   */\n      dup7\n        /* \"#utility.yul\":10729:10743   */\n      add\n        /* \"#utility.yul\":10715:10727   */\n      dup3\n        /* \"#utility.yul\":10687:10744   */\n      tag_285\n      jump\t// in\n    tag_451:\n        /* \"#utility.yul\":10590:10754   */\n      pop\n        /* \"#utility.yul\":10836:10840   */\n      0xe0\n        /* \"#utility.yul\":10829:10834   */\n      dup4\n        /* \"#utility.yul\":10825:10841   */\n      add\n        /* \"#utility.yul\":10819:10842   */\n      mload\n        /* \"#utility.yul\":10855:10912   */\n      tag_452\n        /* \"#utility.yul\":10906:10910   */\n      0xe0\n        /* \"#utility.yul\":10901:10904   */\n      dup7\n        /* \"#utility.yul\":10897:10911   */\n      add\n        /* \"#utility.yul\":10883:10895   */\n      dup3\n        /* \"#utility.yul\":10855:10912   */\n      tag_285\n      jump\t// in\n    tag_452:\n        /* \"#utility.yul\":10764:10922   */\n      pop\n        /* \"#utility.yul\":11008:11014   */\n      0x0100\n        /* \"#utility.yul\":11001:11006   */\n      dup4\n        /* \"#utility.yul\":10997:11015   */\n      add\n        /* \"#utility.yul\":10991:11016   */\n      mload\n        /* \"#utility.yul\":11029:11088   */\n      tag_453\n        /* \"#utility.yul\":11080:11086   */\n      0x0100\n        /* \"#utility.yul\":11075:11078   */\n      dup7\n        /* \"#utility.yul\":11071:11087   */\n      add\n        /* \"#utility.yul\":11057:11069   */\n      dup3\n        /* \"#utility.yul\":11029:11088   */\n      tag_285\n      jump\t// in\n    tag_453:\n        /* \"#utility.yul\":10932:11098   */\n      pop\n        /* \"#utility.yul\":11115:11119   */\n      dup1\n        /* \"#utility.yul\":11108:11119   */\n      swap2\n      pop\n        /* \"#utility.yul\":9399:11125   */\n      pop\n        /* \"#utility.yul\":9287:11125   */\n      swap3\n      swap2\n      pop\n      pop\n      jump\t// out\n        /* \"#utility.yul\":11131:11383   */\n    tag_287:\n        /* \"#utility.yul\":11248:11258   */\n      0x00\n        /* \"#utility.yul\":11283:11377   */\n      tag_455\n        /* \"#utility.yul\":11373:11376   */\n      dup4\n        /* \"#utility.yul\":11365:11371   */\n      dup4\n        /* \"#utility.yul\":11283:11377   */\n      tag_286\n      jump\t// in\n    tag_455:\n        /* \"#utility.yul\":11269:11377   */\n      swap1\n      pop\n        /* \"#utility.yul\":11131:11383   */\n      swap3\n      swap2\n      pop\n      pop\n      jump\t// out\n        /* \"#utility.yul\":11389:11526   */\n    tag_288:\n        /* \"#utility.yul\":11483:11487   */\n      0x00\n        /* \"#utility.yul\":11515:11519   */\n      0x20\n        /* \"#utility.yul\":11510:11513   */\n      dup3\n        /* \"#utility.yul\":11506:11520   */\n      add\n        /* \"#utility.yul\":11498:11520   */\n      swap1\n      pop\n        /* \"#utility.yul\":11389:11526   */\n      swap2\n      swap1\n      pop\n      jump\t// out\n        /* \"#utility.yul\":11586:12689   */\n    tag_289:\n        /* \"#utility.yul\":11753:11756   */\n      0x00\n        /* \"#utility.yul\":11782:11860   */\n      tag_458\n        /* \"#utility.yul\":11854:11859   */\n      dup3\n        /* \"#utility.yul\":11782:11860   */\n      tag_278\n      jump\t// in\n    tag_458:\n        /* \"#utility.yul\":11876:11986   */\n      tag_459\n        /* \"#utility.yul\":11979:11985   */\n      dup2\n        /* \"#utility.yul\":11974:11977   */\n      dup6\n        /* \"#utility.yul\":11876:11986   */\n      tag_279\n      jump\t// in\n    tag_459:\n        /* \"#utility.yul\":11869:11986   */\n      swap4\n      pop\n        /* \"#utility.yul\":12012:12015   */\n      dup4\n        /* \"#utility.yul\":12057:12061   */\n      0x20\n        /* \"#utility.yul\":12049:12055   */\n      dup3\n        /* \"#utility.yul\":12045:12062   */\n      mul\n        /* \"#utility.yul\":12040:12043   */\n      dup6\n        /* \"#utility.yul\":12036:12063   */\n      add\n        /* \"#utility.yul\":12087:12167   */\n      tag_460\n        /* \"#utility.yul\":12161:12166   */\n      dup6\n        /* \"#utility.yul\":12087:12167   */\n      tag_280\n      jump\t// in\n    tag_460:\n        /* \"#utility.yul\":12190:12197   */\n      dup1\n        /* \"#utility.yul\":12221:12222   */\n      0x00\n        /* \"#utility.yul\":12206:12644   */\n    tag_461:\n        /* \"#utility.yul\":12231:12237   */\n      dup6\n        /* \"#utility.yul\":12228:12229   */\n      dup2\n        /* \"#utility.yul\":12225:12238   */\n      lt\n        /* \"#utility.yul\":12206:12644   */\n      iszero\n      tag_463\n      jumpi\n        /* \"#utility.yul\":12302:12311   */\n      dup5\n        /* \"#utility.yul\":12296:12300   */\n      dup5\n        /* \"#utility.yul\":12292:12312   */\n      sub\n        /* \"#utility.yul\":12287:12290   */\n      dup10\n        /* \"#utility.yul\":12280:12313   */\n      mstore\n        /* \"#utility.yul\":12353:12359   */\n      dup2\n        /* \"#utility.yul\":12347:12360   */\n      mload\n        /* \"#utility.yul\":12381:12493   */\n      tag_464\n        /* \"#utility.yul\":12488:12492   */\n      dup6\n        /* \"#utility.yul\":12473:12486   */\n      dup3\n        /* \"#utility.yul\":12381:12493   */\n      tag_287\n      jump\t// in\n    tag_464:\n        /* \"#utility.yul\":12373:12493   */\n      swap5\n      pop\n        /* \"#utility.yul\":12516:12600   */\n      tag_465\n        /* \"#utility.yul\":12593:12599   */\n      dup4\n        /* \"#utility.yul\":12516:12600   */\n      tag_288\n      jump\t// in\n    tag_465:\n        /* \"#utility.yul\":12506:12600   */\n      swap3\n      pop\n        /* \"#utility.yul\":12629:12633   */\n      0x20\n        /* \"#utility.yul\":12624:12627   */\n      dup11\n        /* \"#utility.yul\":12620:12634   */\n      add\n        /* \"#utility.yul\":12613:12634   */\n      swap10\n      pop\n        /* \"#utility.yul\":12266:12644   */\n      pop\n        /* \"#utility.yul\":12253:12254   */\n      0x01\n        /* \"#utility.yul\":12250:12251   */\n      dup2\n        /* \"#utility.yul\":12246:12255   */\n      add\n        /* \"#utility.yul\":12241:12255   */\n      swap1\n      pop\n        /* \"#utility.yul\":12206:12644   */\n      jump(tag_461)\n    tag_463:\n        /* \"#utility.yul\":12210:12224   */\n      pop\n        /* \"#utility.yul\":12660:12664   */\n      dup3\n        /* \"#utility.yul\":12653:12664   */\n      swap8\n      pop\n        /* \"#utility.yul\":12680:12683   */\n      dup8\n        /* \"#utility.yul\":12673:12683   */\n      swap6\n      pop\n        /* \"#utility.yul\":11758:12689   */\n      pop\n      pop\n      pop\n      pop\n      pop\n        /* \"#utility.yul\":11586:12689   */\n      swap3\n      swap2\n      pop\n      pop\n      jump\t// out\n        /* \"#utility.yul\":12695:13164   */\n    tag_89:\n        /* \"#utility.yul\":12886:12890   */\n      0x00\n        /* \"#utility.yul\":12924:12926   */\n      0x20\n        /* \"#utility.yul\":12913:12922   */\n      dup3\n        /* \"#utility.yul\":12909:12927   */\n      add\n        /* \"#utility.yul\":12901:12927   */\n      swap1\n      pop\n        /* \"#utility.yul\":12973:12982   */\n      dup2\n        /* \"#utility.yul\":12967:12971   */\n      dup2\n        /* \"#utility.yul\":12963:12983   */\n      sub\n        /* \"#utility.yul\":12959:12960   */\n      0x00\n        /* \"#utility.yul\":12948:12957   */\n      dup4\n        /* \"#utility.yul\":12944:12961   */\n      add\n        /* \"#utility.yul\":12937:12984   */\n      mstore\n        /* \"#utility.yul\":13001:13157   */\n      tag_467\n        /* \"#utility.yul\":13152:13156   */\n      dup2\n        /* \"#utility.yul\":13143:13149   */\n      dup5\n        /* \"#utility.yul\":13001:13157   */\n      tag_289\n      jump\t// in\n    tag_467:\n        /* \"#utility.yul\":12993:13157   */\n      swap1\n      pop\n        /* \"#utility.yul\":12695:13164   */\n      swap3\n      swap2\n      pop\n      pop\n      jump\t// out\n        /* \"#utility.yul\":13170:13644   */\n    tag_101:\n        /* \"#utility.yul\":13238:13244   */\n      0x00\n        /* \"#utility.yul\":13246:13252   */\n      dup1\n        /* \"#utility.yul\":13295:13297   */\n      0x40\n        /* \"#utility.yul\":13283:13292   */\n      dup4\n        /* \"#utility.yul\":13274:13281   */\n      dup6\n        /* \"#utility.yul\":13270:13293   */\n      sub\n        /* \"#utility.yul\":13266:13298   */\n      slt\n        /* \"#utility.yul\":13263:13382   */\n      iszero\n      tag_469\n      jumpi\n        /* \"#utility.yul\":13301:13380   */\n      tag_470\n      tag_252\n      jump\t// in\n    tag_470:\n        /* \"#utility.yul\":13263:13382   */\n    tag_469:\n        /* \"#utility.yul\":13421:13422   */\n      0x00\n        /* \"#utility.yul\":13446:13499   */\n      tag_471\n        /* \"#utility.yul\":13491:13498   */\n      dup6\n        /* \"#utility.yul\":13482:13488   */\n      dup3\n        /* \"#utility.yul\":13471:13480   */\n      dup7\n        /* \"#utility.yul\":13467:13489   */\n      add\n        /* \"#utility.yul\":13446:13499   */\n      tag_270\n      jump\t// in\n    tag_471:\n        /* \"#utility.yul\":13436:13499   */\n      swap3\n      pop\n        /* \"#utility.yul\":13392:13509   */\n      pop\n        /* \"#utility.yul\":13548:13550   */\n      0x20\n        /* \"#utility.yul\":13574:13627   */\n      tag_472\n        /* \"#utility.yul\":13619:13626   */\n      dup6\n        /* \"#utility.yul\":13610:13616   */\n      dup3\n        /* \"#utility.yul\":13599:13608   */\n      dup7\n        /* \"#utility.yul\":13595:13617   */\n      add\n        /* \"#utility.yul\":13574:13627   */\n      tag_256\n      jump\t// in\n    tag_472:\n        /* \"#utility.yul\":13564:13627   */\n      swap2\n      pop\n        /* \"#utility.yul\":13519:13637   */\n      pop\n        /* \"#utility.yul\":13170:13644   */\n      swap3\n      pop\n      swap3\n      swap1\n      pop\n      jump\t// out\n        /* \"#utility.yul\":13650:13860   */\n    tag_104:\n        /* \"#utility.yul\":13737:13741   */\n      0x00\n        /* \"#utility.yul\":13775:13777   */\n      0x20\n        /* \"#utility.yul\":13764:13773   */\n      dup3\n        /* \"#utility.yul\":13760:13778   */\n      add\n        /* \"#utility.yul\":13752:13778   */\n      swap1\n      pop\n        /* \"#utility.yul\":13788:13853   */\n      tag_474\n        /* \"#utility.yul\":13850:13851   */\n      0x00\n        /* \"#utility.yul\":13839:13848   */\n      dup4\n        /* \"#utility.yul\":13835:13852   */\n      add\n        /* \"#utility.yul\":13826:13832   */\n      dup5\n        /* \"#utility.yul\":13788:13853   */\n      tag_267\n      jump\t// in\n    tag_474:\n        /* \"#utility.yul\":13650:13860   */\n      swap3\n      swap2\n      pop\n      pop\n      jump\t// out\n        /* \"#utility.yul\":13866:14046   */\n    tag_290:\n        /* \"#utility.yul\":13914:13991   */\n      0x4e487b7100000000000000000000000000000000000000000000000000000000\n        /* \"#utility.yul\":13911:13912   */\n      0x00\n        /* \"#utility.yul\":13904:13992   */\n      mstore\n        /* \"#utility.yul\":14011:14015   */\n      0x22\n        /* \"#utility.yul\":14008:14009   */\n      0x04\n        /* \"#utility.yul\":14001:14016   */\n      mstore\n        /* \"#utility.yul\":14035:14039   */\n      0x24\n        /* \"#utility.yul\":14032:14033   */\n      0x00\n        /* \"#utility.yul\":14025:14040   */\n      revert\n        /* \"#utility.yul\":14052:14372   */\n    tag_118:\n        /* \"#utility.yul\":14096:14102   */\n      0x00\n        /* \"#utility.yul\":14133:14134   */\n      0x02\n        /* \"#utility.yul\":14127:14131   */\n      dup3\n        /* \"#utility.yul\":14123:14135   */\n      div\n        /* \"#utility.yul\":14113:14135   */\n      swap1\n      pop\n        /* \"#utility.yul\":14180:14181   */\n      0x01\n        /* \"#utility.yul\":14174:14178   */\n      dup3\n        /* \"#utility.yul\":14170:14182   */\n      and\n        /* \"#utility.yul\":14201:14219   */\n      dup1\n        /* \"#utility.yul\":14191:14272   */\n      tag_477\n      jumpi\n        /* \"#utility.yul\":14257:14261   */\n      0x7f\n        /* \"#utility.yul\":14249:14255   */\n      dup3\n        /* \"#utility.yul\":14245:14262   */\n      and\n        /* \"#utility.yul\":14235:14262   */\n      swap2\n      pop\n        /* \"#utility.yul\":14191:14272   */\n    tag_477:\n        /* \"#utility.yul\":14319:14321   */\n      0x20\n        /* \"#utility.yul\":14311:14317   */\n      dup3\n        /* \"#utility.yul\":14308:14322   */\n      lt\n        /* \"#utility.yul\":14288:14306   */\n      dup2\n        /* \"#utility.yul\":14285:14323   */\n      sub\n        /* \"#utility.yul\":14282:14366   */\n      tag_478\n      jumpi\n        /* \"#utility.yul\":14338:14356   */\n      tag_479\n      tag_290\n      jump\t// in\n    tag_479:\n        /* \"#utility.yul\":14282:14366   */\n    tag_478:\n        /* \"#utility.yul\":14103:14372   */\n      pop\n        /* \"#utility.yul\":14052:14372   */\n      swap2\n      swap1\n      pop\n      jump\t// out\n        /* \"#utility.yul\":14378:14551   */\n    tag_291:\n        /* \"#utility.yul\":14518:14543   */\n      0x596f7520617265206e6f7420616e20696e766573746f72000000000000000000\n        /* \"#utility.yul\":14514:14515   */\n      0x00\n        /* \"#utility.yul\":14506:14512   */\n      dup3\n        /* \"#utility.yul\":14502:14516   */\n      add\n        /* \"#utility.yul\":14495:14544   */\n      mstore\n        /* \"#utility.yul\":14378:14551   */\n      pop\n      jump\t// out\n        /* \"#utility.yul\":14557:14923   */\n    tag_292:\n        /* \"#utility.yul\":14699:14702   */\n      0x00\n        /* \"#utility.yul\":14720:14787   */\n      tag_482\n        /* \"#utility.yul\":14784:14786   */\n      0x17\n        /* \"#utility.yul\":14779:14782   */\n      dup4\n        /* \"#utility.yul\":14720:14787   */\n      tag_259\n      jump\t// in\n    tag_482:\n        /* \"#utility.yul\":14713:14787   */\n      swap2\n      pop\n        /* \"#utility.yul\":14796:14889   */\n      tag_483\n        /* \"#utility.yul\":14885:14888   */\n      dup3\n        /* \"#utility.yul\":14796:14889   */\n      tag_291\n      jump\t// in\n    tag_483:\n        /* \"#utility.yul\":14914:14916   */\n      0x20\n        /* \"#utility.yul\":14909:14912   */\n      dup3\n        /* \"#utility.yul\":14905:14917   */\n      add\n        /* \"#utility.yul\":14898:14917   */\n      swap1\n      pop\n        /* \"#utility.yul\":14557:14923   */\n      swap2\n      swap1\n      pop\n      jump\t// out\n        /* \"#utility.yul\":14929:15348   */\n    tag_126:\n        /* \"#utility.yul\":15095:15099   */\n      0x00\n        /* \"#utility.yul\":15133:15135   */\n      0x20\n        /* \"#utility.yul\":15122:15131   */\n      dup3\n        /* \"#utility.yul\":15118:15136   */\n      add\n        /* \"#utility.yul\":15110:15136   */\n      swap1\n      pop\n        /* \"#utility.yul\":15182:15191   */\n      dup2\n        /* \"#utility.yul\":15176:15180   */\n      dup2\n        /* \"#utility.yul\":15172:15192   */\n      sub\n        /* \"#utility.yul\":15168:15169   */\n      0x00\n        /* \"#utility.yul\":15157:15166   */\n      dup4\n        /* \"#utility.yul\":15153:15170   */\n      add\n        /* \"#utility.yul\":15146:15193   */\n      mstore\n        /* \"#utility.yul\":15210:15341   */\n      tag_485\n        /* \"#utility.yul\":15336:15340   */\n      dup2\n        /* \"#utility.yul\":15210:15341   */\n      tag_292\n      jump\t// in\n    tag_485:\n        /* \"#utility.yul\":15202:15341   */\n      swap1\n      pop\n        /* \"#utility.yul\":14929:15348   */\n      swap2\n      swap1\n      pop\n      jump\t// out\n        /* \"#utility.yul\":15354:15534   */\n    tag_293:\n        /* \"#utility.yul\":15402:15479   */\n      0x4e487b7100000000000000000000000000000000000000000000000000000000\n        /* \"#utility.yul\":15399:15400   */\n      0x00\n        /* \"#utility.yul\":15392:15480   */\n      mstore\n        /* \"#utility.yul\":15499:15503   */\n      0x11\n        /* \"#utility.yul\":15496:15497   */\n      0x04\n        /* \"#utility.yul\":15489:15504   */\n      mstore\n        /* \"#utility.yul\":15523:15527   */\n      0x24\n        /* \"#utility.yul\":15520:15521   */\n      0x00\n        /* \"#utility.yul\":15513:15528   */\n      revert\n        /* \"#utility.yul\":15540:15950   */\n    tag_129:\n        /* \"#utility.yul\":15580:15587   */\n      0x00\n        /* \"#utility.yul\":15603:15623   */\n      tag_488\n        /* \"#utility.yul\":15621:15622   */\n      dup3\n        /* \"#utility.yul\":15603:15623   */\n      tag_254\n      jump\t// in\n    tag_488:\n        /* \"#utility.yul\":15598:15623   */\n      swap2\n      pop\n        /* \"#utility.yul\":15637:15657   */\n      tag_489\n        /* \"#utility.yul\":15655:15656   */\n      dup4\n        /* \"#utility.yul\":15637:15657   */\n      tag_254\n      jump\t// in\n    tag_489:\n        /* \"#utility.yul\":15632:15657   */\n      swap3\n      pop\n        /* \"#utility.yul\":15692:15693   */\n      dup3\n        /* \"#utility.yul\":15689:15690   */\n      dup3\n        /* \"#utility.yul\":15685:15694   */\n      mul\n        /* \"#utility.yul\":15714:15744   */\n      tag_490\n        /* \"#utility.yul\":15732:15743   */\n      dup2\n        /* \"#utility.yul\":15714:15744   */\n      tag_254\n      jump\t// in\n    tag_490:\n        /* \"#utility.yul\":15703:15744   */\n      swap2\n      pop\n        /* \"#utility.yul\":15893:15894   */\n      dup3\n        /* \"#utility.yul\":15884:15891   */\n      dup3\n        /* \"#utility.yul\":15880:15895   */\n      div\n        /* \"#utility.yul\":15877:15878   */\n      dup5\n        /* \"#utility.yul\":15874:15896   */\n      eq\n        /* \"#utility.yul\":15854:15855   */\n      dup4\n        /* \"#utility.yul\":15847:15856   */\n      iszero\n        /* \"#utility.yul\":15827:15910   */\n      or\n        /* \"#utility.yul\":15804:15943   */\n      tag_491\n      jumpi\n        /* \"#utility.yul\":15923:15941   */\n      tag_492\n      tag_293\n      jump\t// in\n    tag_492:\n        /* \"#utility.yul\":15804:15943   */\n    tag_491:\n        /* \"#utility.yul\":15588:15950   */\n      pop\n        /* \"#utility.yul\":15540:15950   */\n      swap3\n      swap2\n      pop\n      pop\n      jump\t// out\n        /* \"#utility.yul\":15956:16136   */\n    tag_294:\n        /* \"#utility.yul\":16004:16081   */\n      0x4e487b7100000000000000000000000000000000000000000000000000000000\n        /* \"#utility.yul\":16001:16002   */\n      0x00\n        /* \"#utility.yul\":15994:16082   */\n      mstore\n        /* \"#utility.yul\":16101:16105   */\n      0x12\n        /* \"#utility.yul\":16098:16099   */\n      0x04\n        /* \"#utility.yul\":16091:16106   */\n      mstore\n        /* \"#utility.yul\":16125:16129   */\n      0x24\n        /* \"#utility.yul\":16122:16123   */\n      0x00\n        /* \"#utility.yul\":16115:16130   */\n      revert\n        /* \"#utility.yul\":16142:16327   */\n    tag_131:\n        /* \"#utility.yul\":16182:16183   */\n      0x00\n        /* \"#utility.yul\":16199:16219   */\n      tag_495\n        /* \"#utility.yul\":16217:16218   */\n      dup3\n        /* \"#utility.yul\":16199:16219   */\n      tag_254\n      jump\t// in\n    tag_495:\n        /* \"#utility.yul\":16194:16219   */\n      swap2\n      pop\n        /* \"#utility.yul\":16233:16253   */\n      tag_496\n        /* \"#utility.yul\":16251:16252   */\n      dup4\n        /* \"#utility.yul\":16233:16253   */\n      tag_254\n      jump\t// in\n    tag_496:\n        /* \"#utility.yul\":16228:16253   */\n      swap3\n      pop\n        /* \"#utility.yul\":16272:16273   */\n      dup3\n        /* \"#utility.yul\":16262:16297   */\n      tag_497\n      jumpi\n        /* \"#utility.yul\":16277:16295   */\n      tag_498\n      tag_294\n      jump\t// in\n    tag_498:\n        /* \"#utility.yul\":16262:16297   */\n    tag_497:\n        /* \"#utility.yul\":16319:16320   */\n      dup3\n        /* \"#utility.yul\":16316:16317   */\n      dup3\n        /* \"#utility.yul\":16312:16321   */\n      div\n        /* \"#utility.yul\":16307:16321   */\n      swap1\n      pop\n        /* \"#utility.yul\":16142:16327   */\n      swap3\n      swap2\n      pop\n      pop\n      jump\t// out\n        /* \"#utility.yul\":16333:16557   */\n    tag_295:\n        /* \"#utility.yul\":16473:16507   */\n      0x596f7520646f206e6f74206861766520746f20706f77657220746f2067697665\n        /* \"#utility.yul\":16469:16470   */\n      0x00\n        /* \"#utility.yul\":16461:16467   */\n      dup3\n        /* \"#utility.yul\":16457:16471   */\n      add\n        /* \"#utility.yul\":16450:16508   */\n      mstore\n        /* \"#utility.yul\":16542:16549   */\n      0x207665746f000000000000000000000000000000000000000000000000000000\n        /* \"#utility.yul\":16537:16539   */\n      0x20\n        /* \"#utility.yul\":16529:16535   */\n      dup3\n        /* \"#utility.yul\":16525:16540   */\n      add\n        /* \"#utility.yul\":16518:16550   */\n      mstore\n        /* \"#utility.yul\":16333:16557   */\n      pop\n      jump\t// out\n        /* \"#utility.yul\":16563:16929   */\n    tag_296:\n        /* \"#utility.yul\":16705:16708   */\n      0x00\n        /* \"#utility.yul\":16726:16793   */\n      tag_501\n        /* \"#utility.yul\":16790:16792   */\n      0x25\n        /* \"#utility.yul\":16785:16788   */\n      dup4\n        /* \"#utility.yul\":16726:16793   */\n      tag_259\n      jump\t// in\n    tag_501:\n        /* \"#utility.yul\":16719:16793   */\n      swap2\n      pop\n        /* \"#utility.yul\":16802:16895   */\n      tag_502\n        /* \"#utility.yul\":16891:16894   */\n      dup3\n        /* \"#utility.yul\":16802:16895   */\n      tag_295\n      jump\t// in\n    tag_502:\n        /* \"#utility.yul\":16920:16922   */\n      0x40\n        /* \"#utility.yul\":16915:16918   */\n      dup3\n        /* \"#utility.yul\":16911:16923   */\n      add\n        /* \"#utility.yul\":16904:16923   */\n      swap1\n      pop\n        /* \"#utility.yul\":16563:16929   */\n      swap2\n      swap1\n      pop\n      jump\t// out\n        /* \"#utility.yul\":16935:17354   */\n    tag_134:\n        /* \"#utility.yul\":17101:17105   */\n      0x00\n        /* \"#utility.yul\":17139:17141   */\n      0x20\n        /* \"#utility.yul\":17128:17137   */\n      dup3\n        /* \"#utility.yul\":17124:17142   */\n      add\n        /* \"#utility.yul\":17116:17142   */\n      swap1\n      pop\n        /* \"#utility.yul\":17188:17197   */\n      dup2\n        /* \"#utility.yul\":17182:17186   */\n      dup2\n        /* \"#utility.yul\":17178:17198   */\n      sub\n        /* \"#utility.yul\":17174:17175   */\n      0x00\n        /* \"#utility.yul\":17163:17172   */\n      dup4\n        /* \"#utility.yul\":17159:17176   */\n      add\n        /* \"#utility.yul\":17152:17199   */\n      mstore\n        /* \"#utility.yul\":17216:17347   */\n      tag_504\n        /* \"#utility.yul\":17342:17346   */\n      dup2\n        /* \"#utility.yul\":17216:17347   */\n      tag_296\n      jump\t// in\n    tag_504:\n        /* \"#utility.yul\":17208:17347   */\n      swap1\n      pop\n        /* \"#utility.yul\":16935:17354   */\n      swap2\n      swap1\n      pop\n      jump\t// out\n        /* \"#utility.yul\":17360:17540   */\n    tag_297:\n        /* \"#utility.yul\":17500:17532   */\n      0x596f7520646f6e277420686176652074696873206d7563682073686172650000\n        /* \"#utility.yul\":17496:17497   */\n      0x00\n        /* \"#utility.yul\":17488:17494   */\n      dup3\n        /* \"#utility.yul\":17484:17498   */\n      add\n        /* \"#utility.yul\":17477:17533   */\n      mstore\n        /* \"#utility.yul\":17360:17540   */\n      pop\n      jump\t// out\n        /* \"#utility.yul\":17546:17912   */\n    tag_298:\n        /* \"#utility.yul\":17688:17691   */\n      0x00\n        /* \"#utility.yul\":17709:17776   */\n      tag_507\n        /* \"#utility.yul\":17773:17775   */\n      0x1e\n        /* \"#utility.yul\":17768:17771   */\n      dup4\n        /* \"#utility.yul\":17709:17776   */\n      tag_259\n      jump\t// in\n    tag_507:\n        /* \"#utility.yul\":17702:17776   */\n      swap2\n      pop\n        /* \"#utility.yul\":17785:17878   */\n      tag_508\n        /* \"#utility.yul\":17874:17877   */\n      dup3\n        /* \"#utility.yul\":17785:17878   */\n      tag_297\n      jump\t// in\n    tag_508:\n        /* \"#utility.yul\":17903:17905   */\n      0x20\n        /* \"#utility.yul\":17898:17901   */\n      dup3\n        /* \"#utility.yul\":17894:17906   */\n      add\n        /* \"#utility.yul\":17887:17906   */\n      swap1\n      pop\n        /* \"#utility.yul\":17546:17912   */\n      swap2\n      swap1\n      pop\n      jump\t// out\n        /* \"#utility.yul\":17918:18337   */\n    tag_141:\n        /* \"#utility.yul\":18084:18088   */\n      0x00\n        /* \"#utility.yul\":18122:18124   */\n      0x20\n        /* \"#utility.yul\":18111:18120   */\n      dup3\n        /* \"#utility.yul\":18107:18125   */\n      add\n        /* \"#utility.yul\":18099:18125   */\n      swap1\n      pop\n        /* \"#utility.yul\":18171:18180   */\n      dup2\n        /* \"#utility.yul\":18165:18169   */\n      dup2\n        /* \"#utility.yul\":18161:18181   */\n      sub\n        /* \"#utility.yul\":18157:18158   */\n      0x00\n        /* \"#utility.yul\":18146:18155   */\n      dup4\n        /* \"#utility.yul\":18142:18159   */\n      add\n        /* \"#utility.yul\":18135:18182   */\n      mstore\n        /* \"#utility.yul\":18199:18330   */\n      tag_510\n        /* \"#utility.yul\":18325:18329   */\n      dup2\n        /* \"#utility.yul\":18199:18330   */\n      tag_298\n      jump\t// in\n    tag_510:\n        /* \"#utility.yul\":18191:18330   */\n      swap1\n      pop\n        /* \"#utility.yul\":17918:18337   */\n      swap2\n      swap1\n      pop\n      jump\t// out\n        /* \"#utility.yul\":18343:18511   */\n    tag_299:\n        /* \"#utility.yul\":18483:18503   */\n      0x496e73756666696369656e742046756e64730000000000000000000000000000\n        /* \"#utility.yul\":18479:18480   */\n      0x00\n        /* \"#utility.yul\":18471:18477   */\n      dup3\n        /* \"#utility.yul\":18467:18481   */\n      add\n        /* \"#utility.yul\":18460:18504   */\n      mstore\n        /* \"#utility.yul\":18343:18511   */\n      pop\n      jump\t// out\n        /* \"#utility.yul\":18517:18883   */\n    tag_300:\n        /* \"#utility.yul\":18659:18662   */\n      0x00\n        /* \"#utility.yul\":18680:18747   */\n      tag_513\n        /* \"#utility.yul\":18744:18746   */\n      0x12\n        /* \"#utility.yul\":18739:18742   */\n      dup4\n        /* \"#utility.yul\":18680:18747   */\n      tag_259\n      jump\t// in\n    tag_513:\n        /* \"#utility.yul\":18673:18747   */\n      swap2\n      pop\n        /* \"#utility.yul\":18756:18849   */\n      tag_514\n        /* \"#utility.yul\":18845:18848   */\n      dup3\n        /* \"#utility.yul\":18756:18849   */\n      tag_299\n      jump\t// in\n    tag_514:\n        /* \"#utility.yul\":18874:18876   */\n      0x20\n        /* \"#utility.yul\":18869:18872   */\n      dup3\n        /* \"#utility.yul\":18865:18877   */\n      add\n        /* \"#utility.yul\":18858:18877   */\n      swap1\n      pop\n        /* \"#utility.yul\":18517:18883   */\n      swap2\n      swap1\n      pop\n      jump\t// out\n        /* \"#utility.yul\":18889:19308   */\n    tag_144:\n        /* \"#utility.yul\":19055:19059   */\n      0x00\n        /* \"#utility.yul\":19093:19095   */\n      0x20\n        /* \"#utility.yul\":19082:19091   */\n      dup3\n        /* \"#utility.yul\":19078:19096   */\n      add\n        /* \"#utility.yul\":19070:19096   */\n      swap1\n      pop\n        /* \"#utility.yul\":19142:19151   */\n      dup2\n        /* \"#utility.yul\":19136:19140   */\n      dup2\n        /* \"#utility.yul\":19132:19152   */\n      sub\n        /* \"#utility.yul\":19128:19129   */\n      0x00\n        /* \"#utility.yul\":19117:19126   */\n      dup4\n        /* \"#utility.yul\":19113:19130   */\n      add\n        /* \"#utility.yul\":19106:19153   */\n      mstore\n        /* \"#utility.yul\":19170:19301   */\n      tag_516\n        /* \"#utility.yul\":19296:19300   */\n      dup2\n        /* \"#utility.yul\":19170:19301   */\n      tag_300\n      jump\t// in\n    tag_516:\n        /* \"#utility.yul\":19162:19301   */\n      swap1\n      pop\n        /* \"#utility.yul\":18889:19308   */\n      swap2\n      swap1\n      pop\n      jump\t// out\n        /* \"#utility.yul\":19314:19508   */\n    tag_146:\n        /* \"#utility.yul\":19354:19358   */\n      0x00\n        /* \"#utility.yul\":19374:19394   */\n      tag_518\n        /* \"#utility.yul\":19392:19393   */\n      dup3\n        /* \"#utility.yul\":19374:19394   */\n      tag_254\n      jump\t// in\n    tag_518:\n        /* \"#utility.yul\":19369:19394   */\n      swap2\n      pop\n        /* \"#utility.yul\":19408:19428   */\n      tag_519\n        /* \"#utility.yul\":19426:19427   */\n      dup4\n        /* \"#utility.yul\":19408:19428   */\n      tag_254\n      jump\t// in\n    tag_519:\n        /* \"#utility.yul\":19403:19428   */\n      swap3\n      pop\n        /* \"#utility.yul\":19452:19453   */\n      dup3\n        /* \"#utility.yul\":19449:19450   */\n      dup3\n        /* \"#utility.yul\":19445:19454   */\n      sub\n        /* \"#utility.yul\":19437:19454   */\n      swap1\n      pop\n        /* \"#utility.yul\":19476:19477   */\n      dup2\n        /* \"#utility.yul\":19470:19474   */\n      dup2\n        /* \"#utility.yul\":19467:19478   */\n      gt\n        /* \"#utility.yul\":19464:19501   */\n      iszero\n      tag_520\n      jumpi\n        /* \"#utility.yul\":19481:19499   */\n      tag_521\n      tag_293\n      jump\t// in\n    tag_521:\n        /* \"#utility.yul\":19464:19501   */\n    tag_520:\n        /* \"#utility.yul\":19314:19508   */\n      swap3\n      swap2\n      pop\n      pop\n      jump\t// out\n        /* \"#utility.yul\":19514:19705   */\n    tag_149:\n        /* \"#utility.yul\":19554:19557   */\n      0x00\n        /* \"#utility.yul\":19573:19593   */\n      tag_523\n        /* \"#utility.yul\":19591:19592   */\n      dup3\n        /* \"#utility.yul\":19573:19593   */\n      tag_254\n      jump\t// in\n    tag_523:\n        /* \"#utility.yul\":19568:19593   */\n      swap2\n      pop\n        /* \"#utility.yul\":19607:19627   */\n      tag_524\n        /* \"#utility.yul\":19625:19626   */\n      dup4\n        /* \"#utility.yul\":19607:19627   */\n      tag_254\n      jump\t// in\n    tag_524:\n        /* \"#utility.yul\":19602:19627   */\n      swap3\n      pop\n        /* \"#utility.yul\":19650:19651   */\n      dup3\n        /* \"#utility.yul\":19647:19648   */\n      dup3\n        /* \"#utility.yul\":19643:19652   */\n      add\n        /* \"#utility.yul\":19636:19652   */\n      swap1\n      pop\n        /* \"#utility.yul\":19671:19674   */\n      dup1\n        /* \"#utility.yul\":19668:19669   */\n      dup3\n        /* \"#utility.yul\":19665:19675   */\n      gt\n        /* \"#utility.yul\":19662:19698   */\n      iszero\n      tag_525\n      jumpi\n        /* \"#utility.yul\":19678:19696   */\n      tag_526\n      tag_293\n      jump\t// in\n    tag_526:\n        /* \"#utility.yul\":19662:19698   */\n    tag_525:\n        /* \"#utility.yul\":19514:19705   */\n      swap3\n      swap2\n      pop\n      pop\n      jump\t// out\n        /* \"#utility.yul\":19711:19880   */\n    tag_301:\n        /* \"#utility.yul\":19851:19872   */\n      0x596f7520617265206e6f74206d616e6167657200000000000000000000000000\n        /* \"#utility.yul\":19847:19848   */\n      0x00\n        /* \"#utility.yul\":19839:19845   */\n      dup3\n        /* \"#utility.yul\":19835:19849   */\n      add\n        /* \"#utility.yul\":19828:19873   */\n      mstore\n        /* \"#utility.yul\":19711:19880   */\n      pop\n      jump\t// out\n        /* \"#utility.yul\":19886:20252   */\n    tag_302:\n        /* \"#utility.yul\":20028:20031   */\n      0x00\n        /* \"#utility.yul\":20049:20116   */\n      tag_529\n        /* \"#utility.yul\":20113:20115   */\n      0x13\n        /* \"#utility.yul\":20108:20111   */\n      dup4\n        /* \"#utility.yul\":20049:20116   */\n      tag_259\n      jump\t// in\n    tag_529:\n        /* \"#utility.yul\":20042:20116   */\n      swap2\n      pop\n        /* \"#utility.yul\":20125:20218   */\n      tag_530\n        /* \"#utility.yul\":20214:20217   */\n      dup3\n        /* \"#utility.yul\":20125:20218   */\n      tag_301\n      jump\t// in\n    tag_530:\n        /* \"#utility.yul\":20243:20245   */\n      0x20\n        /* \"#utility.yul\":20238:20241   */\n      dup3\n        /* \"#utility.yul\":20234:20246   */\n      add\n        /* \"#utility.yul\":20227:20246   */\n      swap1\n      pop\n        /* \"#utility.yul\":19886:20252   */\n      swap2\n      swap1\n      pop\n      jump\t// out\n        /* \"#utility.yul\":20258:20677   */\n    tag_154:\n        /* \"#utility.yul\":20424:20428   */\n      0x00\n        /* \"#utility.yul\":20462:20464   */\n      0x20\n        /* \"#utility.yul\":20451:20460   */\n      dup3\n        /* \"#utility.yul\":20447:20465   */\n      add\n        /* \"#utility.yul\":20439:20465   */\n      swap1\n      pop\n        /* \"#utility.yul\":20511:20520   */\n      dup2\n        /* \"#utility.yul\":20505:20509   */\n      dup2\n        /* \"#utility.yul\":20501:20521   */\n      sub\n        /* \"#utility.yul\":20497:20498   */\n      0x00\n        /* \"#utility.yul\":20486:20495   */\n      dup4\n        /* \"#utility.yul\":20482:20499   */\n      add\n        /* \"#utility.yul\":20475:20522   */\n      mstore\n        /* \"#utility.yul\":20539:20670   */\n      tag_532\n        /* \"#utility.yul\":20665:20669   */\n      dup2\n        /* \"#utility.yul\":20539:20670   */\n      tag_302\n      jump\t// in\n    tag_532:\n        /* \"#utility.yul\":20531:20670   */\n      swap1\n      pop\n        /* \"#utility.yul\":20258:20677   */\n      swap2\n      swap1\n      pop\n      jump\t// out\n        /* \"#utility.yul\":20683:20858   */\n    tag_303:\n        /* \"#utility.yul\":20823:20850   */\n      0x4d616a6f7269747920646f6573206e6f7420737570706f727400000000000000\n        /* \"#utility.yul\":20819:20820   */\n      0x00\n        /* \"#utility.yul\":20811:20817   */\n      dup3\n        /* \"#utility.yul\":20807:20821   */\n      add\n        /* \"#utility.yul\":20800:20851   */\n      mstore\n        /* \"#utility.yul\":20683:20858   */\n      pop\n      jump\t// out\n        /* \"#utility.yul\":20864:21230   */\n    tag_304:\n        /* \"#utility.yul\":21006:21009   */\n      0x00\n        /* \"#utility.yul\":21027:21094   */\n      tag_535\n        /* \"#utility.yul\":21091:21093   */\n      0x19\n        /* \"#utility.yul\":21086:21089   */\n      dup4\n        /* \"#utility.yul\":21027:21094   */\n      tag_259\n      jump\t// in\n    tag_535:\n        /* \"#utility.yul\":21020:21094   */\n      swap2\n      pop\n        /* \"#utility.yul\":21103:21196   */\n      tag_536\n        /* \"#utility.yul\":21192:21195   */\n      dup3\n        /* \"#utility.yul\":21103:21196   */\n      tag_303\n      jump\t// in\n    tag_536:\n        /* \"#utility.yul\":21221:21223   */\n      0x20\n        /* \"#utility.yul\":21216:21219   */\n      dup3\n        /* \"#utility.yul\":21212:21224   */\n      add\n        /* \"#utility.yul\":21205:21224   */\n      swap1\n      pop\n        /* \"#utility.yul\":20864:21230   */\n      swap2\n      swap1\n      pop\n      jump\t// out\n        /* \"#utility.yul\":21236:21655   */\n    tag_160:\n        /* \"#utility.yul\":21402:21406   */\n      0x00\n        /* \"#utility.yul\":21440:21442   */\n      0x20\n        /* \"#utility.yul\":21429:21438   */\n      dup3\n        /* \"#utility.yul\":21425:21443   */\n      add\n        /* \"#utility.yul\":21417:21443   */\n      swap1\n      pop\n        /* \"#utility.yul\":21489:21498   */\n      dup2\n        /* \"#utility.yul\":21483:21487   */\n      dup2\n        /* \"#utility.yul\":21479:21499   */\n      sub\n        /* \"#utility.yul\":21475:21476   */\n      0x00\n        /* \"#utility.yul\":21464:21473   */\n      dup4\n        /* \"#utility.yul\":21460:21477   */\n      add\n        /* \"#utility.yul\":21453:21500   */\n      mstore\n        /* \"#utility.yul\":21517:21648   */\n      tag_538\n        /* \"#utility.yul\":21643:21647   */\n      dup2\n        /* \"#utility.yul\":21517:21648   */\n      tag_304\n      jump\t// in\n    tag_538:\n        /* \"#utility.yul\":21509:21648   */\n      swap1\n      pop\n        /* \"#utility.yul\":21236:21655   */\n      swap2\n      swap1\n      pop\n      jump\t// out\n        /* \"#utility.yul\":21661:21884   */\n    tag_305:\n        /* \"#utility.yul\":21801:21835   */\n      0x5665746f20686173206265656e20676976656e20746f20746869732070726f70\n        /* \"#utility.yul\":21797:21798   */\n      0x00\n        /* \"#utility.yul\":21789:21795   */\n      dup3\n        /* \"#utility.yul\":21785:21799   */\n      add\n        /* \"#utility.yul\":21778:21836   */\n      mstore\n        /* \"#utility.yul\":21870:21876   */\n      0x6f73616c00000000000000000000000000000000000000000000000000000000\n        /* \"#utility.yul\":21865:21867   */\n      0x20\n        /* \"#utility.yul\":21857:21863   */\n      dup3\n        /* \"#utility.yul\":21853:21868   */\n      add\n        /* \"#utility.yul\":21846:21877   */\n      mstore\n        /* \"#utility.yul\":21661:21884   */\n      pop\n      jump\t// out\n        /* \"#utility.yul\":21890:22256   */\n    tag_306:\n        /* \"#utility.yul\":22032:22035   */\n      0x00\n        /* \"#utility.yul\":22053:22120   */\n      tag_541\n        /* \"#utility.yul\":22117:22119   */\n      0x24\n        /* \"#utility.yul\":22112:22115   */\n      dup4\n        /* \"#utility.yul\":22053:22120   */\n      tag_259\n      jump\t// in\n    tag_541:\n        /* \"#utility.yul\":22046:22120   */\n      swap2\n      pop\n        /* \"#utility.yul\":22129:22222   */\n      tag_542\n        /* \"#utility.yul\":22218:22221   */\n      dup3\n        /* \"#utility.yul\":22129:22222   */\n      tag_305\n      jump\t// in\n    tag_542:\n        /* \"#utility.yul\":22247:22249   */\n      0x40\n        /* \"#utility.yul\":22242:22245   */\n      dup3\n        /* \"#utility.yul\":22238:22250   */\n      add\n        /* \"#utility.yul\":22231:22250   */\n      swap1\n      pop\n        /* \"#utility.yul\":21890:22256   */\n      swap2\n      swap1\n      pop\n      jump\t// out\n        /* \"#utility.yul\":22262:22681   */\n    tag_163:\n        /* \"#utility.yul\":22428:22432   */\n      0x00\n        /* \"#utility.yul\":22466:22468   */\n      0x20\n        /* \"#utility.yul\":22455:22464   */\n      dup3\n        /* \"#utility.yul\":22451:22469   */\n      add\n        /* \"#utility.yul\":22443:22469   */\n      swap1\n      pop\n        /* \"#utility.yul\":22515:22524   */\n      dup2\n        /* \"#utility.yul\":22509:22513   */\n      dup2\n        /* \"#utility.yul\":22505:22525   */\n      sub\n        /* \"#utility.yul\":22501:22502   */\n      0x00\n        /* \"#utility.yul\":22490:22499   */\n      dup4\n        /* \"#utility.yul\":22486:22503   */\n      add\n        /* \"#utility.yul\":22479:22526   */\n      mstore\n        /* \"#utility.yul\":22543:22674   */\n      tag_544\n        /* \"#utility.yul\":22669:22673   */\n      dup2\n        /* \"#utility.yul\":22543:22674   */\n      tag_306\n      jump\t// in\n    tag_544:\n        /* \"#utility.yul\":22535:22674   */\n      swap1\n      pop\n        /* \"#utility.yul\":22262:22681   */\n      swap2\n      swap1\n      pop\n      jump\t// out\n        /* \"#utility.yul\":22687:22867   */\n    tag_307:\n        /* \"#utility.yul\":22827:22859   */\n      0x5468652070726f706f73616c20686173206265656e2063616e63656c65640000\n        /* \"#utility.yul\":22823:22824   */\n      0x00\n        /* \"#utility.yul\":22815:22821   */\n      dup3\n        /* \"#utility.yul\":22811:22825   */\n      add\n        /* \"#utility.yul\":22804:22860   */\n      mstore\n        /* \"#utility.yul\":22687:22867   */\n      pop\n      jump\t// out\n        /* \"#utility.yul\":22873:23239   */\n    tag_308:\n        /* \"#utility.yul\":23015:23018   */\n      0x00\n        /* \"#utility.yul\":23036:23103   */\n      tag_547\n        /* \"#utility.yul\":23100:23102   */\n      0x1e\n        /* \"#utility.yul\":23095:23098   */\n      dup4\n        /* \"#utility.yul\":23036:23103   */\n      tag_259\n      jump\t// in\n    tag_547:\n        /* \"#utility.yul\":23029:23103   */\n      swap2\n      pop\n        /* \"#utility.yul\":23112:23205   */\n      tag_548\n        /* \"#utility.yul\":23201:23204   */\n      dup3\n        /* \"#utility.yul\":23112:23205   */\n      tag_307\n      jump\t// in\n    tag_548:\n        /* \"#utility.yul\":23230:23232   */\n      0x20\n        /* \"#utility.yul\":23225:23228   */\n      dup3\n        /* \"#utility.yul\":23221:23233   */\n      add\n        /* \"#utility.yul\":23214:23233   */\n      swap1\n      pop\n        /* \"#utility.yul\":22873:23239   */\n      swap2\n      swap1\n      pop\n      jump\t// out\n        /* \"#utility.yul\":23245:23664   */\n    tag_166:\n        /* \"#utility.yul\":23411:23415   */\n      0x00\n        /* \"#utility.yul\":23449:23451   */\n      0x20\n        /* \"#utility.yul\":23438:23447   */\n      dup3\n        /* \"#utility.yul\":23434:23452   */\n      add\n        /* \"#utility.yul\":23426:23452   */\n      swap1\n      pop\n        /* \"#utility.yul\":23498:23507   */\n      dup2\n        /* \"#utility.yul\":23492:23496   */\n      dup2\n        /* \"#utility.yul\":23488:23508   */\n      sub\n        /* \"#utility.yul\":23484:23485   */\n      0x00\n        /* \"#utility.yul\":23473:23482   */\n      dup4\n        /* \"#utility.yul\":23469:23486   */\n      add\n        /* \"#utility.yul\":23462:23509   */\n      mstore\n        /* \"#utility.yul\":23526:23657   */\n      tag_550\n        /* \"#utility.yul\":23652:23656   */\n      dup2\n        /* \"#utility.yul\":23526:23657   */\n      tag_308\n      jump\t// in\n    tag_550:\n        /* \"#utility.yul\":23518:23657   */\n      swap1\n      pop\n        /* \"#utility.yul\":23245:23664   */\n      swap2\n      swap1\n      pop\n      jump\t// out\n        /* \"#utility.yul\":23670:23845   */\n    tag_309:\n        /* \"#utility.yul\":23810:23837   */\n      0x436f6e747269627574696f6e2074696d65206578706972656400000000000000\n        /* \"#utility.yul\":23806:23807   */\n      0x00\n        /* \"#utility.yul\":23798:23804   */\n      dup3\n        /* \"#utility.yul\":23794:23808   */\n      add\n        /* \"#utility.yul\":23787:23838   */\n      mstore\n        /* \"#utility.yul\":23670:23845   */\n      pop\n      jump\t// out\n        /* \"#utility.yul\":23851:24217   */\n    tag_310:\n        /* \"#utility.yul\":23993:23996   */\n      0x00\n        /* \"#utility.yul\":24014:24081   */\n      tag_553\n        /* \"#utility.yul\":24078:24080   */\n      0x19\n        /* \"#utility.yul\":24073:24076   */\n      dup4\n        /* \"#utility.yul\":24014:24081   */\n      tag_259\n      jump\t// in\n    tag_553:\n        /* \"#utility.yul\":24007:24081   */\n      swap2\n      pop\n        /* \"#utility.yul\":24090:24183   */\n      tag_554\n        /* \"#utility.yul\":24179:24182   */\n      dup3\n        /* \"#utility.yul\":24090:24183   */\n      tag_309\n      jump\t// in\n    tag_554:\n        /* \"#utility.yul\":24208:24210   */\n      0x20\n        /* \"#utility.yul\":24203:24206   */\n      dup3\n        /* \"#utility.yul\":24199:24211   */\n      add\n        /* \"#utility.yul\":24192:24211   */\n      swap1\n      pop\n        /* \"#utility.yul\":23851:24217   */\n      swap2\n      swap1\n      pop\n      jump\t// out\n        /* \"#utility.yul\":24223:24642   */\n    tag_175:\n        /* \"#utility.yul\":24389:24393   */\n      0x00\n        /* \"#utility.yul\":24427:24429   */\n      0x20\n        /* \"#utility.yul\":24416:24425   */\n      dup3\n        /* \"#utility.yul\":24412:24430   */\n      add\n        /* \"#utility.yul\":24404:24430   */\n      swap1\n      pop\n        /* \"#utility.yul\":24476:24485   */\n      dup2\n        /* \"#utility.yul\":24470:24474   */\n      dup2\n        /* \"#utility.yul\":24466:24486   */\n      sub\n        /* \"#utility.yul\":24462:24463   */\n      0x00\n        /* \"#utility.yul\":24451:24460   */\n      dup4\n        /* \"#utility.yul\":24447:24464   */\n      add\n        /* \"#utility.yul\":24440:24487   */\n      mstore\n        /* \"#utility.yul\":24504:24635   */\n      tag_556\n        /* \"#utility.yul\":24630:24634   */\n      dup2\n        /* \"#utility.yul\":24504:24635   */\n      tag_310\n      jump\t// in\n    tag_556:\n        /* \"#utility.yul\":24496:24635   */\n      swap1\n      pop\n        /* \"#utility.yul\":24223:24642   */\n      swap2\n      swap1\n      pop\n      jump\t// out\n        /* \"#utility.yul\":24648:24821   */\n    tag_311:\n        /* \"#utility.yul\":24788:24813   */\n      0x43616e206e6f742073656e64207a65726f206574686572000000000000000000\n        /* \"#utility.yul\":24784:24785   */\n      0x00\n        /* \"#utility.yul\":24776:24782   */\n      dup3\n        /* \"#utility.yul\":24772:24786   */\n      add\n        /* \"#utility.yul\":24765:24814   */\n      mstore\n        /* \"#utility.yul\":24648:24821   */\n      pop\n      jump\t// out\n        /* \"#utility.yul\":24827:25193   */\n    tag_312:\n        /* \"#utility.yul\":24969:24972   */\n      0x00\n        /* \"#utility.yul\":24990:25057   */\n      tag_559\n        /* \"#utility.yul\":25054:25056   */\n      0x17\n        /* \"#utility.yul\":25049:25052   */\n      dup4\n        /* \"#utility.yul\":24990:25057   */\n      tag_259\n      jump\t// in\n    tag_559:\n        /* \"#utility.yul\":24983:25057   */\n      swap2\n      pop\n        /* \"#utility.yul\":25066:25159   */\n      tag_560\n        /* \"#utility.yul\":25155:25158   */\n      dup3\n        /* \"#utility.yul\":25066:25159   */\n      tag_311\n      jump\t// in\n    tag_560:\n        /* \"#utility.yul\":25184:25186   */\n      0x20\n        /* \"#utility.yul\":25179:25182   */\n      dup3\n        /* \"#utility.yul\":25175:25187   */\n      add\n        /* \"#utility.yul\":25168:25187   */\n      swap1\n      pop\n        /* \"#utility.yul\":24827:25193   */\n      swap2\n      swap1\n      pop\n      jump\t// out\n        /* \"#utility.yul\":25199:25618   */\n    tag_178:\n        /* \"#utility.yul\":25365:25369   */\n      0x00\n        /* \"#utility.yul\":25403:25405   */\n      0x20\n        /* \"#utility.yul\":25392:25401   */\n      dup3\n        /* \"#utility.yul\":25388:25406   */\n      add\n        /* \"#utility.yul\":25380:25406   */\n      swap1\n      pop\n        /* \"#utility.yul\":25452:25461   */\n      dup2\n        /* \"#utility.yul\":25446:25450   */\n      dup2\n        /* \"#utility.yul\":25442:25462   */\n      sub\n        /* \"#utility.yul\":25438:25439   */\n      0x00\n        /* \"#utility.yul\":25427:25436   */\n      dup4\n        /* \"#utility.yul\":25423:25440   */\n      add\n        /* \"#utility.yul\":25416:25463   */\n      mstore\n        /* \"#utility.yul\":25480:25611   */\n      tag_562\n        /* \"#utility.yul\":25606:25610   */\n      dup2\n        /* \"#utility.yul\":25480:25611   */\n      tag_312\n      jump\t// in\n    tag_562:\n        /* \"#utility.yul\":25472:25611   */\n      swap1\n      pop\n        /* \"#utility.yul\":25199:25618   */\n      swap2\n      swap1\n      pop\n      jump\t// out\n        /* \"#utility.yul\":25624:25790   */\n    tag_313:\n        /* \"#utility.yul\":25764:25782   */\n      0x4e6f7420656e6f7567682066756e647300000000000000000000000000000000\n        /* \"#utility.yul\":25760:25761   */\n      0x00\n        /* \"#utility.yul\":25752:25758   */\n      dup3\n        /* \"#utility.yul\":25748:25762   */\n      add\n        /* \"#utility.yul\":25741:25783   */\n      mstore\n        /* \"#utility.yul\":25624:25790   */\n      pop\n      jump\t// out\n        /* \"#utility.yul\":25796:26162   */\n    tag_314:\n        /* \"#utility.yul\":25938:25941   */\n      0x00\n        /* \"#utility.yul\":25959:26026   */\n      tag_565\n        /* \"#utility.yul\":26023:26025   */\n      0x10\n        /* \"#utility.yul\":26018:26021   */\n      dup4\n        /* \"#utility.yul\":25959:26026   */\n      tag_259\n      jump\t// in\n    tag_565:\n        /* \"#utility.yul\":25952:26026   */\n      swap2\n      pop\n        /* \"#utility.yul\":26035:26128   */\n      tag_566\n        /* \"#utility.yul\":26124:26127   */\n      dup3\n        /* \"#utility.yul\":26035:26128   */\n      tag_313\n      jump\t// in\n    tag_566:\n        /* \"#utility.yul\":26153:26155   */\n      0x20\n        /* \"#utility.yul\":26148:26151   */\n      dup3\n        /* \"#utility.yul\":26144:26156   */\n      add\n        /* \"#utility.yul\":26137:26156   */\n      swap1\n      pop\n        /* \"#utility.yul\":25796:26162   */\n      swap2\n      swap1\n      pop\n      jump\t// out\n        /* \"#utility.yul\":26168:26587   */\n    tag_186:\n        /* \"#utility.yul\":26334:26338   */\n      0x00\n        /* \"#utility.yul\":26372:26374   */\n      0x20\n        /* \"#utility.yul\":26361:26370   */\n      dup3\n        /* \"#utility.yul\":26357:26375   */\n      add\n        /* \"#utility.yul\":26349:26375   */\n      swap1\n      pop\n        /* \"#utility.yul\":26421:26430   */\n      dup2\n        /* \"#utility.yul\":26415:26419   */\n      dup2\n        /* \"#utility.yul\":26411:26431   */\n      sub\n        /* \"#utility.yul\":26407:26408   */\n      0x00\n        /* \"#utility.yul\":26396:26405   */\n      dup4\n        /* \"#utility.yul\":26392:26409   */\n      add\n        /* \"#utility.yul\":26385:26432   */\n      mstore\n        /* \"#utility.yul\":26449:26580   */\n      tag_568\n        /* \"#utility.yul\":26575:26579   */\n      dup2\n        /* \"#utility.yul\":26449:26580   */\n      tag_314\n      jump\t// in\n    tag_568:\n        /* \"#utility.yul\":26441:26580   */\n      swap1\n      pop\n        /* \"#utility.yul\":26168:26587   */\n      swap2\n      swap1\n      pop\n      jump\t// out\n        /* \"#utility.yul\":26593:26773   */\n    tag_195:\n        /* \"#utility.yul\":26641:26718   */\n      0x4e487b7100000000000000000000000000000000000000000000000000000000\n        /* \"#utility.yul\":26638:26639   */\n      0x00\n        /* \"#utility.yul\":26631:26719   */\n      mstore\n        /* \"#utility.yul\":26738:26742   */\n      0x41\n        /* \"#utility.yul\":26735:26736   */\n      0x04\n        /* \"#utility.yul\":26728:26743   */\n      mstore\n        /* \"#utility.yul\":26762:26766   */\n      0x24\n        /* \"#utility.yul\":26759:26760   */\n      0x00\n        /* \"#utility.yul\":26752:26767   */\n      revert\n        /* \"#utility.yul\":26779:26920   */\n    tag_315:\n        /* \"#utility.yul\":26828:26832   */\n      0x00\n        /* \"#utility.yul\":26851:26854   */\n      dup2\n        /* \"#utility.yul\":26843:26854   */\n      swap1\n      pop\n        /* \"#utility.yul\":26874:26877   */\n      dup2\n        /* \"#utility.yul\":26871:26872   */\n      0x00\n        /* \"#utility.yul\":26864:26878   */\n      mstore\n        /* \"#utility.yul\":26908:26912   */\n      0x20\n        /* \"#utility.yul\":26905:26906   */\n      0x00\n        /* \"#utility.yul\":26895:26913   */\n      keccak256\n        /* \"#utility.yul\":26887:26913   */\n      swap1\n      pop\n        /* \"#utility.yul\":26779:26920   */\n      swap2\n      swap1\n      pop\n      jump\t// out\n        /* \"#utility.yul\":26926:27019   */\n    tag_316:\n        /* \"#utility.yul\":26963:26969   */\n      0x00\n        /* \"#utility.yul\":27010:27012   */\n      0x20\n        /* \"#utility.yul\":27005:27007   */\n      0x1f\n        /* \"#utility.yul\":26998:27003   */\n      dup4\n        /* \"#utility.yul\":26994:27008   */\n      add\n        /* \"#utility.yul\":26990:27013   */\n      div\n        /* \"#utility.yul\":26980:27013   */\n      swap1\n      pop\n        /* \"#utility.yul\":26926:27019   */\n      swap2\n      swap1\n      pop\n      jump\t// out\n        /* \"#utility.yul\":27025:27132   */\n    tag_317:\n        /* \"#utility.yul\":27069:27077   */\n      0x00\n        /* \"#utility.yul\":27119:27124   */\n      dup3\n        /* \"#utility.yul\":27113:27117   */\n      dup3\n        /* \"#utility.yul\":27109:27125   */\n      shl\n        /* \"#utility.yul\":27088:27125   */\n      swap1\n      pop\n        /* \"#utility.yul\":27025:27132   */\n      swap3\n      swap2\n      pop\n      pop\n      jump\t// out\n        /* \"#utility.yul\":27138:27531   */\n    tag_318:\n        /* \"#utility.yul\":27207:27213   */\n      0x00\n        /* \"#utility.yul\":27257:27258   */\n      0x08\n        /* \"#utility.yul\":27245:27255   */\n      dup4\n        /* \"#utility.yul\":27241:27259   */\n      mul\n        /* \"#utility.yul\":27280:27377   */\n      tag_574\n        /* \"#utility.yul\":27310:27376   */\n      0xffffffffffffffffffffffffffffffffffffffffffffffffffffffffffffffff\n        /* \"#utility.yul\":27299:27308   */\n      dup3\n        /* \"#utility.yul\":27280:27377   */\n      tag_317\n      jump\t// in\n    tag_574:\n        /* \"#utility.yul\":27398:27437   */\n      tag_575\n        /* \"#utility.yul\":27428:27436   */\n      dup7\n        /* \"#utility.yul\":27417:27426   */\n      dup4\n        /* \"#utility.yul\":27398:27437   */\n      tag_317\n      jump\t// in\n    tag_575:\n        /* \"#utility.yul\":27386:27437   */\n      swap6\n      pop\n        /* \"#utility.yul\":27470:27474   */\n      dup1\n        /* \"#utility.yul\":27466:27475   */\n      not\n        /* \"#utility.yul\":27459:27464   */\n      dup5\n        /* \"#utility.yul\":27455:27476   */\n      and\n        /* \"#utility.yul\":27446:27476   */\n      swap4\n      pop\n        /* \"#utility.yul\":27519:27523   */\n      dup1\n        /* \"#utility.yul\":27509:27517   */\n      dup7\n        /* \"#utility.yul\":27505:27524   */\n      and\n        /* \"#utility.yul\":27498:27503   */\n      dup5\n        /* \"#utility.yul\":27495:27525   */\n      or\n        /* \"#utility.yul\":27485:27525   */\n      swap3\n      pop\n        /* \"#utility.yul\":27214:27531   */\n      pop\n      pop\n        /* \"#utility.yul\":27138:27531   */\n      swap4\n      swap3\n      pop\n      pop\n      pop\n      jump\t// out\n        /* \"#utility.yul\":27537:27597   */\n    tag_319:\n        /* \"#utility.yul\":27565:27568   */\n      0x00\n        /* \"#utility.yul\":27586:27591   */\n      dup2\n        /* \"#utility.yul\":27579:27591   */\n      swap1\n      pop\n        /* \"#utility.yul\":27537:27597   */\n      swap2\n      swap1\n      pop\n      jump\t// out\n        /* \"#utility.yul\":27603:27745   */\n    tag_320:\n        /* \"#utility.yul\":27653:27662   */\n      0x00\n        /* \"#utility.yul\":27686:27739   */\n      tag_578\n        /* \"#utility.yul\":27704:27738   */\n      tag_579\n        /* \"#utility.yul\":27713:27737   */\n      tag_580\n        /* \"#utility.yul\":27731:27736   */\n      dup5\n        /* \"#utility.yul\":27713:27737   */\n      tag_254\n      jump\t// in\n    tag_580:\n        /* \"#utility.yul\":27704:27738   */\n      tag_319\n      jump\t// in\n    tag_579:\n        /* \"#utility.yul\":27686:27739   */\n      tag_254\n      jump\t// in\n    tag_578:\n        /* \"#utility.yul\":27673:27739   */\n      swap1\n      pop\n        /* \"#utility.yul\":27603:27745   */\n      swap2\n      swap1\n      pop\n      jump\t// out\n        /* \"#utility.yul\":27751:27826   */\n    tag_321:\n        /* \"#utility.yul\":27794:27797   */\n      0x00\n        /* \"#utility.yul\":27815:27820   */\n      dup2\n        /* \"#utility.yul\":27808:27820   */\n      swap1\n      pop\n        /* \"#utility.yul\":27751:27826   */\n      swap2\n      swap1\n      pop\n      jump\t// out\n        /* \"#utility.yul\":27832:28101   */\n    tag_322:\n        /* \"#utility.yul\":27942:27981   */\n      tag_583\n        /* \"#utility.yul\":27973:27980   */\n      dup4\n        /* \"#utility.yul\":27942:27981   */\n      tag_320\n      jump\t// in\n    tag_583:\n        /* \"#utility.yul\":28003:28094   */\n      tag_584\n        /* \"#utility.yul\":28052:28093   */\n      tag_585\n        /* \"#utility.yul\":28076:28092   */\n      dup3\n        /* \"#utility.yul\":28052:28093   */\n      tag_321\n      jump\t// in\n    tag_585:\n        /* \"#utility.yul\":28044:28050   */\n      dup5\n        /* \"#utility.yul\":28037:28041   */\n      dup5\n        /* \"#utility.yul\":28031:28042   */\n      sload\n        /* \"#utility.yul\":28003:28094   */\n      tag_318\n      jump\t// in\n    tag_584:\n        /* \"#utility.yul\":27997:28001   */\n      dup3\n        /* \"#utility.yul\":27990:28095   */\n      sstore\n        /* \"#utility.yul\":27908:28101   */\n      pop\n        /* \"#utility.yul\":27832:28101   */\n      pop\n      pop\n      pop\n      jump\t// out\n        /* \"#utility.yul\":28107:28180   */\n    tag_323:\n        /* \"#utility.yul\":28152:28155   */\n      0x00\n        /* \"#utility.yul\":28107:28180   */\n      swap1\n      jump\t// out\n        /* \"#utility.yul\":28186:28375   */\n    tag_324:\n        /* \"#utility.yul\":28263:28295   */\n      tag_588\n      tag_323\n      jump\t// in\n    tag_588:\n        /* \"#utility.yul\":28304:28369   */\n      tag_589\n        /* \"#utility.yul\":28362:28368   */\n      dup2\n        /* \"#utility.yul\":28354:28360   */\n      dup5\n        /* \"#utility.yul\":28348:28352   */\n      dup5\n        /* \"#utility.yul\":28304:28369   */\n      tag_322\n      jump\t// in\n    tag_589:\n        /* \"#utility.yul\":28239:28375   */\n      pop\n        /* \"#utility.yul\":28186:28375   */\n      pop\n      pop\n      jump\t// out\n        /* \"#utility.yul\":28381:28567   */\n    tag_325:\n        /* \"#utility.yul\":28441:28561   */\n    tag_591:\n        /* \"#utility.yul\":28458:28461   */\n      dup2\n        /* \"#utility.yul\":28451:28456   */\n      dup2\n        /* \"#utility.yul\":28448:28462   */\n      lt\n        /* \"#utility.yul\":28441:28561   */\n      iszero\n      tag_593\n      jumpi\n        /* \"#utility.yul\":28512:28551   */\n      tag_594\n        /* \"#utility.yul\":28549:28550   */\n      0x00\n        /* \"#utility.yul\":28542:28547   */\n      dup3\n        /* \"#utility.yul\":28512:28551   */\n      tag_324\n      jump\t// in\n    tag_594:\n        /* \"#utility.yul\":28485:28486   */\n      0x01\n        /* \"#utility.yul\":28478:28483   */\n      dup2\n        /* \"#utility.yul\":28474:28487   */\n      add\n        /* \"#utility.yul\":28465:28487   */\n      swap1\n      pop\n        /* \"#utility.yul\":28441:28561   */\n      jump(tag_591)\n    tag_593:\n        /* \"#utility.yul\":28381:28567   */\n      pop\n      pop\n      jump\t// out\n        /* \"#utility.yul\":28573:29116   */\n    tag_326:\n        /* \"#utility.yul\":28674:28676   */\n      0x1f\n        /* \"#utility.yul\":28669:28672   */\n      dup3\n        /* \"#utility.yul\":28666:28677   */\n      gt\n        /* \"#utility.yul\":28663:29109   */\n      iszero\n      tag_596\n      jumpi\n        /* \"#utility.yul\":28708:28746   */\n      tag_597\n        /* \"#utility.yul\":28740:28745   */\n      dup2\n        /* \"#utility.yul\":28708:28746   */\n      tag_315\n      jump\t// in\n    tag_597:\n        /* \"#utility.yul\":28792:28821   */\n      tag_598\n        /* \"#utility.yul\":28810:28820   */\n      dup5\n        /* \"#utility.yul\":28792:28821   */\n      tag_316\n      jump\t// in\n    tag_598:\n        /* \"#utility.yul\":28782:28790   */\n      dup2\n        /* \"#utility.yul\":28778:28822   */\n      add\n        /* \"#utility.yul\":28975:28977   */\n      0x20\n        /* \"#utility.yul\":28963:28973   */\n      dup6\n        /* \"#utility.yul\":28960:28978   */\n      lt\n        /* \"#utility.yul\":28957:29006   */\n      iszero\n      tag_599\n      jumpi\n        /* \"#utility.yul\":28996:29004   */\n      dup2\n        /* \"#utility.yul\":28981:29004   */\n      swap1\n      pop\n        /* \"#utility.yul\":28957:29006   */\n    tag_599:\n        /* \"#utility.yul\":29019:29099   */\n      tag_600\n        /* \"#utility.yul\":29075:29097   */\n      tag_601\n        /* \"#utility.yul\":29093:29096   */\n      dup6\n        /* \"#utility.yul\":29075:29097   */\n      tag_316\n      jump\t// in\n    tag_601:\n        /* \"#utility.yul\":29065:29073   */\n      dup4\n        /* \"#utility.yul\":29061:29098   */\n      add\n        /* \"#utility.yul\":29048:29059   */\n      dup3\n        /* \"#utility.yul\":29019:29099   */\n      tag_325\n      jump\t// in\n    tag_600:\n        /* \"#utility.yul\":28678:29109   */\n      pop\n      pop\n        /* \"#utility.yul\":28663:29109   */\n    tag_596:\n        /* \"#utility.yul\":28573:29116   */\n      pop\n      pop\n      pop\n      jump\t// out\n        /* \"#utility.yul\":29122:29239   */\n    tag_327:\n        /* \"#utility.yul\":29176:29184   */\n      0x00\n        /* \"#utility.yul\":29226:29231   */\n      dup3\n        /* \"#utility.yul\":29220:29224   */\n      dup3\n        /* \"#utility.yul\":29216:29232   */\n      shr\n        /* \"#utility.yul\":29195:29232   */\n      swap1\n      pop\n        /* \"#utility.yul\":29122:29239   */\n      swap3\n      swap2\n      pop\n      pop\n      jump\t// out\n        /* \"#utility.yul\":29245:29414   */\n    tag_328:\n        /* \"#utility.yul\":29289:29295   */\n      0x00\n        /* \"#utility.yul\":29322:29373   */\n      tag_604\n        /* \"#utility.yul\":29370:29371   */\n      0x00\n        /* \"#utility.yul\":29366:29372   */\n      not\n        /* \"#utility.yul\":29358:29363   */\n      dup5\n        /* \"#utility.yul\":29355:29356   */\n      0x08\n        /* \"#utility.yul\":29351:29364   */\n      mul\n        /* \"#utility.yul\":29322:29373   */\n      tag_327\n      jump\t// in\n    tag_604:\n        /* \"#utility.yul\":29318:29374   */\n      not\n        /* \"#utility.yul\":29403:29407   */\n      dup1\n        /* \"#utility.yul\":29397:29401   */\n      dup4\n        /* \"#utility.yul\":29393:29408   */\n      and\n        /* \"#utility.yul\":29383:29408   */\n      swap2\n      pop\n        /* \"#utility.yul\":29296:29414   */\n      pop\n        /* \"#utility.yul\":29245:29414   */\n      swap3\n      swap2\n      pop\n      pop\n      jump\t// out\n        /* \"#utility.yul\":29419:29714   */\n    tag_329:\n        /* \"#utility.yul\":29495:29499   */\n      0x00\n        /* \"#utility.yul\":29641:29670   */\n      tag_606\n        /* \"#utility.yul\":29666:29669   */\n      dup4\n        /* \"#utility.yul\":29660:29664   */\n      dup4\n        /* \"#utility.yul\":29641:29670   */\n      tag_328\n      jump\t// in\n    tag_606:\n        /* \"#utility.yul\":29633:29670   */\n      swap2\n      pop\n        /* \"#utility.yul\":29703:29706   */\n      dup3\n        /* \"#utility.yul\":29700:29701   */\n      0x02\n        /* \"#utility.yul\":29696:29707   */\n      mul\n        /* \"#utility.yul\":29690:29694   */\n      dup3\n        /* \"#utility.yul\":29687:29708   */\n      or\n        /* \"#utility.yul\":29679:29708   */\n      swap1\n      pop\n        /* \"#utility.yul\":29419:29714   */\n      swap3\n      swap2\n      pop\n      pop\n      jump\t// out\n        /* \"#utility.yul\":29719:31114   */\n    tag_189:\n        /* \"#utility.yul\":29836:29873   */\n      tag_608\n        /* \"#utility.yul\":29869:29872   */\n      dup3\n        /* \"#utility.yul\":29836:29873   */\n      tag_258\n      jump\t// in\n    tag_608:\n        /* \"#utility.yul\":29938:29956   */\n      0xffffffffffffffff\n        /* \"#utility.yul\":29930:29936   */\n      dup2\n        /* \"#utility.yul\":29927:29957   */\n      gt\n        /* \"#utility.yul\":29924:29980   */\n      iszero\n      tag_609\n      jumpi\n        /* \"#utility.yul\":29960:29978   */\n      tag_610\n      tag_195\n      jump\t// in\n    tag_610:\n        /* \"#utility.yul\":29924:29980   */\n    tag_609:\n        /* \"#utility.yul\":30004:30042   */\n      tag_611\n        /* \"#utility.yul\":30036:30040   */\n      dup3\n        /* \"#utility.yul\":30030:30041   */\n      sload\n        /* \"#utility.yul\":30004:30042   */\n      tag_118\n      jump\t// in\n    tag_611:\n        /* \"#utility.yul\":30089:30156   */\n      tag_612\n        /* \"#utility.yul\":30149:30155   */\n      dup3\n        /* \"#utility.yul\":30141:30147   */\n      dup3\n        /* \"#utility.yul\":30135:30139   */\n      dup6\n        /* \"#utility.yul\":30089:30156   */\n      tag_326\n      jump\t// in\n    tag_612:\n        /* \"#utility.yul\":30183:30184   */\n      0x00\n        /* \"#utility.yul\":30207:30211   */\n      0x20\n        /* \"#utility.yul\":30194:30211   */\n      swap1\n      pop\n        /* \"#utility.yul\":30239:30241   */\n      0x1f\n        /* \"#utility.yul\":30231:30237   */\n      dup4\n        /* \"#utility.yul\":30228:30242   */\n      gt\n        /* \"#utility.yul\":30256:30257   */\n      0x01\n        /* \"#utility.yul\":30251:30869   */\n      dup2\n      eq\n      tag_614\n      jumpi\n        /* \"#utility.yul\":30913:30914   */\n      0x00\n        /* \"#utility.yul\":30930:30936   */\n      dup5\n        /* \"#utility.yul\":30927:31004   */\n      iszero\n      tag_615\n      jumpi\n        /* \"#utility.yul\":30979:30988   */\n      dup3\n        /* \"#utility.yul\":30974:30977   */\n      dup8\n        /* \"#utility.yul\":30970:30989   */\n      add\n        /* \"#utility.yul\":30964:30990   */\n      mload\n        /* \"#utility.yul\":30955:30990   */\n      swap1\n      pop\n        /* \"#utility.yul\":30927:31004   */\n    tag_615:\n        /* \"#utility.yul\":31030:31097   */\n      tag_616\n        /* \"#utility.yul\":31090:31096   */\n      dup6\n        /* \"#utility.yul\":31083:31088   */\n      dup3\n        /* \"#utility.yul\":31030:31097   */\n      tag_329\n      jump\t// in\n    tag_616:\n        /* \"#utility.yul\":31024:31028   */\n      dup7\n        /* \"#utility.yul\":31017:31098   */\n      sstore\n        /* \"#utility.yul\":30886:31108   */\n      pop\n        /* \"#utility.yul\":30221:31108   */\n      jump(tag_613)\n        /* \"#utility.yul\":30251:30869   */\n    tag_614:\n        /* \"#utility.yul\":30303:30307   */\n      0x1f\n        /* \"#utility.yul\":30299:30308   */\n      not\n        /* \"#utility.yul\":30291:30297   */\n      dup5\n        /* \"#utility.yul\":30287:30309   */\n      and\n        /* \"#utility.yul\":30337:30374   */\n      tag_617\n        /* \"#utility.yul\":30369:30373   */\n      dup7\n        /* \"#utility.yul\":30337:30374   */\n      tag_315\n      jump\t// in\n    tag_617:\n        /* \"#utility.yul\":30396:30397   */\n      0x00\n        /* \"#utility.yul\":30410:30618   */\n    tag_618:\n        /* \"#utility.yul\":30424:30431   */\n      dup3\n        /* \"#utility.yul\":30421:30422   */\n      dup2\n        /* \"#utility.yul\":30418:30432   */\n      lt\n        /* \"#utility.yul\":30410:30618   */\n      iszero\n      tag_620\n      jumpi\n        /* \"#utility.yul\":30503:30512   */\n      dup5\n        /* \"#utility.yul\":30498:30501   */\n      dup10\n        /* \"#utility.yul\":30494:30513   */\n      add\n        /* \"#utility.yul\":30488:30514   */\n      mload\n        /* \"#utility.yul\":30480:30486   */\n      dup3\n        /* \"#utility.yul\":30473:30515   */\n      sstore\n        /* \"#utility.yul\":30554:30555   */\n      0x01\n        /* \"#utility.yul\":30546:30552   */\n      dup3\n        /* \"#utility.yul\":30542:30556   */\n      add\n        /* \"#utility.yul\":30532:30556   */\n      swap2\n      pop\n        /* \"#utility.yul\":30601:30603   */\n      0x20\n        /* \"#utility.yul\":30590:30599   */\n      dup6\n        /* \"#utility.yul\":30586:30604   */\n      add\n        /* \"#utility.yul\":30573:30604   */\n      swap5\n      pop\n        /* \"#utility.yul\":30447:30451   */\n      0x20\n        /* \"#utility.yul\":30444:30445   */\n      dup2\n        /* \"#utility.yul\":30440:30452   */\n      add\n        /* \"#utility.yul\":30435:30452   */\n      swap1\n      pop\n        /* \"#utility.yul\":30410:30618   */\n      jump(tag_618)\n    tag_620:\n        /* \"#utility.yul\":30646:30652   */\n      dup7\n        /* \"#utility.yul\":30637:30644   */\n      dup4\n        /* \"#utility.yul\":30634:30653   */\n      lt\n        /* \"#utility.yul\":30631:30810   */\n      iszero\n      tag_621\n      jumpi\n        /* \"#utility.yul\":30704:30713   */\n      dup5\n        /* \"#utility.yul\":30699:30702   */\n      dup10\n        /* \"#utility.yul\":30695:30714   */\n      add\n        /* \"#utility.yul\":30689:30715   */\n      mload\n        /* \"#utility.yul\":30747:30795   */\n      tag_622\n        /* \"#utility.yul\":30789:30793   */\n      0x1f\n        /* \"#utility.yul\":30781:30787   */\n      dup10\n        /* \"#utility.yul\":30777:30794   */\n      and\n        /* \"#utility.yul\":30766:30775   */\n      dup3\n        /* \"#utility.yul\":30747:30795   */\n      tag_328\n      jump\t// in\n    tag_622:\n        /* \"#utility.yul\":30739:30745   */\n      dup4\n        /* \"#utility.yul\":30732:30796   */\n      sstore\n        /* \"#utility.yul\":30654:30810   */\n      pop\n        /* \"#utility.yul\":30631:30810   */\n    tag_621:\n        /* \"#utility.yul\":30856:30857   */\n      0x01\n        /* \"#utility.yul\":30852:30853   */\n      0x02\n        /* \"#utility.yul\":30844:30850   */\n      dup9\n        /* \"#utility.yul\":30840:30854   */\n      mul\n        /* \"#utility.yul\":30836:30858   */\n      add\n        /* \"#utility.yul\":30830:30834   */\n      dup9\n        /* \"#utility.yul\":30823:30859   */\n      sstore\n        /* \"#utility.yul\":30258:30869   */\n      pop\n      pop\n      pop\n        /* \"#utility.yul\":30221:31108   */\n    tag_613:\n      pop\n        /* \"#utility.yul\":29811:31114   */\n      pop\n      pop\n      pop\n        /* \"#utility.yul\":29719:31114   */\n      pop\n      pop\n      jump\t// out\n        /* \"#utility.yul\":31120:31353   */\n    tag_191:\n        /* \"#utility.yul\":31159:31162   */\n      0x00\n        /* \"#utility.yul\":31182:31206   */\n      tag_624\n        /* \"#utility.yul\":31200:31205   */\n      dup3\n        /* \"#utility.yul\":31182:31206   */\n      tag_254\n      jump\t// in\n    tag_624:\n        /* \"#utility.yul\":31173:31206   */\n      swap2\n      pop\n        /* \"#utility.yul\":31228:31294   */\n      0xffffffffffffffffffffffffffffffffffffffffffffffffffffffffffffffff\n        /* \"#utility.yul\":31221:31226   */\n      dup3\n        /* \"#utility.yul\":31218:31295   */\n      sub\n        /* \"#utility.yul\":31215:31318   */\n      tag_625\n      jumpi\n        /* \"#utility.yul\":31298:31316   */\n      tag_626\n      tag_293\n      jump\t// in\n    tag_626:\n        /* \"#utility.yul\":31215:31318   */\n    tag_625:\n        /* \"#utility.yul\":31345:31346   */\n      0x01\n        /* \"#utility.yul\":31338:31343   */\n      dup3\n        /* \"#utility.yul\":31334:31347   */\n      add\n        /* \"#utility.yul\":31327:31347   */\n      swap1\n      pop\n        /* \"#utility.yul\":31120:31353   */\n      swap2\n      swap1\n      pop\n      jump\t// out\n        /* \"#utility.yul\":31359:31539   */\n    tag_210:\n        /* \"#utility.yul\":31407:31484   */\n      0x4e487b7100000000000000000000000000000000000000000000000000000000\n        /* \"#utility.yul\":31404:31405   */\n      0x00\n        /* \"#utility.yul\":31397:31485   */\n      mstore\n        /* \"#utility.yul\":31504:31508   */\n      0x32\n        /* \"#utility.yul\":31501:31502   */\n      0x04\n        /* \"#utility.yul\":31494:31509   */\n      mstore\n        /* \"#utility.yul\":31528:31532   */\n      0x24\n        /* \"#utility.yul\":31525:31526   */\n      0x00\n        /* \"#utility.yul\":31518:31533   */\n      revert\n        /* \"#utility.yul\":31545:31772   */\n    tag_330:\n        /* \"#utility.yul\":31685:31719   */\n      0x596f75206861766520616c726561647920766f74656420666f72207468697320\n        /* \"#utility.yul\":31681:31682   */\n      0x00\n        /* \"#utility.yul\":31673:31679   */\n      dup3\n        /* \"#utility.yul\":31669:31683   */\n      add\n        /* \"#utility.yul\":31662:31720   */\n      mstore\n        /* \"#utility.yul\":31754:31764   */\n      0x70726f706f73616c000000000000000000000000000000000000000000000000\n        /* \"#utility.yul\":31749:31751   */\n      0x20\n        /* \"#utility.yul\":31741:31747   */\n      dup3\n        /* \"#utility.yul\":31737:31752   */\n      add\n        /* \"#utility.yul\":31730:31765   */\n      mstore\n        /* \"#utility.yul\":31545:31772   */\n      pop\n      jump\t// out\n        /* \"#utility.yul\":31778:32144   */\n    tag_331:\n        /* \"#utility.yul\":31920:31923   */\n      0x00\n        /* \"#utility.yul\":31941:32008   */\n      tag_630\n        /* \"#utility.yul\":32005:32007   */\n      0x28\n        /* \"#utility.yul\":32000:32003   */\n      dup4\n        /* \"#utility.yul\":31941:32008   */\n      tag_259\n      jump\t// in\n    tag_630:\n        /* \"#utility.yul\":31934:32008   */\n      swap2\n      pop\n        /* \"#utility.yul\":32017:32110   */\n      tag_631\n        /* \"#utility.yul\":32106:32109   */\n      dup3\n        /* \"#utility.yul\":32017:32110   */\n      tag_330\n      jump\t// in\n    tag_631:\n        /* \"#utility.yul\":32135:32137   */\n      0x40\n        /* \"#utility.yul\":32130:32133   */\n      dup3\n        /* \"#utility.yul\":32126:32138   */\n      add\n        /* \"#utility.yul\":32119:32138   */\n      swap1\n      pop\n        /* \"#utility.yul\":31778:32144   */\n      swap2\n      swap1\n      pop\n      jump\t// out\n        /* \"#utility.yul\":32150:32569   */\n    tag_218:\n        /* \"#utility.yul\":32316:32320   */\n      0x00\n        /* \"#utility.yul\":32354:32356   */\n      0x20\n        /* \"#utility.yul\":32343:32352   */\n      dup3\n        /* \"#utility.yul\":32339:32357   */\n      add\n        /* \"#utility.yul\":32331:32357   */\n      swap1\n      pop\n        /* \"#utility.yul\":32403:32412   */\n      dup2\n        /* \"#utility.yul\":32397:32401   */\n      dup2\n        /* \"#utility.yul\":32393:32413   */\n      sub\n        /* \"#utility.yul\":32389:32390   */\n      0x00\n        /* \"#utility.yul\":32378:32387   */\n      dup4\n        /* \"#utility.yul\":32374:32391   */\n      add\n        /* \"#utility.yul\":32367:32414   */\n      mstore\n        /* \"#utility.yul\":32431:32562   */\n      tag_633\n        /* \"#utility.yul\":32557:32561   */\n      dup2\n        /* \"#utility.yul\":32431:32562   */\n      tag_331\n      jump\t// in\n    tag_633:\n        /* \"#utility.yul\":32423:32562   */\n      swap1\n      pop\n        /* \"#utility.yul\":32150:32569   */\n      swap2\n      swap1\n      pop\n      jump\t// out\n        /* \"#utility.yul\":32575:32742   */\n    tag_332:\n        /* \"#utility.yul\":32715:32734   */\n      0x566f74696e672054696d6520456e646564000000000000000000000000000000\n        /* \"#utility.yul\":32711:32712   */\n      0x00\n        /* \"#utility.yul\":32703:32709   */\n      dup3\n        /* \"#utility.yul\":32699:32713   */\n      add\n        /* \"#utility.yul\":32692:32735   */\n      mstore\n        /* \"#utility.yul\":32575:32742   */\n      pop\n      jump\t// out\n        /* \"#utility.yul\":32748:33114   */\n    tag_333:\n        /* \"#utility.yul\":32890:32893   */\n      0x00\n        /* \"#utility.yul\":32911:32978   */\n      tag_636\n        /* \"#utility.yul\":32975:32977   */\n      0x11\n        /* \"#utility.yul\":32970:32973   */\n      dup4\n        /* \"#utility.yul\":32911:32978   */\n      tag_259\n      jump\t// in\n    tag_636:\n        /* \"#utility.yul\":32904:32978   */\n      swap2\n      pop\n        /* \"#utility.yul\":32987:33080   */\n      tag_637\n        /* \"#utility.yul\":33076:33079   */\n      dup3\n        /* \"#utility.yul\":32987:33080   */\n      tag_332\n      jump\t// in\n    tag_637:\n        /* \"#utility.yul\":33105:33107   */\n      0x20\n        /* \"#utility.yul\":33100:33103   */\n      dup3\n        /* \"#utility.yul\":33096:33108   */\n      add\n        /* \"#utility.yul\":33089:33108   */\n      swap1\n      pop\n        /* \"#utility.yul\":32748:33114   */\n      swap2\n      swap1\n      pop\n      jump\t// out\n        /* \"#utility.yul\":33120:33539   */\n    tag_221:\n        /* \"#utility.yul\":33286:33290   */\n      0x00\n        /* \"#utility.yul\":33324:33326   */\n      0x20\n        /* \"#utility.yul\":33313:33322   */\n      dup3\n        /* \"#utility.yul\":33309:33327   */\n      add\n        /* \"#utility.yul\":33301:33327   */\n      swap1\n      pop\n        /* \"#utility.yul\":33373:33382   */\n      dup2\n        /* \"#utility.yul\":33367:33371   */\n      dup2\n        /* \"#utility.yul\":33363:33383   */\n      sub\n        /* \"#utility.yul\":33359:33360   */\n      0x00\n        /* \"#utility.yul\":33348:33357   */\n      dup4\n        /* \"#utility.yul\":33344:33361   */\n      add\n        /* \"#utility.yul\":33337:33384   */\n      mstore\n        /* \"#utility.yul\":33401:33532   */\n      tag_639\n        /* \"#utility.yul\":33527:33531   */\n      dup2\n        /* \"#utility.yul\":33401:33532   */\n      tag_333\n      jump\t// in\n    tag_639:\n        /* \"#utility.yul\":33393:33532   */\n      swap1\n      pop\n        /* \"#utility.yul\":33120:33539   */\n      swap2\n      swap1\n      pop\n      jump\t// out\n        /* \"#utility.yul\":33545:33717   */\n    tag_334:\n        /* \"#utility.yul\":33685:33709   */\n      0x497420697320616c726561647920457865637574656400000000000000000000\n        /* \"#utility.yul\":33681:33682   */\n      0x00\n        /* \"#utility.yul\":33673:33679   */\n      dup3\n        /* \"#utility.yul\":33669:33683   */\n      add\n        /* \"#utility.yul\":33662:33710   */\n      mstore\n        /* \"#utility.yul\":33545:33717   */\n      pop\n      jump\t// out\n        /* \"#utility.yul\":33723:34089   */\n    tag_335:\n        /* \"#utility.yul\":33865:33868   */\n      0x00\n        /* \"#utility.yul\":33886:33953   */\n      tag_642\n        /* \"#utility.yul\":33950:33952   */\n      0x16\n        /* \"#utility.yul\":33945:33948   */\n      dup4\n        /* \"#utility.yul\":33886:33953   */\n      tag_259\n      jump\t// in\n    tag_642:\n        /* \"#utility.yul\":33879:33953   */\n      swap2\n      pop\n        /* \"#utility.yul\":33962:34055   */\n      tag_643\n        /* \"#utility.yul\":34051:34054   */\n      dup3\n        /* \"#utility.yul\":33962:34055   */\n      tag_334\n      jump\t// in\n    tag_643:\n        /* \"#utility.yul\":34080:34082   */\n      0x20\n        /* \"#utility.yul\":34075:34078   */\n      dup3\n        /* \"#utility.yul\":34071:34083   */\n      add\n        /* \"#utility.yul\":34064:34083   */\n      swap1\n      pop\n        /* \"#utility.yul\":33723:34089   */\n      swap2\n      swap1\n      pop\n      jump\t// out\n        /* \"#utility.yul\":34095:34514   */\n    tag_224:\n        /* \"#utility.yul\":34261:34265   */\n      0x00\n        /* \"#utility.yul\":34299:34301   */\n      0x20\n        /* \"#utility.yul\":34288:34297   */\n      dup3\n        /* \"#utility.yul\":34284:34302   */\n      add\n        /* \"#utility.yul\":34276:34302   */\n      swap1\n      pop\n        /* \"#utility.yul\":34348:34357   */\n      dup2\n        /* \"#utility.yul\":34342:34346   */\n      dup2\n        /* \"#utility.yul\":34338:34358   */\n      sub\n        /* \"#utility.yul\":34334:34335   */\n      0x00\n        /* \"#utility.yul\":34323:34332   */\n      dup4\n        /* \"#utility.yul\":34319:34336   */\n      add\n        /* \"#utility.yul\":34312:34359   */\n      mstore\n        /* \"#utility.yul\":34376:34507   */\n      tag_645\n        /* \"#utility.yul\":34502:34506   */\n      dup2\n        /* \"#utility.yul\":34376:34507   */\n      tag_335\n      jump\t// in\n    tag_645:\n        /* \"#utility.yul\":34368:34507   */\n      swap1\n      pop\n        /* \"#utility.yul\":34095:34514   */\n      swap2\n      swap1\n      pop\n      jump\t// out\n        /* \"#utility.yul\":34520:34698   */\n    tag_336:\n        /* \"#utility.yul\":34660:34690   */\n      0x43616e63616c6174696f6e2074696d6520686173206578706972656400000000\n        /* \"#utility.yul\":34656:34657   */\n      0x00\n        /* \"#utility.yul\":34648:34654   */\n      dup3\n        /* \"#utility.yul\":34644:34658   */\n      add\n        /* \"#utility.yul\":34637:34691   */\n      mstore\n        /* \"#utility.yul\":34520:34698   */\n      pop\n      jump\t// out\n        /* \"#utility.yul\":34704:35070   */\n    tag_337:\n        /* \"#utility.yul\":34846:34849   */\n      0x00\n        /* \"#utility.yul\":34867:34934   */\n      tag_648\n        /* \"#utility.yul\":34931:34933   */\n      0x1c\n        /* \"#utility.yul\":34926:34929   */\n      dup4\n        /* \"#utility.yul\":34867:34934   */\n      tag_259\n      jump\t// in\n    tag_648:\n        /* \"#utility.yul\":34860:34934   */\n      swap2\n      pop\n        /* \"#utility.yul\":34943:35036   */\n      tag_649\n        /* \"#utility.yul\":35032:35035   */\n      dup3\n        /* \"#utility.yul\":34943:35036   */\n      tag_336\n      jump\t// in\n    tag_649:\n        /* \"#utility.yul\":35061:35063   */\n      0x20\n        /* \"#utility.yul\":35056:35059   */\n      dup3\n        /* \"#utility.yul\":35052:35064   */\n      add\n        /* \"#utility.yul\":35045:35064   */\n      swap1\n      pop\n        /* \"#utility.yul\":34704:35070   */\n      swap2\n      swap1\n      pop\n      jump\t// out\n        /* \"#utility.yul\":35076:35495   */\n    tag_234:\n        /* \"#utility.yul\":35242:35246   */\n      0x00\n        /* \"#utility.yul\":35280:35282   */\n      0x20\n        /* \"#utility.yul\":35269:35278   */\n      dup3\n        /* \"#utility.yul\":35265:35283   */\n      add\n        /* \"#utility.yul\":35257:35283   */\n      swap1\n      pop\n        /* \"#utility.yul\":35329:35338   */\n      dup2\n        /* \"#utility.yul\":35323:35327   */\n      dup2\n        /* \"#utility.yul\":35319:35339   */\n      sub\n        /* \"#utility.yul\":35315:35316   */\n      0x00\n        /* \"#utility.yul\":35304:35313   */\n      dup4\n        /* \"#utility.yul\":35300:35317   */\n      add\n        /* \"#utility.yul\":35293:35340   */\n      mstore\n        /* \"#utility.yul\":35357:35488   */\n      tag_651\n        /* \"#utility.yul\":35483:35487   */\n      dup2\n        /* \"#utility.yul\":35357:35488   */\n      tag_337\n      jump\t// in\n    tag_651:\n        /* \"#utility.yul\":35349:35488   */\n      swap1\n      pop\n        /* \"#utility.yul\":35076:35495   */\n      swap2\n      swap1\n      pop\n      jump\t// out\n\n    auxdata: 0xa264697066735822122002666ba946efc110107249be63e3162be88eaba43504832dbbe065260b69ec0564736f6c63430008150033\n}\n",
				"bytecode": {
					"linkReferences": {},
					"object": "608060405234801562000010575f80fd5b5060405162002e5338038062002e53833981810160405281019062000036919062000130565b5f8111801562000047575060648111155b62000089576040517f08c379a00000000000000000000000000000000000000000000000000000000081526004016200008090620001e7565b60405180910390fd5b824262000097919062000234565b6007819055508160098190555080600a8190555033600b5f6101000a81548173ffffffffffffffffffffffffffffffffffffffff021916908373ffffffffffffffffffffffffffffffffffffffff1602179055505050506200026e565b5f80fd5b5f819050919050565b6200010c81620000f8565b811462000117575f80fd5b50565b5f815190506200012a8162000101565b92915050565b5f805f606084860312156200014a5762000149620000f4565b5b5f62000159868287016200011a565b93505060206200016c868287016200011a565b92505060406200017f868287016200011a565b9150509250925092565b5f82825260208201905092915050565b7f4e6f742076616c69642076616c756573000000000000000000000000000000005f82015250565b5f620001cf60108362000189565b9150620001dc8262000199565b602082019050919050565b5f6020820190508181035f8301526200020081620001c1565b9050919050565b7f4e487b71000000000000000000000000000000000000000000000000000000005f52601160045260245ffd5b5f6200024082620000f8565b91506200024d83620000f8565b925082820190508082111562000268576200026762000207565b5b92915050565b612bd7806200027c5f395ff3fe60806040526004361061011e575f3560e01c806350520b1f1161009f5780638896f24c116100635780638896f24c146103ac5780638ee36f05146103d4578063afc8275b14610410578063bcf93dd61461043a578063c1188cff146104645761011e565b806350520b1f146102ec5780636a907803146102f65780636ac1e01f146103325780636dfc10991461035a578063807896d5146103845761011e565b80632ab09d14116100e65780632ab09d14146102085780632ccc8727146102325780633a98ef391461026e57806346fcff4c14610298578063481c6a75146102c25761011e565b8063013cf08b14610122578063016bc65f14610166578063039383e61461018e5780630d61b519146101b65780631703a018146101de575b5f80fd5b34801561012d575f80fd5b5061014860048036038101906101439190611a83565b61048c565b60405161015d99989796959493929190611ba0565b60405180910390f35b348015610171575f80fd5b5061018c60048036038101906101879190611a83565b6105a1565b005b348015610199575f80fd5b506101b460048036038101906101af9190611c6d565b6106fe565b005b3480156101c1575f80fd5b506101dc60048036038101906101d79190611a83565b610a48565b005b3480156101e9575f80fd5b506101f2610c60565b6040516101ff9190611cab565b60405180910390f35b348015610213575f80fd5b5061021c610c66565b6040516102299190611cab565b60405180910390f35b34801561023d575f80fd5b5061025860048036038101906102539190611a83565b610c6c565b6040516102659190611cd3565b60405180910390f35b348015610279575f80fd5b50610282610ca7565b60405161028f9190611cab565b60405180910390f35b3480156102a3575f80fd5b506102ac610cad565b6040516102b99190611cab565b60405180910390f35b3480156102cd575f80fd5b506102d6610cb3565b6040516102e39190611cd3565b60405180910390f35b6102f4610cd8565b005b348015610301575f80fd5b5061031c60048036038101906103179190611cec565b610e98565b6040516103299190611cab565b60405180910390f35b34801561033d575f80fd5b5061035860048036038101906103539190611da2565b610ead565b005b348015610365575f80fd5b5061036e6110b5565b60405161037b9190612005565b60405180910390f35b34801561038f575f80fd5b506103aa60048036038101906103a59190611a83565b6112ce565b005b3480156103b7575f80fd5b506103d260048036038101906103cd9190611a83565b6115c2565b005b3480156103df575f80fd5b506103fa60048036038101906103f59190612025565b6116cc565b6040516104079190612063565b60405180910390f35b34801561041b575f80fd5b506104246116f6565b6040516104319190611cab565b60405180910390f35b348015610445575f80fd5b5061044e6116fc565b60405161045b9190611cab565b60405180910390f35b34801561046f575f80fd5b5061048a60048036038101906104859190611a83565b611702565b005b6004602052805f5260405f205f91509050805f0154908060010180546104b1906120a9565b80601f01602080910402602001604051908101604052809291908181526020018280546104dd906120a9565b80156105285780601f106104ff57610100808354040283529160200191610528565b820191905f5260205f20905b81548152906001019060200180831161050b57829003601f168201915b505050505090806002015490806003015f9054906101000a900473ffffffffffffffffffffffffffffffffffffffff1690806004015490806005015490806006015f9054906101000a900460ff16908060060160019054906101000a900460ff16908060060160029054906101000a900460ff16905089565b600115155f803373ffffffffffffffffffffffffffffffffffffffff1673ffffffffffffffffffffffffffffffffffffffff1681526020019081526020015f205f9054906101000a900460ff16151514610630576040517f08c379a000000000000000000000000000000000000000000000000000000000815260040161062790612123565b60405180910390fd5b6021600554606460015f3373ffffffffffffffffffffffffffffffffffffffff1673ffffffffffffffffffffffffffffffffffffffff1681526020019081526020015f205461067f919061216e565b61068991906121dc565b116106c9576040517f08c379a00000000000000000000000000000000000000000000000000000000081526004016106c09061227c565b60405180910390fd5b5f60045f8381526020019081526020015f20905060018160060160016101000a81548160ff0219169083151502179055505050565b600115155f803373ffffffffffffffffffffffffffffffffffffffff1673ffffffffffffffffffffffffffffffffffffffff1681526020019081526020015f205f9054906101000a900460ff1615151461078d576040517f08c379a000000000000000000000000000000000000000000000000000000000815260040161078490612123565b60405180910390fd5b8160015f3373ffffffffffffffffffffffffffffffffffffffff1673ffffffffffffffffffffffffffffffffffffffff1681526020019081526020015f2054101561080d576040517f08c379a0000000000000000000000000000000000000000000000000000000008152600401610804906122e4565b60405180910390fd5b816006541015610852576040517f08c379a00000000000000000000000000000000000000000000000000000000081526004016108499061234c565b60405180910390fd5b8160015f3373ffffffffffffffffffffffffffffffffffffffff1673ffffffffffffffffffffffffffffffffffffffff1681526020019081526020015f205f82825461089e919061236a565b925050819055505f60015f3373ffffffffffffffffffffffffffffffffffffffff1673ffffffffffffffffffffffffffffffffffffffff1681526020019081526020015f20540361093d575f805f3373ffffffffffffffffffffffffffffffffffffffff1673ffffffffffffffffffffffffffffffffffffffff1681526020019081526020015f205f6101000a81548160ff0219169083151502179055505b8160015f8373ffffffffffffffffffffffffffffffffffffffff1673ffffffffffffffffffffffffffffffffffffffff1681526020019081526020015f205f828254610989919061239d565b9250508190555060015f808373ffffffffffffffffffffffffffffffffffffffff1673ffffffffffffffffffffffffffffffffffffffff1681526020019081526020015f205f6101000a81548160ff021916908315150217905550600381908060018154018082558091505060019003905f5260205f20015f9091909190916101000a81548173ffffffffffffffffffffffffffffffffffffffff021916908373ffffffffffffffffffffffffffffffffffffffff1602179055505050565b3373ffffffffffffffffffffffffffffffffffffffff16600b5f9054906101000a900473ffffffffffffffffffffffffffffffffffffffff1673ffffffffffffffffffffffffffffffffffffffff1614610ad7576040517f08c379a0000000000000000000000000000000000000000000000000000000008152600401610ace9061241a565b60405180910390fd5b5f60045f8381526020019081526020015f209050600a5460055460648360040154610b02919061216e565b610b0c91906121dc565b1015610b4d576040517f08c379a0000000000000000000000000000000000000000000000000000000008152600401610b4490612482565b60405180910390fd5b5f15158160060160019054906101000a900460ff16151514610ba4576040517f08c379a0000000000000000000000000000000000000000000000000000000008152600401610b9b90612510565b60405180910390fd5b5f15158160060160029054906101000a900460ff16151514610bfb576040517f08c379a0000000000000000000000000000000000000000000000000000000008152600401610bf290612578565b60405180910390fd5b60011515816006015f9054906101000a90505050806002015460065f828254610c24919061236a565b92505081905550610c5c8160020154826003015f9054906101000a900473ffffffffffffffffffffffffffffffffffffffff166119a0565b5050565b600a5481565b60085481565b60038181548110610c7b575f80fd5b905f5260205f20015f915054906101000a900473ffffffffffffffffffffffffffffffffffffffff1681565b60055481565b60065481565b600b5f9054906101000a900473ffffffffffffffffffffffffffffffffffffffff1681565b426007541015610d1d576040517f08c379a0000000000000000000000000000000000000000000000000000000008152600401610d14906125e0565b60405180910390fd5b5f3411610d5f576040517f08c379a0000000000000000000000000000000000000000000000000000000008152600401610d5690612648565b60405180910390fd5b60015f803373ffffffffffffffffffffffffffffffffffffffff1673ffffffffffffffffffffffffffffffffffffffff1681526020019081526020015f205f6101000a81548160ff0219169083151502179055503460015f3373ffffffffffffffffffffffffffffffffffffffff1673ffffffffffffffffffffffffffffffffffffffff1681526020019081526020015f205f828254610dff919061239d565b925050819055503460055f828254610e17919061239d565b92505081905550600333908060018154018082558091505060019003905f5260205f20015f9091909190916101000a81548173ffffffffffffffffffffffffffffffffffffffff021916908373ffffffffffffffffffffffffffffffffffffffff1602179055503460065f828254610e8f919061239d565b92505081905550565b6001602052805f5260405f205f915090505481565b816006541015610ef2576040517f08c379a0000000000000000000000000000000000000000000000000000000008152600401610ee9906126b0565b60405180910390fd5b604051806101200160405280600854815260200185858080601f0160208091040260200160405190810160405280939291908181526020018383808284375f81840152601f19601f8201169050808301925050505050505081526020018381526020018273ffffffffffffffffffffffffffffffffffffffff1681526020015f815260200160095442610f85919061239d565b81526020015f151581526020015f151581526020015f151581525060045f60085481526020019081526020015f205f820151815f01556020820151816001019081610fd09190612898565b50604082015181600201556060820151816003015f6101000a81548173ffffffffffffffffffffffffffffffffffffffff021916908373ffffffffffffffffffffffffffffffffffffffff1602179055506080820151816004015560a0820151816005015560c0820151816006015f6101000a81548160ff02191690831515021790555060e08201518160060160016101000a81548160ff0219169083151502179055506101008201518160060160026101000a81548160ff02191690831515021790555090505060085f8154809291906110aa90612967565b919050555050505050565b60605f60085467ffffffffffffffff8111156110d4576110d36126ce565b5b60405190808252806020026020018201604052801561110d57816020015b6110fa6119e8565b8152602001906001900390816110f25790505b5090505f5b6008548110156112c65760045f8281526020019081526020015f20604051806101200160405290815f8201548152602001600182018054611152906120a9565b80601f016020809104026020016040519081016040528092919081815260200182805461117e906120a9565b80156111c95780601f106111a0576101008083540402835291602001916111c9565b820191905f5260205f20905b8154815290600101906020018083116111ac57829003601f168201915b5050505050815260200160028201548152602001600382015f9054906101000a900473ffffffffffffffffffffffffffffffffffffffff1673ffffffffffffffffffffffffffffffffffffffff1673ffffffffffffffffffffffffffffffffffffffff1681526020016004820154815260200160058201548152602001600682015f9054906101000a900460ff161515151581526020016006820160019054906101000a900460ff161515151581526020016006820160029054906101000a900460ff1615151515815250508282815181106112a8576112a76129ae565b5b602002602001018190525080806112be90612967565b915050611112565b508091505090565b600115155f803373ffffffffffffffffffffffffffffffffffffffff1673ffffffffffffffffffffffffffffffffffffffff1681526020019081526020015f205f9054906101000a900460ff1615151461135d576040517f08c379a000000000000000000000000000000000000000000000000000000000815260040161135490612123565b60405180910390fd5b5f60045f8381526020019081526020015f2090505f151560025f3373ffffffffffffffffffffffffffffffffffffffff1673ffffffffffffffffffffffffffffffffffffffff1681526020019081526020015f205f8481526020019081526020015f205f9054906101000a900460ff1615151461140f576040517f08c379a000000000000000000000000000000000000000000000000000000000815260040161140690612a4b565b60405180910390fd5b4281600501541015611456576040517f08c379a000000000000000000000000000000000000000000000000000000000815260040161144d90612ab3565b60405180910390fd5b5f1515816006015f9054906101000a900460ff161515146114ac576040517f08c379a00000000000000000000000000000000000000000000000000000000081526004016114a390612b1b565b60405180910390fd5b5f15158160060160029054906101000a900460ff16151514611503576040517f08c379a00000000000000000000000000000000000000000000000000000000081526004016114fa90612578565b60405180910390fd5b600160025f3373ffffffffffffffffffffffffffffffffffffffff1673ffffffffffffffffffffffffffffffffffffffff1681526020019081526020015f205f8481526020019081526020015f205f6101000a81548160ff02191690831515021790555060015f3373ffffffffffffffffffffffffffffffffffffffff1673ffffffffffffffffffffffffffffffffffffffff1681526020019081526020015f2054816004015f8282546115b7919061239d565b925050819055505050565b3373ffffffffffffffffffffffffffffffffffffffff16600b5f9054906101000a900473ffffffffffffffffffffffffffffffffffffffff1673ffffffffffffffffffffffffffffffffffffffff1614611651576040517f08c379a00000000000000000000000000000000000000000000000000000000081526004016116489061241a565b60405180910390fd5b5f60045f8381526020019081526020015f209050428160050154116116ab576040517f08c379a00000000000000000000000000000000000000000000000000000000081526004016116a290612b83565b60405180910390fd5b60018160060160026101000a81548160ff0219169083151502179055505050565b6002602052815f5260405f20602052805f5260405f205f915091509054906101000a900460ff1681565b60075481565b60095481565b600115155f803373ffffffffffffffffffffffffffffffffffffffff1673ffffffffffffffffffffffffffffffffffffffff1681526020019081526020015f205f9054906101000a900460ff16151514611791576040517f08c379a000000000000000000000000000000000000000000000000000000000815260040161178890612123565b60405180910390fd5b8060015f3373ffffffffffffffffffffffffffffffffffffffff1673ffffffffffffffffffffffffffffffffffffffff1681526020019081526020015f20541015611811576040517f08c379a0000000000000000000000000000000000000000000000000000000008152600401611808906122e4565b60405180910390fd5b806006541015611856576040517f08c379a000000000000000000000000000000000000000000000000000000000815260040161184d9061234c565b60405180910390fd5b8060015f3373ffffffffffffffffffffffffffffffffffffffff1673ffffffffffffffffffffffffffffffffffffffff1681526020019081526020015f205f8282546118a2919061236a565b925050819055505f60015f3373ffffffffffffffffffffffffffffffffffffffff1673ffffffffffffffffffffffffffffffffffffffff1681526020019081526020015f205403611941575f805f3373ffffffffffffffffffffffffffffffffffffffff1673ffffffffffffffffffffffffffffffffffffffff1681526020019081526020015f205f6101000a81548160ff0219169083151502179055505b8060065f828254611952919061236a565b925050819055503373ffffffffffffffffffffffffffffffffffffffff166108fc8290811502906040515f60405180830381858888f1935050505015801561199c573d5f803e3d5ffd5b5050565b8073ffffffffffffffffffffffffffffffffffffffff166108fc8390811502906040515f60405180830381858888f193505050501580156119e3573d5f803e3d5ffd5b505050565b6040518061012001604052805f8152602001606081526020015f81526020015f73ffffffffffffffffffffffffffffffffffffffff1681526020015f81526020015f81526020015f151581526020015f151581526020015f151581525090565b5f80fd5b5f80fd5b5f819050919050565b611a6281611a50565b8114611a6c575f80fd5b50565b5f81359050611a7d81611a59565b92915050565b5f60208284031215611a9857611a97611a48565b5b5f611aa584828501611a6f565b91505092915050565b611ab781611a50565b82525050565b5f81519050919050565b5f82825260208201905092915050565b5f5b83811015611af4578082015181840152602081019050611ad9565b5f8484015250505050565b5f601f19601f8301169050919050565b5f611b1982611abd565b611b238185611ac7565b9350611b33818560208601611ad7565b611b3c81611aff565b840191505092915050565b5f73ffffffffffffffffffffffffffffffffffffffff82169050919050565b5f611b7082611b47565b9050919050565b611b8081611b66565b82525050565b5f8115159050919050565b611b9a81611b86565b82525050565b5f61012082019050611bb45f83018c611aae565b8181036020830152611bc6818b611b0f565b9050611bd5604083018a611aae565b611be26060830189611b77565b611bef6080830188611aae565b611bfc60a0830187611aae565b611c0960c0830186611b91565b611c1660e0830185611b91565b611c24610100830184611b91565b9a9950505050505050505050565b5f611c3c82611b47565b9050919050565b611c4c81611c32565b8114611c56575f80fd5b50565b5f81359050611c6781611c43565b92915050565b5f8060408385031215611c8357611c82611a48565b5b5f611c9085828601611a6f565b9250506020611ca185828601611c59565b9150509250929050565b5f602082019050611cbe5f830184611aae565b92915050565b611ccd81611c32565b82525050565b5f602082019050611ce65f830184611cc4565b92915050565b5f60208284031215611d0157611d00611a48565b5b5f611d0e84828501611c59565b91505092915050565b5f80fd5b5f80fd5b5f80fd5b5f8083601f840112611d3857611d37611d17565b5b8235905067ffffffffffffffff811115611d5557611d54611d1b565b5b602083019150836001820283011115611d7157611d70611d1f565b5b9250929050565b611d8181611b66565b8114611d8b575f80fd5b50565b5f81359050611d9c81611d78565b92915050565b5f805f8060608587031215611dba57611db9611a48565b5b5f85013567ffffffffffffffff811115611dd757611dd6611a4c565b5b611de387828801611d23565b94509450506020611df687828801611a6f565b9250506040611e0787828801611d8e565b91505092959194509250565b5f81519050919050565b5f82825260208201905092915050565b5f819050602082019050919050565b611e4581611a50565b82525050565b5f82825260208201905092915050565b5f611e6582611abd565b611e6f8185611e4b565b9350611e7f818560208601611ad7565b611e8881611aff565b840191505092915050565b611e9c81611b66565b82525050565b611eab81611b86565b82525050565b5f61012083015f830151611ec75f860182611e3c565b5060208301518482036020860152611edf8282611e5b565b9150506040830151611ef46040860182611e3c565b506060830151611f076060860182611e93565b506080830151611f1a6080860182611e3c565b5060a0830151611f2d60a0860182611e3c565b5060c0830151611f4060c0860182611ea2565b5060e0830151611f5360e0860182611ea2565b50610100830151611f68610100860182611ea2565b508091505092915050565b5f611f7e8383611eb1565b905092915050565b5f602082019050919050565b5f611f9c82611e13565b611fa68185611e1d565b935083602082028501611fb885611e2d565b805f5b85811015611ff35784840389528151611fd48582611f73565b9450611fdf83611f86565b925060208a01995050600181019050611fbb565b50829750879550505050505092915050565b5f6020820190508181035f83015261201d8184611f92565b905092915050565b5f806040838503121561203b5761203a611a48565b5b5f61204885828601611c59565b925050602061205985828601611a6f565b9150509250929050565b5f6020820190506120765f830184611b91565b92915050565b7f4e487b71000000000000000000000000000000000000000000000000000000005f52602260045260245ffd5b5f60028204905060018216806120c057607f821691505b6020821081036120d3576120d261207c565b5b50919050565b7f596f7520617265206e6f7420616e20696e766573746f720000000000000000005f82015250565b5f61210d601783611ac7565b9150612118826120d9565b602082019050919050565b5f6020820190508181035f83015261213a81612101565b9050919050565b7f4e487b71000000000000000000000000000000000000000000000000000000005f52601160045260245ffd5b5f61217882611a50565b915061218383611a50565b925082820261219181611a50565b915082820484148315176121a8576121a7612141565b5b5092915050565b7f4e487b71000000000000000000000000000000000000000000000000000000005f52601260045260245ffd5b5f6121e682611a50565b91506121f183611a50565b925082612201576122006121af565b5b828204905092915050565b7f596f7520646f206e6f74206861766520746f20706f77657220746f20676976655f8201527f207665746f000000000000000000000000000000000000000000000000000000602082015250565b5f612266602583611ac7565b91506122718261220c565b604082019050919050565b5f6020820190508181035f8301526122938161225a565b9050919050565b7f596f7520646f6e277420686176652074696873206d75636820736861726500005f82015250565b5f6122ce601e83611ac7565b91506122d98261229a565b602082019050919050565b5f6020820190508181035f8301526122fb816122c2565b9050919050565b7f496e73756666696369656e742046756e647300000000000000000000000000005f82015250565b5f612336601283611ac7565b915061234182612302565b602082019050919050565b5f6020820190508181035f8301526123638161232a565b9050919050565b5f61237482611a50565b915061237f83611a50565b925082820390508181111561239757612396612141565b5b92915050565b5f6123a782611a50565b91506123b283611a50565b92508282019050808211156123ca576123c9612141565b5b92915050565b7f596f7520617265206e6f74206d616e61676572000000000000000000000000005f82015250565b5f612404601383611ac7565b915061240f826123d0565b602082019050919050565b5f6020820190508181035f830152612431816123f8565b9050919050565b7f4d616a6f7269747920646f6573206e6f7420737570706f7274000000000000005f82015250565b5f61246c601983611ac7565b915061247782612438565b602082019050919050565b5f6020820190508181035f83015261249981612460565b9050919050565b7f5665746f20686173206265656e20676976656e20746f20746869732070726f705f8201527f6f73616c00000000000000000000000000000000000000000000000000000000602082015250565b5f6124fa602483611ac7565b9150612505826124a0565b604082019050919050565b5f6020820190508181035f830152612527816124ee565b9050919050565b7f5468652070726f706f73616c20686173206265656e2063616e63656c656400005f82015250565b5f612562601e83611ac7565b915061256d8261252e565b602082019050919050565b5f6020820190508181035f83015261258f81612556565b9050919050565b7f436f6e747269627574696f6e2074696d652065787069726564000000000000005f82015250565b5f6125ca601983611ac7565b91506125d582612596565b602082019050919050565b5f6020820190508181035f8301526125f7816125be565b9050919050565b7f43616e206e6f742073656e64207a65726f2065746865720000000000000000005f82015250565b5f612632601783611ac7565b915061263d826125fe565b602082019050919050565b5f6020820190508181035f83015261265f81612626565b9050919050565b7f4e6f7420656e6f7567682066756e6473000000000000000000000000000000005f82015250565b5f61269a601083611ac7565b91506126a582612666565b602082019050919050565b5f6020820190508181035f8301526126c78161268e565b9050919050565b7f4e487b71000000000000000000000000000000000000000000000000000000005f52604160045260245ffd5b5f819050815f5260205f209050919050565b5f6020601f8301049050919050565b5f82821b905092915050565b5f600883026127577fffffffffffffffffffffffffffffffffffffffffffffffffffffffffffffffff8261271c565b612761868361271c565b95508019841693508086168417925050509392505050565b5f819050919050565b5f61279c61279761279284611a50565b612779565b611a50565b9050919050565b5f819050919050565b6127b583612782565b6127c96127c1826127a3565b848454612728565b825550505050565b5f90565b6127dd6127d1565b6127e88184846127ac565b505050565b5b8181101561280b576128005f826127d5565b6001810190506127ee565b5050565b601f82111561285057612821816126fb565b61282a8461270d565b81016020851015612839578190505b61284d6128458561270d565b8301826127ed565b50505b505050565b5f82821c905092915050565b5f6128705f1984600802612855565b1980831691505092915050565b5f6128888383612861565b9150826002028217905092915050565b6128a182611abd565b67ffffffffffffffff8111156128ba576128b96126ce565b5b6128c482546120a9565b6128cf82828561280f565b5f60209050601f831160018114612900575f84156128ee578287015190505b6128f8858261287d565b86555061295f565b601f19841661290e866126fb565b5f5b8281101561293557848901518255600182019150602085019450602081019050612910565b86831015612952578489015161294e601f891682612861565b8355505b6001600288020188555050505b505050505050565b5f61297182611a50565b91507fffffffffffffffffffffffffffffffffffffffffffffffffffffffffffffffff82036129a3576129a2612141565b5b600182019050919050565b7f4e487b71000000000000000000000000000000000000000000000000000000005f52603260045260245ffd5b7f596f75206861766520616c726561647920766f74656420666f722074686973205f8201527f70726f706f73616c000000000000000000000000000000000000000000000000602082015250565b5f612a35602883611ac7565b9150612a40826129db565b604082019050919050565b5f6020820190508181035f830152612a6281612a29565b9050919050565b7f566f74696e672054696d6520456e6465640000000000000000000000000000005f82015250565b5f612a9d601183611ac7565b9150612aa882612a69565b602082019050919050565b5f6020820190508181035f830152612aca81612a91565b9050919050565b7f497420697320616c7265616479204578656375746564000000000000000000005f82015250565b5f612b05601683611ac7565b9150612b1082612ad1565b602082019050919050565b5f6020820190508181035f830152612b3281612af9565b9050919050565b7f43616e63616c6174696f6e2074696d65206861732065787069726564000000005f82015250565b5f612b6d601c83611ac7565b9150612b7882612b39565b602082019050919050565b5f6020820190508181035f830152612b9a81612b61565b905091905056fea264697066735822122002666ba946efc110107249be63e3162be88eaba43504832dbbe065260b69ec0564736f6c63430008150033",
					"opcodes": "PUSH1 0x80 PUSH1 0x40 MSTORE CALLVALUE DUP1 ISZERO PUSH3 0x10 JUMPI PUSH0 DUP1 REVERT JUMPDEST POP PUSH1 0x40 MLOAD PUSH3 0x2E53 CODESIZE SUB DUP1 PUSH3 0x2E53 DUP4 CODECOPY DUP2 DUP2 ADD PUSH1 0x40 MSTORE DUP2 ADD SWAP1 PUSH3 0x36 SWAP2 SWAP1 PUSH3 0x130 JUMP JUMPDEST PUSH0 DUP2 GT DUP1 ISZERO PUSH3 0x47 JUMPI POP PUSH1 0x64 DUP2 GT ISZERO JUMPDEST PUSH3 0x89 JUMPI PUSH1 0x40 MLOAD PUSH32 0x8C379A000000000000000000000000000000000000000000000000000000000 DUP2 MSTORE PUSH1 0x4 ADD PUSH3 0x80 SWAP1 PUSH3 0x1E7 JUMP JUMPDEST PUSH1 0x40 MLOAD DUP1 SWAP2 SUB SWAP1 REVERT JUMPDEST DUP3 TIMESTAMP PUSH3 0x97 SWAP2 SWAP1 PUSH3 0x234 JUMP JUMPDEST PUSH1 0x7 DUP2 SWAP1 SSTORE POP DUP2 PUSH1 0x9 DUP2 SWAP1 SSTORE POP DUP1 PUSH1 0xA DUP2 SWAP1 SSTORE POP CALLER PUSH1 0xB PUSH0 PUSH2 0x100 EXP DUP2 SLOAD DUP2 PUSH20 0xFFFFFFFFFFFFFFFFFFFFFFFFFFFFFFFFFFFFFFFF MUL NOT AND SWAP1 DUP4 PUSH20 0xFFFFFFFFFFFFFFFFFFFFFFFFFFFFFFFFFFFFFFFF AND MUL OR SWAP1 SSTORE POP POP POP POP PUSH3 0x26E JUMP JUMPDEST PUSH0 DUP1 REVERT JUMPDEST PUSH0 DUP2 SWAP1 POP SWAP2 SWAP1 POP JUMP JUMPDEST PUSH3 0x10C DUP2 PUSH3 0xF8 JUMP JUMPDEST DUP2 EQ PUSH3 0x117 JUMPI PUSH0 DUP1 REVERT JUMPDEST POP JUMP JUMPDEST PUSH0 DUP2 MLOAD SWAP1 POP PUSH3 0x12A DUP2 PUSH3 0x101 JUMP JUMPDEST SWAP3 SWAP2 POP POP JUMP JUMPDEST PUSH0 DUP1 PUSH0 PUSH1 0x60 DUP5 DUP7 SUB SLT ISZERO PUSH3 0x14A JUMPI PUSH3 0x149 PUSH3 0xF4 JUMP JUMPDEST JUMPDEST PUSH0 PUSH3 0x159 DUP7 DUP3 DUP8 ADD PUSH3 0x11A JUMP JUMPDEST SWAP4 POP POP PUSH1 0x20 PUSH3 0x16C DUP7 DUP3 DUP8 ADD PUSH3 0x11A JUMP JUMPDEST SWAP3 POP POP PUSH1 0x40 PUSH3 0x17F DUP7 DUP3 DUP8 ADD PUSH3 0x11A JUMP JUMPDEST SWAP2 POP POP SWAP3 POP SWAP3 POP SWAP3 JUMP JUMPDEST PUSH0 DUP3 DUP3 MSTORE PUSH1 0x20 DUP3 ADD SWAP1 POP SWAP3 SWAP2 POP POP JUMP JUMPDEST PUSH32 0x4E6F742076616C69642076616C75657300000000000000000000000000000000 PUSH0 DUP3 ADD MSTORE POP JUMP JUMPDEST PUSH0 PUSH3 0x1CF PUSH1 0x10 DUP4 PUSH3 0x189 JUMP JUMPDEST SWAP2 POP PUSH3 0x1DC DUP3 PUSH3 0x199 JUMP JUMPDEST PUSH1 0x20 DUP3 ADD SWAP1 POP SWAP2 SWAP1 POP JUMP JUMPDEST PUSH0 PUSH1 0x20 DUP3 ADD SWAP1 POP DUP2 DUP2 SUB PUSH0 DUP4 ADD MSTORE PUSH3 0x200 DUP2 PUSH3 0x1C1 JUMP JUMPDEST SWAP1 POP SWAP2 SWAP1 POP JUMP JUMPDEST PUSH32 0x4E487B7100000000000000000000000000000000000000000000000000000000 PUSH0 MSTORE PUSH1 0x11 PUSH1 0x4 MSTORE PUSH1 0x24 PUSH0 REVERT JUMPDEST PUSH0 PUSH3 0x240 DUP3 PUSH3 0xF8 JUMP JUMPDEST SWAP2 POP PUSH3 0x24D DUP4 PUSH3 0xF8 JUMP JUMPDEST SWAP3 POP DUP3 DUP3 ADD SWAP1 POP DUP1 DUP3 GT ISZERO PUSH3 0x268 JUMPI PUSH3 0x267 PUSH3 0x207 JUMP JUMPDEST JUMPDEST SWAP3 SWAP2 POP POP JUMP JUMPDEST PUSH2 0x2BD7 DUP1 PUSH3 0x27C PUSH0 CODECOPY PUSH0 RETURN INVALID PUSH1 0x80 PUSH1 0x40 MSTORE PUSH1 0x4 CALLDATASIZE LT PUSH2 0x11E JUMPI PUSH0 CALLDATALOAD PUSH1 0xE0 SHR DUP1 PUSH4 0x50520B1F GT PUSH2 0x9F JUMPI DUP1 PUSH4 0x8896F24C GT PUSH2 0x63 JUMPI DUP1 PUSH4 0x8896F24C EQ PUSH2 0x3AC JUMPI DUP1 PUSH4 0x8EE36F05 EQ PUSH2 0x3D4 JUMPI DUP1 PUSH4 0xAFC8275B EQ PUSH2 0x410 JUMPI DUP1 PUSH4 0xBCF93DD6 EQ PUSH2 0x43A JUMPI DUP1 PUSH4 0xC1188CFF EQ PUSH2 0x464 JUMPI PUSH2 0x11E JUMP JUMPDEST DUP1 PUSH4 0x50520B1F EQ PUSH2 0x2EC JUMPI DUP1 PUSH4 0x6A907803 EQ PUSH2 0x2F6 JUMPI DUP1 PUSH4 0x6AC1E01F EQ PUSH2 0x332 JUMPI DUP1 PUSH4 0x6DFC1099 EQ PUSH2 0x35A JUMPI DUP1 PUSH4 0x807896D5 EQ PUSH2 0x384 JUMPI PUSH2 0x11E JUMP JUMPDEST DUP1 PUSH4 0x2AB09D14 GT PUSH2 0xE6 JUMPI DUP1 PUSH4 0x2AB09D14 EQ PUSH2 0x208 JUMPI DUP1 PUSH4 0x2CCC8727 EQ PUSH2 0x232 JUMPI DUP1 PUSH4 0x3A98EF39 EQ PUSH2 0x26E JUMPI DUP1 PUSH4 0x46FCFF4C EQ PUSH2 0x298 JUMPI DUP1 PUSH4 0x481C6A75 EQ PUSH2 0x2C2 JUMPI PUSH2 0x11E JUMP JUMPDEST DUP1 PUSH4 0x13CF08B EQ PUSH2 0x122 JUMPI DUP1 PUSH4 0x16BC65F EQ PUSH2 0x166 JUMPI DUP1 PUSH4 0x39383E6 EQ PUSH2 0x18E JUMPI DUP1 PUSH4 0xD61B519 EQ PUSH2 0x1B6 JUMPI DUP1 PUSH4 0x1703A018 EQ PUSH2 0x1DE JUMPI JUMPDEST PUSH0 DUP1 REVERT JUMPDEST CALLVALUE DUP1 ISZERO PUSH2 0x12D JUMPI PUSH0 DUP1 REVERT JUMPDEST POP PUSH2 0x148 PUSH1 0x4 DUP1 CALLDATASIZE SUB DUP2 ADD SWAP1 PUSH2 0x143 SWAP2 SWAP1 PUSH2 0x1A83 JUMP JUMPDEST PUSH2 0x48C JUMP JUMPDEST PUSH1 0x40 MLOAD PUSH2 0x15D SWAP10 SWAP9 SWAP8 SWAP7 SWAP6 SWAP5 SWAP4 SWAP3 SWAP2 SWAP1 PUSH2 0x1BA0 JUMP JUMPDEST PUSH1 0x40 MLOAD DUP1 SWAP2 SUB SWAP1 RETURN JUMPDEST CALLVALUE DUP1 ISZERO PUSH2 0x171 JUMPI PUSH0 DUP1 REVERT JUMPDEST POP PUSH2 0x18C PUSH1 0x4 DUP1 CALLDATASIZE SUB DUP2 ADD SWAP1 PUSH2 0x187 SWAP2 SWAP1 PUSH2 0x1A83 JUMP JUMPDEST PUSH2 0x5A1 JUMP JUMPDEST STOP JUMPDEST CALLVALUE DUP1 ISZERO PUSH2 0x199 JUMPI PUSH0 DUP1 REVERT JUMPDEST POP PUSH2 0x1B4 PUSH1 0x4 DUP1 CALLDATASIZE SUB DUP2 ADD SWAP1 PUSH2 0x1AF SWAP2 SWAP1 PUSH2 0x1C6D JUMP JUMPDEST PUSH2 0x6FE JUMP JUMPDEST STOP JUMPDEST CALLVALUE DUP1 ISZERO PUSH2 0x1C1 JUMPI PUSH0 DUP1 REVERT JUMPDEST POP PUSH2 0x1DC PUSH1 0x4 DUP1 CALLDATASIZE SUB DUP2 ADD SWAP1 PUSH2 0x1D7 SWAP2 SWAP1 PUSH2 0x1A83 JUMP JUMPDEST PUSH2 0xA48 JUMP JUMPDEST STOP JUMPDEST CALLVALUE DUP1 ISZERO PUSH2 0x1E9 JUMPI PUSH0 DUP1 REVERT JUMPDEST POP PUSH2 0x1F2 PUSH2 0xC60 JUMP JUMPDEST PUSH1 0x40 MLOAD PUSH2 0x1FF SWAP2 SWAP1 PUSH2 0x1CAB JUMP JUMPDEST PUSH1 0x40 MLOAD DUP1 SWAP2 SUB SWAP1 RETURN JUMPDEST CALLVALUE DUP1 ISZERO PUSH2 0x213 JUMPI PUSH0 DUP1 REVERT JUMPDEST POP PUSH2 0x21C PUSH2 0xC66 JUMP JUMPDEST PUSH1 0x40 MLOAD PUSH2 0x229 SWAP2 SWAP1 PUSH2 0x1CAB JUMP JUMPDEST PUSH1 0x40 MLOAD DUP1 SWAP2 SUB SWAP1 RETURN JUMPDEST CALLVALUE DUP1 ISZERO PUSH2 0x23D JUMPI PUSH0 DUP1 REVERT JUMPDEST POP PUSH2 0x258 PUSH1 0x4 DUP1 CALLDATASIZE SUB DUP2 ADD SWAP1 PUSH2 0x253 SWAP2 SWAP1 PUSH2 0x1A83 JUMP JUMPDEST PUSH2 0xC6C JUMP JUMPDEST PUSH1 0x40 MLOAD PUSH2 0x265 SWAP2 SWAP1 PUSH2 0x1CD3 JUMP JUMPDEST PUSH1 0x40 MLOAD DUP1 SWAP2 SUB SWAP1 RETURN JUMPDEST CALLVALUE DUP1 ISZERO PUSH2 0x279 JUMPI PUSH0 DUP1 REVERT JUMPDEST POP PUSH2 0x282 PUSH2 0xCA7 JUMP JUMPDEST PUSH1 0x40 MLOAD PUSH2 0x28F SWAP2 SWAP1 PUSH2 0x1CAB JUMP JUMPDEST PUSH1 0x40 MLOAD DUP1 SWAP2 SUB SWAP1 RETURN JUMPDEST CALLVALUE DUP1 ISZERO PUSH2 0x2A3 JUMPI PUSH0 DUP1 REVERT JUMPDEST POP PUSH2 0x2AC PUSH2 0xCAD JUMP JUMPDEST PUSH1 0x40 MLOAD PUSH2 0x2B9 SWAP2 SWAP1 PUSH2 0x1CAB JUMP JUMPDEST PUSH1 0x40 MLOAD DUP1 SWAP2 SUB SWAP1 RETURN JUMPDEST CALLVALUE DUP1 ISZERO PUSH2 0x2CD JUMPI PUSH0 DUP1 REVERT JUMPDEST POP PUSH2 0x2D6 PUSH2 0xCB3 JUMP JUMPDEST PUSH1 0x40 MLOAD PUSH2 0x2E3 SWAP2 SWAP1 PUSH2 0x1CD3 JUMP JUMPDEST PUSH1 0x40 MLOAD DUP1 SWAP2 SUB SWAP1 RETURN JUMPDEST PUSH2 0x2F4 PUSH2 0xCD8 JUMP JUMPDEST STOP JUMPDEST CALLVALUE DUP1 ISZERO PUSH2 0x301 JUMPI PUSH0 DUP1 REVERT JUMPDEST POP PUSH2 0x31C PUSH1 0x4 DUP1 CALLDATASIZE SUB DUP2 ADD SWAP1 PUSH2 0x317 SWAP2 SWAP1 PUSH2 0x1CEC JUMP JUMPDEST PUSH2 0xE98 JUMP JUMPDEST PUSH1 0x40 MLOAD PUSH2 0x329 SWAP2 SWAP1 PUSH2 0x1CAB JUMP JUMPDEST PUSH1 0x40 MLOAD DUP1 SWAP2 SUB SWAP1 RETURN JUMPDEST CALLVALUE DUP1 ISZERO PUSH2 0x33D JUMPI PUSH0 DUP1 REVERT JUMPDEST POP PUSH2 0x358 PUSH1 0x4 DUP1 CALLDATASIZE SUB DUP2 ADD SWAP1 PUSH2 0x353 SWAP2 SWAP1 PUSH2 0x1DA2 JUMP JUMPDEST PUSH2 0xEAD JUMP JUMPDEST STOP JUMPDEST CALLVALUE DUP1 ISZERO PUSH2 0x365 JUMPI PUSH0 DUP1 REVERT JUMPDEST POP PUSH2 0x36E PUSH2 0x10B5 JUMP JUMPDEST PUSH1 0x40 MLOAD PUSH2 0x37B SWAP2 SWAP1 PUSH2 0x2005 JUMP JUMPDEST PUSH1 0x40 MLOAD DUP1 SWAP2 SUB SWAP1 RETURN JUMPDEST CALLVALUE DUP1 ISZERO PUSH2 0x38F JUMPI PUSH0 DUP1 REVERT JUMPDEST POP PUSH2 0x3AA PUSH1 0x4 DUP1 CALLDATASIZE SUB DUP2 ADD SWAP1 PUSH2 0x3A5 SWAP2 SWAP1 PUSH2 0x1A83 JUMP JUMPDEST PUSH2 0x12CE JUMP JUMPDEST STOP JUMPDEST CALLVALUE DUP1 ISZERO PUSH2 0x3B7 JUMPI PUSH0 DUP1 REVERT JUMPDEST POP PUSH2 0x3D2 PUSH1 0x4 DUP1 CALLDATASIZE SUB DUP2 ADD SWAP1 PUSH2 0x3CD SWAP2 SWAP1 PUSH2 0x1A83 JUMP JUMPDEST PUSH2 0x15C2 JUMP JUMPDEST STOP JUMPDEST CALLVALUE DUP1 ISZERO PUSH2 0x3DF JUMPI PUSH0 DUP1 REVERT JUMPDEST POP PUSH2 0x3FA PUSH1 0x4 DUP1 CALLDATASIZE SUB DUP2 ADD SWAP1 PUSH2 0x3F5 SWAP2 SWAP1 PUSH2 0x2025 JUMP JUMPDEST PUSH2 0x16CC JUMP JUMPDEST PUSH1 0x40 MLOAD PUSH2 0x407 SWAP2 SWAP1 PUSH2 0x2063 JUMP JUMPDEST PUSH1 0x40 MLOAD DUP1 SWAP2 SUB SWAP1 RETURN JUMPDEST CALLVALUE DUP1 ISZERO PUSH2 0x41B JUMPI PUSH0 DUP1 REVERT JUMPDEST POP PUSH2 0x424 PUSH2 0x16F6 JUMP JUMPDEST PUSH1 0x40 MLOAD PUSH2 0x431 SWAP2 SWAP1 PUSH2 0x1CAB JUMP JUMPDEST PUSH1 0x40 MLOAD DUP1 SWAP2 SUB SWAP1 RETURN JUMPDEST CALLVALUE DUP1 ISZERO PUSH2 0x445 JUMPI PUSH0 DUP1 REVERT JUMPDEST POP PUSH2 0x44E PUSH2 0x16FC JUMP JUMPDEST PUSH1 0x40 MLOAD PUSH2 0x45B SWAP2 SWAP1 PUSH2 0x1CAB JUMP JUMPDEST PUSH1 0x40 MLOAD DUP1 SWAP2 SUB SWAP1 RETURN JUMPDEST CALLVALUE DUP1 ISZERO PUSH2 0x46F JUMPI PUSH0 DUP1 REVERT JUMPDEST POP PUSH2 0x48A PUSH1 0x4 DUP1 CALLDATASIZE SUB DUP2 ADD SWAP1 PUSH2 0x485 SWAP2 SWAP1 PUSH2 0x1A83 JUMP JUMPDEST PUSH2 0x1702 JUMP JUMPDEST STOP JUMPDEST PUSH1 0x4 PUSH1 0x20 MSTORE DUP1 PUSH0 MSTORE PUSH1 0x40 PUSH0 KECCAK256 PUSH0 SWAP2 POP SWAP1 POP DUP1 PUSH0 ADD SLOAD SWAP1 DUP1 PUSH1 0x1 ADD DUP1 SLOAD PUSH2 0x4B1 SWAP1 PUSH2 0x20A9 JUMP JUMPDEST DUP1 PUSH1 0x1F ADD PUSH1 0x20 DUP1 SWAP2 DIV MUL PUSH1 0x20 ADD PUSH1 0x40 MLOAD SWAP1 DUP2 ADD PUSH1 0x40 MSTORE DUP1 SWAP3 SWAP2 SWAP1 DUP2 DUP2 MSTORE PUSH1 0x20 ADD DUP3 DUP1 SLOAD PUSH2 0x4DD SWAP1 PUSH2 0x20A9 JUMP JUMPDEST DUP1 ISZERO PUSH2 0x528 JUMPI DUP1 PUSH1 0x1F LT PUSH2 0x4FF JUMPI PUSH2 0x100 DUP1 DUP4 SLOAD DIV MUL DUP4 MSTORE SWAP2 PUSH1 0x20 ADD SWAP2 PUSH2 0x528 JUMP JUMPDEST DUP3 ADD SWAP2 SWAP1 PUSH0 MSTORE PUSH1 0x20 PUSH0 KECCAK256 SWAP1 JUMPDEST DUP2 SLOAD DUP2 MSTORE SWAP1 PUSH1 0x1 ADD SWAP1 PUSH1 0x20 ADD DUP1 DUP4 GT PUSH2 0x50B JUMPI DUP3 SWAP1 SUB PUSH1 0x1F AND DUP3 ADD SWAP2 JUMPDEST POP POP POP POP POP SWAP1 DUP1 PUSH1 0x2 ADD SLOAD SWAP1 DUP1 PUSH1 0x3 ADD PUSH0 SWAP1 SLOAD SWAP1 PUSH2 0x100 EXP SWAP1 DIV PUSH20 0xFFFFFFFFFFFFFFFFFFFFFFFFFFFFFFFFFFFFFFFF AND SWAP1 DUP1 PUSH1 0x4 ADD SLOAD SWAP1 DUP1 PUSH1 0x5 ADD SLOAD SWAP1 DUP1 PUSH1 0x6 ADD PUSH0 SWAP1 SLOAD SWAP1 PUSH2 0x100 EXP SWAP1 DIV PUSH1 0xFF AND SWAP1 DUP1 PUSH1 0x6 ADD PUSH1 0x1 SWAP1 SLOAD SWAP1 PUSH2 0x100 EXP SWAP1 DIV PUSH1 0xFF AND SWAP1 DUP1 PUSH1 0x6 ADD PUSH1 0x2 SWAP1 SLOAD SWAP1 PUSH2 0x100 EXP SWAP1 DIV PUSH1 0xFF AND SWAP1 POP DUP10 JUMP JUMPDEST PUSH1 0x1 ISZERO ISZERO PUSH0 DUP1 CALLER PUSH20 0xFFFFFFFFFFFFFFFFFFFFFFFFFFFFFFFFFFFFFFFF AND PUSH20 0xFFFFFFFFFFFFFFFFFFFFFFFFFFFFFFFFFFFFFFFF AND DUP2 MSTORE PUSH1 0x20 ADD SWAP1 DUP2 MSTORE PUSH1 0x20 ADD PUSH0 KECCAK256 PUSH0 SWAP1 SLOAD SWAP1 PUSH2 0x100 EXP SWAP1 DIV PUSH1 0xFF AND ISZERO ISZERO EQ PUSH2 0x630 JUMPI PUSH1 0x40 MLOAD PUSH32 0x8C379A000000000000000000000000000000000000000000000000000000000 DUP2 MSTORE PUSH1 0x4 ADD PUSH2 0x627 SWAP1 PUSH2 0x2123 JUMP JUMPDEST PUSH1 0x40 MLOAD DUP1 SWAP2 SUB SWAP1 REVERT JUMPDEST PUSH1 0x21 PUSH1 0x5 SLOAD PUSH1 0x64 PUSH1 0x1 PUSH0 CALLER PUSH20 0xFFFFFFFFFFFFFFFFFFFFFFFFFFFFFFFFFFFFFFFF AND PUSH20 0xFFFFFFFFFFFFFFFFFFFFFFFFFFFFFFFFFFFFFFFF AND DUP2 MSTORE PUSH1 0x20 ADD SWAP1 DUP2 MSTORE PUSH1 0x20 ADD PUSH0 KECCAK256 SLOAD PUSH2 0x67F SWAP2 SWAP1 PUSH2 0x216E JUMP JUMPDEST PUSH2 0x689 SWAP2 SWAP1 PUSH2 0x21DC JUMP JUMPDEST GT PUSH2 0x6C9 JUMPI PUSH1 0x40 MLOAD PUSH32 0x8C379A000000000000000000000000000000000000000000000000000000000 DUP2 MSTORE PUSH1 0x4 ADD PUSH2 0x6C0 SWAP1 PUSH2 0x227C JUMP JUMPDEST PUSH1 0x40 MLOAD DUP1 SWAP2 SUB SWAP1 REVERT JUMPDEST PUSH0 PUSH1 0x4 PUSH0 DUP4 DUP2 MSTORE PUSH1 0x20 ADD SWAP1 DUP2 MSTORE PUSH1 0x20 ADD PUSH0 KECCAK256 SWAP1 POP PUSH1 0x1 DUP2 PUSH1 0x6 ADD PUSH1 0x1 PUSH2 0x100 EXP DUP2 SLOAD DUP2 PUSH1 0xFF MUL NOT AND SWAP1 DUP4 ISZERO ISZERO MUL OR SWAP1 SSTORE POP POP POP JUMP JUMPDEST PUSH1 0x1 ISZERO ISZERO PUSH0 DUP1 CALLER PUSH20 0xFFFFFFFFFFFFFFFFFFFFFFFFFFFFFFFFFFFFFFFF AND PUSH20 0xFFFFFFFFFFFFFFFFFFFFFFFFFFFFFFFFFFFFFFFF AND DUP2 MSTORE PUSH1 0x20 ADD SWAP1 DUP2 MSTORE PUSH1 0x20 ADD PUSH0 KECCAK256 PUSH0 SWAP1 SLOAD SWAP1 PUSH2 0x100 EXP SWAP1 DIV PUSH1 0xFF AND ISZERO ISZERO EQ PUSH2 0x78D JUMPI PUSH1 0x40 MLOAD PUSH32 0x8C379A000000000000000000000000000000000000000000000000000000000 DUP2 MSTORE PUSH1 0x4 ADD PUSH2 0x784 SWAP1 PUSH2 0x2123 JUMP JUMPDEST PUSH1 0x40 MLOAD DUP1 SWAP2 SUB SWAP1 REVERT JUMPDEST DUP2 PUSH1 0x1 PUSH0 CALLER PUSH20 0xFFFFFFFFFFFFFFFFFFFFFFFFFFFFFFFFFFFFFFFF AND PUSH20 0xFFFFFFFFFFFFFFFFFFFFFFFFFFFFFFFFFFFFFFFF AND DUP2 MSTORE PUSH1 0x20 ADD SWAP1 DUP2 MSTORE PUSH1 0x20 ADD PUSH0 KECCAK256 SLOAD LT ISZERO PUSH2 0x80D JUMPI PUSH1 0x40 MLOAD PUSH32 0x8C379A000000000000000000000000000000000000000000000000000000000 DUP2 MSTORE PUSH1 0x4 ADD PUSH2 0x804 SWAP1 PUSH2 0x22E4 JUMP JUMPDEST PUSH1 0x40 MLOAD DUP1 SWAP2 SUB SWAP1 REVERT JUMPDEST DUP2 PUSH1 0x6 SLOAD LT ISZERO PUSH2 0x852 JUMPI PUSH1 0x40 MLOAD PUSH32 0x8C379A000000000000000000000000000000000000000000000000000000000 DUP2 MSTORE PUSH1 0x4 ADD PUSH2 0x849 SWAP1 PUSH2 0x234C JUMP JUMPDEST PUSH1 0x40 MLOAD DUP1 SWAP2 SUB SWAP1 REVERT JUMPDEST DUP2 PUSH1 0x1 PUSH0 CALLER PUSH20 0xFFFFFFFFFFFFFFFFFFFFFFFFFFFFFFFFFFFFFFFF AND PUSH20 0xFFFFFFFFFFFFFFFFFFFFFFFFFFFFFFFFFFFFFFFF AND DUP2 MSTORE PUSH1 0x20 ADD SWAP1 DUP2 MSTORE PUSH1 0x20 ADD PUSH0 KECCAK256 PUSH0 DUP3 DUP3 SLOAD PUSH2 0x89E SWAP2 SWAP1 PUSH2 0x236A JUMP JUMPDEST SWAP3 POP POP DUP2 SWAP1 SSTORE POP PUSH0 PUSH1 0x1 PUSH0 CALLER PUSH20 0xFFFFFFFFFFFFFFFFFFFFFFFFFFFFFFFFFFFFFFFF AND PUSH20 0xFFFFFFFFFFFFFFFFFFFFFFFFFFFFFFFFFFFFFFFF AND DUP2 MSTORE PUSH1 0x20 ADD SWAP1 DUP2 MSTORE PUSH1 0x20 ADD PUSH0 KECCAK256 SLOAD SUB PUSH2 0x93D JUMPI PUSH0 DUP1 PUSH0 CALLER PUSH20 0xFFFFFFFFFFFFFFFFFFFFFFFFFFFFFFFFFFFFFFFF AND PUSH20 0xFFFFFFFFFFFFFFFFFFFFFFFFFFFFFFFFFFFFFFFF AND DUP2 MSTORE PUSH1 0x20 ADD SWAP1 DUP2 MSTORE PUSH1 0x20 ADD PUSH0 KECCAK256 PUSH0 PUSH2 0x100 EXP DUP2 SLOAD DUP2 PUSH1 0xFF MUL NOT AND SWAP1 DUP4 ISZERO ISZERO MUL OR SWAP1 SSTORE POP JUMPDEST DUP2 PUSH1 0x1 PUSH0 DUP4 PUSH20 0xFFFFFFFFFFFFFFFFFFFFFFFFFFFFFFFFFFFFFFFF AND PUSH20 0xFFFFFFFFFFFFFFFFFFFFFFFFFFFFFFFFFFFFFFFF AND DUP2 MSTORE PUSH1 0x20 ADD SWAP1 DUP2 MSTORE PUSH1 0x20 ADD PUSH0 KECCAK256 PUSH0 DUP3 DUP3 SLOAD PUSH2 0x989 SWAP2 SWAP1 PUSH2 0x239D JUMP JUMPDEST SWAP3 POP POP DUP2 SWAP1 SSTORE POP PUSH1 0x1 PUSH0 DUP1 DUP4 PUSH20 0xFFFFFFFFFFFFFFFFFFFFFFFFFFFFFFFFFFFFFFFF AND PUSH20 0xFFFFFFFFFFFFFFFFFFFFFFFFFFFFFFFFFFFFFFFF AND DUP2 MSTORE PUSH1 0x20 ADD SWAP1 DUP2 MSTORE PUSH1 0x20 ADD PUSH0 KECCAK256 PUSH0 PUSH2 0x100 EXP DUP2 SLOAD DUP2 PUSH1 0xFF MUL NOT AND SWAP1 DUP4 ISZERO ISZERO MUL OR SWAP1 SSTORE POP PUSH1 0x3 DUP2 SWAP1 DUP1 PUSH1 0x1 DUP2 SLOAD ADD DUP1 DUP3 SSTORE DUP1 SWAP2 POP POP PUSH1 0x1 SWAP1 SUB SWAP1 PUSH0 MSTORE PUSH1 0x20 PUSH0 KECCAK256 ADD PUSH0 SWAP1 SWAP2 SWAP1 SWAP2 SWAP1 SWAP2 PUSH2 0x100 EXP DUP2 SLOAD DUP2 PUSH20 0xFFFFFFFFFFFFFFFFFFFFFFFFFFFFFFFFFFFFFFFF MUL NOT AND SWAP1 DUP4 PUSH20 0xFFFFFFFFFFFFFFFFFFFFFFFFFFFFFFFFFFFFFFFF AND MUL OR SWAP1 SSTORE POP POP POP JUMP JUMPDEST CALLER PUSH20 0xFFFFFFFFFFFFFFFFFFFFFFFFFFFFFFFFFFFFFFFF AND PUSH1 0xB PUSH0 SWAP1 SLOAD SWAP1 PUSH2 0x100 EXP SWAP1 DIV PUSH20 0xFFFFFFFFFFFFFFFFFFFFFFFFFFFFFFFFFFFFFFFF AND PUSH20 0xFFFFFFFFFFFFFFFFFFFFFFFFFFFFFFFFFFFFFFFF AND EQ PUSH2 0xAD7 JUMPI PUSH1 0x40 MLOAD PUSH32 0x8C379A000000000000000000000000000000000000000000000000000000000 DUP2 MSTORE PUSH1 0x4 ADD PUSH2 0xACE SWAP1 PUSH2 0x241A JUMP JUMPDEST PUSH1 0x40 MLOAD DUP1 SWAP2 SUB SWAP1 REVERT JUMPDEST PUSH0 PUSH1 0x4 PUSH0 DUP4 DUP2 MSTORE PUSH1 0x20 ADD SWAP1 DUP2 MSTORE PUSH1 0x20 ADD PUSH0 KECCAK256 SWAP1 POP PUSH1 0xA SLOAD PUSH1 0x5 SLOAD PUSH1 0x64 DUP4 PUSH1 0x4 ADD SLOAD PUSH2 0xB02 SWAP2 SWAP1 PUSH2 0x216E JUMP JUMPDEST PUSH2 0xB0C SWAP2 SWAP1 PUSH2 0x21DC JUMP JUMPDEST LT ISZERO PUSH2 0xB4D JUMPI PUSH1 0x40 MLOAD PUSH32 0x8C379A000000000000000000000000000000000000000000000000000000000 DUP2 MSTORE PUSH1 0x4 ADD PUSH2 0xB44 SWAP1 PUSH2 0x2482 JUMP JUMPDEST PUSH1 0x40 MLOAD DUP1 SWAP2 SUB SWAP1 REVERT JUMPDEST PUSH0 ISZERO ISZERO DUP2 PUSH1 0x6 ADD PUSH1 0x1 SWAP1 SLOAD SWAP1 PUSH2 0x100 EXP SWAP1 DIV PUSH1 0xFF AND ISZERO ISZERO EQ PUSH2 0xBA4 JUMPI PUSH1 0x40 MLOAD PUSH32 0x8C379A000000000000000000000000000000000000000000000000000000000 DUP2 MSTORE PUSH1 0x4 ADD PUSH2 0xB9B SWAP1 PUSH2 0x2510 JUMP JUMPDEST PUSH1 0x40 MLOAD DUP1 SWAP2 SUB SWAP1 REVERT JUMPDEST PUSH0 ISZERO ISZERO DUP2 PUSH1 0x6 ADD PUSH1 0x2 SWAP1 SLOAD SWAP1 PUSH2 0x100 EXP SWAP1 DIV PUSH1 0xFF AND ISZERO ISZERO EQ PUSH2 0xBFB JUMPI PUSH1 0x40 MLOAD PUSH32 0x8C379A000000000000000000000000000000000000000000000000000000000 DUP2 MSTORE PUSH1 0x4 ADD PUSH2 0xBF2 SWAP1 PUSH2 0x2578 JUMP JUMPDEST PUSH1 0x40 MLOAD DUP1 SWAP2 SUB SWAP1 REVERT JUMPDEST PUSH1 0x1 ISZERO ISZERO DUP2 PUSH1 0x6 ADD PUSH0 SWAP1 SLOAD SWAP1 PUSH2 0x100 EXP SWAP1 POP POP POP DUP1 PUSH1 0x2 ADD SLOAD PUSH1 0x6 PUSH0 DUP3 DUP3 SLOAD PUSH2 0xC24 SWAP2 SWAP1 PUSH2 0x236A JUMP JUMPDEST SWAP3 POP POP DUP2 SWAP1 SSTORE POP PUSH2 0xC5C DUP2 PUSH1 0x2 ADD SLOAD DUP3 PUSH1 0x3 ADD PUSH0 SWAP1 SLOAD SWAP1 PUSH2 0x100 EXP SWAP1 DIV PUSH20 0xFFFFFFFFFFFFFFFFFFFFFFFFFFFFFFFFFFFFFFFF AND PUSH2 0x19A0 JUMP JUMPDEST POP POP JUMP JUMPDEST PUSH1 0xA SLOAD DUP2 JUMP JUMPDEST PUSH1 0x8 SLOAD DUP2 JUMP JUMPDEST PUSH1 0x3 DUP2 DUP2 SLOAD DUP2 LT PUSH2 0xC7B JUMPI PUSH0 DUP1 REVERT JUMPDEST SWAP1 PUSH0 MSTORE PUSH1 0x20 PUSH0 KECCAK256 ADD PUSH0 SWAP2 POP SLOAD SWAP1 PUSH2 0x100 EXP SWAP1 DIV PUSH20 0xFFFFFFFFFFFFFFFFFFFFFFFFFFFFFFFFFFFFFFFF AND DUP2 JUMP JUMPDEST PUSH1 0x5 SLOAD DUP2 JUMP JUMPDEST PUSH1 0x6 SLOAD DUP2 JUMP JUMPDEST PUSH1 0xB PUSH0 SWAP1 SLOAD SWAP1 PUSH2 0x100 EXP SWAP1 DIV PUSH20 0xFFFFFFFFFFFFFFFFFFFFFFFFFFFFFFFFFFFFFFFF AND DUP2 JUMP JUMPDEST TIMESTAMP PUSH1 0x7 SLOAD LT ISZERO PUSH2 0xD1D JUMPI PUSH1 0x40 MLOAD PUSH32 0x8C379A000000000000000000000000000000000000000000000000000000000 DUP2 MSTORE PUSH1 0x4 ADD PUSH2 0xD14 SWAP1 PUSH2 0x25E0 JUMP JUMPDEST PUSH1 0x40 MLOAD DUP1 SWAP2 SUB SWAP1 REVERT JUMPDEST PUSH0 CALLVALUE GT PUSH2 0xD5F JUMPI PUSH1 0x40 MLOAD PUSH32 0x8C379A000000000000000000000000000000000000000000000000000000000 DUP2 MSTORE PUSH1 0x4 ADD PUSH2 0xD56 SWAP1 PUSH2 0x2648 JUMP JUMPDEST PUSH1 0x40 MLOAD DUP1 SWAP2 SUB SWAP1 REVERT JUMPDEST PUSH1 0x1 PUSH0 DUP1 CALLER PUSH20 0xFFFFFFFFFFFFFFFFFFFFFFFFFFFFFFFFFFFFFFFF AND PUSH20 0xFFFFFFFFFFFFFFFFFFFFFFFFFFFFFFFFFFFFFFFF AND DUP2 MSTORE PUSH1 0x20 ADD SWAP1 DUP2 MSTORE PUSH1 0x20 ADD PUSH0 KECCAK256 PUSH0 PUSH2 0x100 EXP DUP2 SLOAD DUP2 PUSH1 0xFF MUL NOT AND SWAP1 DUP4 ISZERO ISZERO MUL OR SWAP1 SSTORE POP CALLVALUE PUSH1 0x1 PUSH0 CALLER PUSH20 0xFFFFFFFFFFFFFFFFFFFFFFFFFFFFFFFFFFFFFFFF AND PUSH20 0xFFFFFFFFFFFFFFFFFFFFFFFFFFFFFFFFFFFFFFFF AND DUP2 MSTORE PUSH1 0x20 ADD SWAP1 DUP2 MSTORE PUSH1 0x20 ADD PUSH0 KECCAK256 PUSH0 DUP3 DUP3 SLOAD PUSH2 0xDFF SWAP2 SWAP1 PUSH2 0x239D JUMP JUMPDEST SWAP3 POP POP DUP2 SWAP1 SSTORE POP CALLVALUE PUSH1 0x5 PUSH0 DUP3 DUP3 SLOAD PUSH2 0xE17 SWAP2 SWAP1 PUSH2 0x239D JUMP JUMPDEST SWAP3 POP POP DUP2 SWAP1 SSTORE POP PUSH1 0x3 CALLER SWAP1 DUP1 PUSH1 0x1 DUP2 SLOAD ADD DUP1 DUP3 SSTORE DUP1 SWAP2 POP POP PUSH1 0x1 SWAP1 SUB SWAP1 PUSH0 MSTORE PUSH1 0x20 PUSH0 KECCAK256 ADD PUSH0 SWAP1 SWAP2 SWAP1 SWAP2 SWAP1 SWAP2 PUSH2 0x100 EXP DUP2 SLOAD DUP2 PUSH20 0xFFFFFFFFFFFFFFFFFFFFFFFFFFFFFFFFFFFFFFFF MUL NOT AND SWAP1 DUP4 PUSH20 0xFFFFFFFFFFFFFFFFFFFFFFFFFFFFFFFFFFFFFFFF AND MUL OR SWAP1 SSTORE POP CALLVALUE PUSH1 0x6 PUSH0 DUP3 DUP3 SLOAD PUSH2 0xE8F SWAP2 SWAP1 PUSH2 0x239D JUMP JUMPDEST SWAP3 POP POP DUP2 SWAP1 SSTORE POP JUMP JUMPDEST PUSH1 0x1 PUSH1 0x20 MSTORE DUP1 PUSH0 MSTORE PUSH1 0x40 PUSH0 KECCAK256 PUSH0 SWAP2 POP SWAP1 POP SLOAD DUP2 JUMP JUMPDEST DUP2 PUSH1 0x6 SLOAD LT ISZERO PUSH2 0xEF2 JUMPI PUSH1 0x40 MLOAD PUSH32 0x8C379A000000000000000000000000000000000000000000000000000000000 DUP2 MSTORE PUSH1 0x4 ADD PUSH2 0xEE9 SWAP1 PUSH2 0x26B0 JUMP JUMPDEST PUSH1 0x40 MLOAD DUP1 SWAP2 SUB SWAP1 REVERT JUMPDEST PUSH1 0x40 MLOAD DUP1 PUSH2 0x120 ADD PUSH1 0x40 MSTORE DUP1 PUSH1 0x8 SLOAD DUP2 MSTORE PUSH1 0x20 ADD DUP6 DUP6 DUP1 DUP1 PUSH1 0x1F ADD PUSH1 0x20 DUP1 SWAP2 DIV MUL PUSH1 0x20 ADD PUSH1 0x40 MLOAD SWAP1 DUP2 ADD PUSH1 0x40 MSTORE DUP1 SWAP4 SWAP3 SWAP2 SWAP1 DUP2 DUP2 MSTORE PUSH1 0x20 ADD DUP4 DUP4 DUP1 DUP3 DUP5 CALLDATACOPY PUSH0 DUP2 DUP5 ADD MSTORE PUSH1 0x1F NOT PUSH1 0x1F DUP3 ADD AND SWAP1 POP DUP1 DUP4 ADD SWAP3 POP POP POP POP POP POP POP DUP2 MSTORE PUSH1 0x20 ADD DUP4 DUP2 MSTORE PUSH1 0x20 ADD DUP3 PUSH20 0xFFFFFFFFFFFFFFFFFFFFFFFFFFFFFFFFFFFFFFFF AND DUP2 MSTORE PUSH1 0x20 ADD PUSH0 DUP2 MSTORE PUSH1 0x20 ADD PUSH1 0x9 SLOAD TIMESTAMP PUSH2 0xF85 SWAP2 SWAP1 PUSH2 0x239D JUMP JUMPDEST DUP2 MSTORE PUSH1 0x20 ADD PUSH0 ISZERO ISZERO DUP2 MSTORE PUSH1 0x20 ADD PUSH0 ISZERO ISZERO DUP2 MSTORE PUSH1 0x20 ADD PUSH0 ISZERO ISZERO DUP2 MSTORE POP PUSH1 0x4 PUSH0 PUSH1 0x8 SLOAD DUP2 MSTORE PUSH1 0x20 ADD SWAP1 DUP2 MSTORE PUSH1 0x20 ADD PUSH0 KECCAK256 PUSH0 DUP3 ADD MLOAD DUP2 PUSH0 ADD SSTORE PUSH1 0x20 DUP3 ADD MLOAD DUP2 PUSH1 0x1 ADD SWAP1 DUP2 PUSH2 0xFD0 SWAP2 SWAP1 PUSH2 0x2898 JUMP JUMPDEST POP PUSH1 0x40 DUP3 ADD MLOAD DUP2 PUSH1 0x2 ADD SSTORE PUSH1 0x60 DUP3 ADD MLOAD DUP2 PUSH1 0x3 ADD PUSH0 PUSH2 0x100 EXP DUP2 SLOAD DUP2 PUSH20 0xFFFFFFFFFFFFFFFFFFFFFFFFFFFFFFFFFFFFFFFF MUL NOT AND SWAP1 DUP4 PUSH20 0xFFFFFFFFFFFFFFFFFFFFFFFFFFFFFFFFFFFFFFFF AND MUL OR SWAP1 SSTORE POP PUSH1 0x80 DUP3 ADD MLOAD DUP2 PUSH1 0x4 ADD SSTORE PUSH1 0xA0 DUP3 ADD MLOAD DUP2 PUSH1 0x5 ADD SSTORE PUSH1 0xC0 DUP3 ADD MLOAD DUP2 PUSH1 0x6 ADD PUSH0 PUSH2 0x100 EXP DUP2 SLOAD DUP2 PUSH1 0xFF MUL NOT AND SWAP1 DUP4 ISZERO ISZERO MUL OR SWAP1 SSTORE POP PUSH1 0xE0 DUP3 ADD MLOAD DUP2 PUSH1 0x6 ADD PUSH1 0x1 PUSH2 0x100 EXP DUP2 SLOAD DUP2 PUSH1 0xFF MUL NOT AND SWAP1 DUP4 ISZERO ISZERO MUL OR SWAP1 SSTORE POP PUSH2 0x100 DUP3 ADD MLOAD DUP2 PUSH1 0x6 ADD PUSH1 0x2 PUSH2 0x100 EXP DUP2 SLOAD DUP2 PUSH1 0xFF MUL NOT AND SWAP1 DUP4 ISZERO ISZERO MUL OR SWAP1 SSTORE POP SWAP1 POP POP PUSH1 0x8 PUSH0 DUP2 SLOAD DUP1 SWAP3 SWAP2 SWAP1 PUSH2 0x10AA SWAP1 PUSH2 0x2967 JUMP JUMPDEST SWAP2 SWAP1 POP SSTORE POP POP POP POP POP JUMP JUMPDEST PUSH1 0x60 PUSH0 PUSH1 0x8 SLOAD PUSH8 0xFFFFFFFFFFFFFFFF DUP2 GT ISZERO PUSH2 0x10D4 JUMPI PUSH2 0x10D3 PUSH2 0x26CE JUMP JUMPDEST JUMPDEST PUSH1 0x40 MLOAD SWAP1 DUP1 DUP3 MSTORE DUP1 PUSH1 0x20 MUL PUSH1 0x20 ADD DUP3 ADD PUSH1 0x40 MSTORE DUP1 ISZERO PUSH2 0x110D JUMPI DUP2 PUSH1 0x20 ADD JUMPDEST PUSH2 0x10FA PUSH2 0x19E8 JUMP JUMPDEST DUP2 MSTORE PUSH1 0x20 ADD SWAP1 PUSH1 0x1 SWAP1 SUB SWAP1 DUP2 PUSH2 0x10F2 JUMPI SWAP1 POP JUMPDEST POP SWAP1 POP PUSH0 JUMPDEST PUSH1 0x8 SLOAD DUP2 LT ISZERO PUSH2 0x12C6 JUMPI PUSH1 0x4 PUSH0 DUP3 DUP2 MSTORE PUSH1 0x20 ADD SWAP1 DUP2 MSTORE PUSH1 0x20 ADD PUSH0 KECCAK256 PUSH1 0x40 MLOAD DUP1 PUSH2 0x120 ADD PUSH1 0x40 MSTORE SWAP1 DUP2 PUSH0 DUP3 ADD SLOAD DUP2 MSTORE PUSH1 0x20 ADD PUSH1 0x1 DUP3 ADD DUP1 SLOAD PUSH2 0x1152 SWAP1 PUSH2 0x20A9 JUMP JUMPDEST DUP1 PUSH1 0x1F ADD PUSH1 0x20 DUP1 SWAP2 DIV MUL PUSH1 0x20 ADD PUSH1 0x40 MLOAD SWAP1 DUP2 ADD PUSH1 0x40 MSTORE DUP1 SWAP3 SWAP2 SWAP1 DUP2 DUP2 MSTORE PUSH1 0x20 ADD DUP3 DUP1 SLOAD PUSH2 0x117E SWAP1 PUSH2 0x20A9 JUMP JUMPDEST DUP1 ISZERO PUSH2 0x11C9 JUMPI DUP1 PUSH1 0x1F LT PUSH2 0x11A0 JUMPI PUSH2 0x100 DUP1 DUP4 SLOAD DIV MUL DUP4 MSTORE SWAP2 PUSH1 0x20 ADD SWAP2 PUSH2 0x11C9 JUMP JUMPDEST DUP3 ADD SWAP2 SWAP1 PUSH0 MSTORE PUSH1 0x20 PUSH0 KECCAK256 SWAP1 JUMPDEST DUP2 SLOAD DUP2 MSTORE SWAP1 PUSH1 0x1 ADD SWAP1 PUSH1 0x20 ADD DUP1 DUP4 GT PUSH2 0x11AC JUMPI DUP3 SWAP1 SUB PUSH1 0x1F AND DUP3 ADD SWAP2 JUMPDEST POP POP POP POP POP DUP2 MSTORE PUSH1 0x20 ADD PUSH1 0x2 DUP3 ADD SLOAD DUP2 MSTORE PUSH1 0x20 ADD PUSH1 0x3 DUP3 ADD PUSH0 SWAP1 SLOAD SWAP1 PUSH2 0x100 EXP SWAP1 DIV PUSH20 0xFFFFFFFFFFFFFFFFFFFFFFFFFFFFFFFFFFFFFFFF AND PUSH20 0xFFFFFFFFFFFFFFFFFFFFFFFFFFFFFFFFFFFFFFFF AND PUSH20 0xFFFFFFFFFFFFFFFFFFFFFFFFFFFFFFFFFFFFFFFF AND DUP2 MSTORE PUSH1 0x20 ADD PUSH1 0x4 DUP3 ADD SLOAD DUP2 MSTORE PUSH1 0x20 ADD PUSH1 0x5 DUP3 ADD SLOAD DUP2 MSTORE PUSH1 0x20 ADD PUSH1 0x6 DUP3 ADD PUSH0 SWAP1 SLOAD SWAP1 PUSH2 0x100 EXP SWAP1 DIV PUSH1 0xFF AND ISZERO ISZERO ISZERO ISZERO DUP2 MSTORE PUSH1 0x20 ADD PUSH1 0x6 DUP3 ADD PUSH1 0x1 SWAP1 SLOAD SWAP1 PUSH2 0x100 EXP SWAP1 DIV PUSH1 0xFF AND ISZERO ISZERO ISZERO ISZERO DUP2 MSTORE PUSH1 0x20 ADD PUSH1 0x6 DUP3 ADD PUSH1 0x2 SWAP1 SLOAD SWAP1 PUSH2 0x100 EXP SWAP1 DIV PUSH1 0xFF AND ISZERO ISZERO ISZERO ISZERO DUP2 MSTORE POP POP DUP3 DUP3 DUP2 MLOAD DUP2 LT PUSH2 0x12A8 JUMPI PUSH2 0x12A7 PUSH2 0x29AE JUMP JUMPDEST JUMPDEST PUSH1 0x20 MUL PUSH1 0x20 ADD ADD DUP2 SWAP1 MSTORE POP DUP1 DUP1 PUSH2 0x12BE SWAP1 PUSH2 0x2967 JUMP JUMPDEST SWAP2 POP POP PUSH2 0x1112 JUMP JUMPDEST POP DUP1 SWAP2 POP POP SWAP1 JUMP JUMPDEST PUSH1 0x1 ISZERO ISZERO PUSH0 DUP1 CALLER PUSH20 0xFFFFFFFFFFFFFFFFFFFFFFFFFFFFFFFFFFFFFFFF AND PUSH20 0xFFFFFFFFFFFFFFFFFFFFFFFFFFFFFFFFFFFFFFFF AND DUP2 MSTORE PUSH1 0x20 ADD SWAP1 DUP2 MSTORE PUSH1 0x20 ADD PUSH0 KECCAK256 PUSH0 SWAP1 SLOAD SWAP1 PUSH2 0x100 EXP SWAP1 DIV PUSH1 0xFF AND ISZERO ISZERO EQ PUSH2 0x135D JUMPI PUSH1 0x40 MLOAD PUSH32 0x8C379A000000000000000000000000000000000000000000000000000000000 DUP2 MSTORE PUSH1 0x4 ADD PUSH2 0x1354 SWAP1 PUSH2 0x2123 JUMP JUMPDEST PUSH1 0x40 MLOAD DUP1 SWAP2 SUB SWAP1 REVERT JUMPDEST PUSH0 PUSH1 0x4 PUSH0 DUP4 DUP2 MSTORE PUSH1 0x20 ADD SWAP1 DUP2 MSTORE PUSH1 0x20 ADD PUSH0 KECCAK256 SWAP1 POP PUSH0 ISZERO ISZERO PUSH1 0x2 PUSH0 CALLER PUSH20 0xFFFFFFFFFFFFFFFFFFFFFFFFFFFFFFFFFFFFFFFF AND PUSH20 0xFFFFFFFFFFFFFFFFFFFFFFFFFFFFFFFFFFFFFFFF AND DUP2 MSTORE PUSH1 0x20 ADD SWAP1 DUP2 MSTORE PUSH1 0x20 ADD PUSH0 KECCAK256 PUSH0 DUP5 DUP2 MSTORE PUSH1 0x20 ADD SWAP1 DUP2 MSTORE PUSH1 0x20 ADD PUSH0 KECCAK256 PUSH0 SWAP1 SLOAD SWAP1 PUSH2 0x100 EXP SWAP1 DIV PUSH1 0xFF AND ISZERO ISZERO EQ PUSH2 0x140F JUMPI PUSH1 0x40 MLOAD PUSH32 0x8C379A000000000000000000000000000000000000000000000000000000000 DUP2 MSTORE PUSH1 0x4 ADD PUSH2 0x1406 SWAP1 PUSH2 0x2A4B JUMP JUMPDEST PUSH1 0x40 MLOAD DUP1 SWAP2 SUB SWAP1 REVERT JUMPDEST TIMESTAMP DUP2 PUSH1 0x5 ADD SLOAD LT ISZERO PUSH2 0x1456 JUMPI PUSH1 0x40 MLOAD PUSH32 0x8C379A000000000000000000000000000000000000000000000000000000000 DUP2 MSTORE PUSH1 0x4 ADD PUSH2 0x144D SWAP1 PUSH2 0x2AB3 JUMP JUMPDEST PUSH1 0x40 MLOAD DUP1 SWAP2 SUB SWAP1 REVERT JUMPDEST PUSH0 ISZERO ISZERO DUP2 PUSH1 0x6 ADD PUSH0 SWAP1 SLOAD SWAP1 PUSH2 0x100 EXP SWAP1 DIV PUSH1 0xFF AND ISZERO ISZERO EQ PUSH2 0x14AC JUMPI PUSH1 0x40 MLOAD PUSH32 0x8C379A000000000000000000000000000000000000000000000000000000000 DUP2 MSTORE PUSH1 0x4 ADD PUSH2 0x14A3 SWAP1 PUSH2 0x2B1B JUMP JUMPDEST PUSH1 0x40 MLOAD DUP1 SWAP2 SUB SWAP1 REVERT JUMPDEST PUSH0 ISZERO ISZERO DUP2 PUSH1 0x6 ADD PUSH1 0x2 SWAP1 SLOAD SWAP1 PUSH2 0x100 EXP SWAP1 DIV PUSH1 0xFF AND ISZERO ISZERO EQ PUSH2 0x1503 JUMPI PUSH1 0x40 MLOAD PUSH32 0x8C379A000000000000000000000000000000000000000000000000000000000 DUP2 MSTORE PUSH1 0x4 ADD PUSH2 0x14FA SWAP1 PUSH2 0x2578 JUMP JUMPDEST PUSH1 0x40 MLOAD DUP1 SWAP2 SUB SWAP1 REVERT JUMPDEST PUSH1 0x1 PUSH1 0x2 PUSH0 CALLER PUSH20 0xFFFFFFFFFFFFFFFFFFFFFFFFFFFFFFFFFFFFFFFF AND PUSH20 0xFFFFFFFFFFFFFFFFFFFFFFFFFFFFFFFFFFFFFFFF AND DUP2 MSTORE PUSH1 0x20 ADD SWAP1 DUP2 MSTORE PUSH1 0x20 ADD PUSH0 KECCAK256 PUSH0 DUP5 DUP2 MSTORE PUSH1 0x20 ADD SWAP1 DUP2 MSTORE PUSH1 0x20 ADD PUSH0 KECCAK256 PUSH0 PUSH2 0x100 EXP DUP2 SLOAD DUP2 PUSH1 0xFF MUL NOT AND SWAP1 DUP4 ISZERO ISZERO MUL OR SWAP1 SSTORE POP PUSH1 0x1 PUSH0 CALLER PUSH20 0xFFFFFFFFFFFFFFFFFFFFFFFFFFFFFFFFFFFFFFFF AND PUSH20 0xFFFFFFFFFFFFFFFFFFFFFFFFFFFFFFFFFFFFFFFF AND DUP2 MSTORE PUSH1 0x20 ADD SWAP1 DUP2 MSTORE PUSH1 0x20 ADD PUSH0 KECCAK256 SLOAD DUP2 PUSH1 0x4 ADD PUSH0 DUP3 DUP3 SLOAD PUSH2 0x15B7 SWAP2 SWAP1 PUSH2 0x239D JUMP JUMPDEST SWAP3 POP POP DUP2 SWAP1 SSTORE POP POP POP JUMP JUMPDEST CALLER PUSH20 0xFFFFFFFFFFFFFFFFFFFFFFFFFFFFFFFFFFFFFFFF AND PUSH1 0xB PUSH0 SWAP1 SLOAD SWAP1 PUSH2 0x100 EXP SWAP1 DIV PUSH20 0xFFFFFFFFFFFFFFFFFFFFFFFFFFFFFFFFFFFFFFFF AND PUSH20 0xFFFFFFFFFFFFFFFFFFFFFFFFFFFFFFFFFFFFFFFF AND EQ PUSH2 0x1651 JUMPI PUSH1 0x40 MLOAD PUSH32 0x8C379A000000000000000000000000000000000000000000000000000000000 DUP2 MSTORE PUSH1 0x4 ADD PUSH2 0x1648 SWAP1 PUSH2 0x241A JUMP JUMPDEST PUSH1 0x40 MLOAD DUP1 SWAP2 SUB SWAP1 REVERT JUMPDEST PUSH0 PUSH1 0x4 PUSH0 DUP4 DUP2 MSTORE PUSH1 0x20 ADD SWAP1 DUP2 MSTORE PUSH1 0x20 ADD PUSH0 KECCAK256 SWAP1 POP TIMESTAMP DUP2 PUSH1 0x5 ADD SLOAD GT PUSH2 0x16AB JUMPI PUSH1 0x40 MLOAD PUSH32 0x8C379A000000000000000000000000000000000000000000000000000000000 DUP2 MSTORE PUSH1 0x4 ADD PUSH2 0x16A2 SWAP1 PUSH2 0x2B83 JUMP JUMPDEST PUSH1 0x40 MLOAD DUP1 SWAP2 SUB SWAP1 REVERT JUMPDEST PUSH1 0x1 DUP2 PUSH1 0x6 ADD PUSH1 0x2 PUSH2 0x100 EXP DUP2 SLOAD DUP2 PUSH1 0xFF MUL NOT AND SWAP1 DUP4 ISZERO ISZERO MUL OR SWAP1 SSTORE POP POP POP JUMP JUMPDEST PUSH1 0x2 PUSH1 0x20 MSTORE DUP2 PUSH0 MSTORE PUSH1 0x40 PUSH0 KECCAK256 PUSH1 0x20 MSTORE DUP1 PUSH0 MSTORE PUSH1 0x40 PUSH0 KECCAK256 PUSH0 SWAP2 POP SWAP2 POP SWAP1 SLOAD SWAP1 PUSH2 0x100 EXP SWAP1 DIV PUSH1 0xFF AND DUP2 JUMP JUMPDEST PUSH1 0x7 SLOAD DUP2 JUMP JUMPDEST PUSH1 0x9 SLOAD DUP2 JUMP JUMPDEST PUSH1 0x1 ISZERO ISZERO PUSH0 DUP1 CALLER PUSH20 0xFFFFFFFFFFFFFFFFFFFFFFFFFFFFFFFFFFFFFFFF AND PUSH20 0xFFFFFFFFFFFFFFFFFFFFFFFFFFFFFFFFFFFFFFFF AND DUP2 MSTORE PUSH1 0x20 ADD SWAP1 DUP2 MSTORE PUSH1 0x20 ADD PUSH0 KECCAK256 PUSH0 SWAP1 SLOAD SWAP1 PUSH2 0x100 EXP SWAP1 DIV PUSH1 0xFF AND ISZERO ISZERO EQ PUSH2 0x1791 JUMPI PUSH1 0x40 MLOAD PUSH32 0x8C379A000000000000000000000000000000000000000000000000000000000 DUP2 MSTORE PUSH1 0x4 ADD PUSH2 0x1788 SWAP1 PUSH2 0x2123 JUMP JUMPDEST PUSH1 0x40 MLOAD DUP1 SWAP2 SUB SWAP1 REVERT JUMPDEST DUP1 PUSH1 0x1 PUSH0 CALLER PUSH20 0xFFFFFFFFFFFFFFFFFFFFFFFFFFFFFFFFFFFFFFFF AND PUSH20 0xFFFFFFFFFFFFFFFFFFFFFFFFFFFFFFFFFFFFFFFF AND DUP2 MSTORE PUSH1 0x20 ADD SWAP1 DUP2 MSTORE PUSH1 0x20 ADD PUSH0 KECCAK256 SLOAD LT ISZERO PUSH2 0x1811 JUMPI PUSH1 0x40 MLOAD PUSH32 0x8C379A000000000000000000000000000000000000000000000000000000000 DUP2 MSTORE PUSH1 0x4 ADD PUSH2 0x1808 SWAP1 PUSH2 0x22E4 JUMP JUMPDEST PUSH1 0x40 MLOAD DUP1 SWAP2 SUB SWAP1 REVERT JUMPDEST DUP1 PUSH1 0x6 SLOAD LT ISZERO PUSH2 0x1856 JUMPI PUSH1 0x40 MLOAD PUSH32 0x8C379A000000000000000000000000000000000000000000000000000000000 DUP2 MSTORE PUSH1 0x4 ADD PUSH2 0x184D SWAP1 PUSH2 0x234C JUMP JUMPDEST PUSH1 0x40 MLOAD DUP1 SWAP2 SUB SWAP1 REVERT JUMPDEST DUP1 PUSH1 0x1 PUSH0 CALLER PUSH20 0xFFFFFFFFFFFFFFFFFFFFFFFFFFFFFFFFFFFFFFFF AND PUSH20 0xFFFFFFFFFFFFFFFFFFFFFFFFFFFFFFFFFFFFFFFF AND DUP2 MSTORE PUSH1 0x20 ADD SWAP1 DUP2 MSTORE PUSH1 0x20 ADD PUSH0 KECCAK256 PUSH0 DUP3 DUP3 SLOAD PUSH2 0x18A2 SWAP2 SWAP1 PUSH2 0x236A JUMP JUMPDEST SWAP3 POP POP DUP2 SWAP1 SSTORE POP PUSH0 PUSH1 0x1 PUSH0 CALLER PUSH20 0xFFFFFFFFFFFFFFFFFFFFFFFFFFFFFFFFFFFFFFFF AND PUSH20 0xFFFFFFFFFFFFFFFFFFFFFFFFFFFFFFFFFFFFFFFF AND DUP2 MSTORE PUSH1 0x20 ADD SWAP1 DUP2 MSTORE PUSH1 0x20 ADD PUSH0 KECCAK256 SLOAD SUB PUSH2 0x1941 JUMPI PUSH0 DUP1 PUSH0 CALLER PUSH20 0xFFFFFFFFFFFFFFFFFFFFFFFFFFFFFFFFFFFFFFFF AND PUSH20 0xFFFFFFFFFFFFFFFFFFFFFFFFFFFFFFFFFFFFFFFF AND DUP2 MSTORE PUSH1 0x20 ADD SWAP1 DUP2 MSTORE PUSH1 0x20 ADD PUSH0 KECCAK256 PUSH0 PUSH2 0x100 EXP DUP2 SLOAD DUP2 PUSH1 0xFF MUL NOT AND SWAP1 DUP4 ISZERO ISZERO MUL OR SWAP1 SSTORE POP JUMPDEST DUP1 PUSH1 0x6 PUSH0 DUP3 DUP3 SLOAD PUSH2 0x1952 SWAP2 SWAP1 PUSH2 0x236A JUMP JUMPDEST SWAP3 POP POP DUP2 SWAP1 SSTORE POP CALLER PUSH20 0xFFFFFFFFFFFFFFFFFFFFFFFFFFFFFFFFFFFFFFFF AND PUSH2 0x8FC DUP3 SWAP1 DUP2 ISZERO MUL SWAP1 PUSH1 0x40 MLOAD PUSH0 PUSH1 0x40 MLOAD DUP1 DUP4 SUB DUP2 DUP6 DUP9 DUP9 CALL SWAP4 POP POP POP POP ISZERO DUP1 ISZERO PUSH2 0x199C JUMPI RETURNDATASIZE PUSH0 DUP1 RETURNDATACOPY RETURNDATASIZE PUSH0 REVERT JUMPDEST POP POP JUMP JUMPDEST DUP1 PUSH20 0xFFFFFFFFFFFFFFFFFFFFFFFFFFFFFFFFFFFFFFFF AND PUSH2 0x8FC DUP4 SWAP1 DUP2 ISZERO MUL SWAP1 PUSH1 0x40 MLOAD PUSH0 PUSH1 0x40 MLOAD DUP1 DUP4 SUB DUP2 DUP6 DUP9 DUP9 CALL SWAP4 POP POP POP POP ISZERO DUP1 ISZERO PUSH2 0x19E3 JUMPI RETURNDATASIZE PUSH0 DUP1 RETURNDATACOPY RETURNDATASIZE PUSH0 REVERT JUMPDEST POP POP POP JUMP JUMPDEST PUSH1 0x40 MLOAD DUP1 PUSH2 0x120 ADD PUSH1 0x40 MSTORE DUP1 PUSH0 DUP2 MSTORE PUSH1 0x20 ADD PUSH1 0x60 DUP2 MSTORE PUSH1 0x20 ADD PUSH0 DUP2 MSTORE PUSH1 0x20 ADD PUSH0 PUSH20 0xFFFFFFFFFFFFFFFFFFFFFFFFFFFFFFFFFFFFFFFF AND DUP2 MSTORE PUSH1 0x20 ADD PUSH0 DUP2 MSTORE PUSH1 0x20 ADD PUSH0 DUP2 MSTORE PUSH1 0x20 ADD PUSH0 ISZERO ISZERO DUP2 MSTORE PUSH1 0x20 ADD PUSH0 ISZERO ISZERO DUP2 MSTORE PUSH1 0x20 ADD PUSH0 ISZERO ISZERO DUP2 MSTORE POP SWAP1 JUMP JUMPDEST PUSH0 DUP1 REVERT JUMPDEST PUSH0 DUP1 REVERT JUMPDEST PUSH0 DUP2 SWAP1 POP SWAP2 SWAP1 POP JUMP JUMPDEST PUSH2 0x1A62 DUP2 PUSH2 0x1A50 JUMP JUMPDEST DUP2 EQ PUSH2 0x1A6C JUMPI PUSH0 DUP1 REVERT JUMPDEST POP JUMP JUMPDEST PUSH0 DUP2 CALLDATALOAD SWAP1 POP PUSH2 0x1A7D DUP2 PUSH2 0x1A59 JUMP JUMPDEST SWAP3 SWAP2 POP POP JUMP JUMPDEST PUSH0 PUSH1 0x20 DUP3 DUP5 SUB SLT ISZERO PUSH2 0x1A98 JUMPI PUSH2 0x1A97 PUSH2 0x1A48 JUMP JUMPDEST JUMPDEST PUSH0 PUSH2 0x1AA5 DUP5 DUP3 DUP6 ADD PUSH2 0x1A6F JUMP JUMPDEST SWAP2 POP POP SWAP3 SWAP2 POP POP JUMP JUMPDEST PUSH2 0x1AB7 DUP2 PUSH2 0x1A50 JUMP JUMPDEST DUP3 MSTORE POP POP JUMP JUMPDEST PUSH0 DUP2 MLOAD SWAP1 POP SWAP2 SWAP1 POP JUMP JUMPDEST PUSH0 DUP3 DUP3 MSTORE PUSH1 0x20 DUP3 ADD SWAP1 POP SWAP3 SWAP2 POP POP JUMP JUMPDEST PUSH0 JUMPDEST DUP4 DUP2 LT ISZERO PUSH2 0x1AF4 JUMPI DUP1 DUP3 ADD MLOAD DUP2 DUP5 ADD MSTORE PUSH1 0x20 DUP2 ADD SWAP1 POP PUSH2 0x1AD9 JUMP JUMPDEST PUSH0 DUP5 DUP5 ADD MSTORE POP POP POP POP JUMP JUMPDEST PUSH0 PUSH1 0x1F NOT PUSH1 0x1F DUP4 ADD AND SWAP1 POP SWAP2 SWAP1 POP JUMP JUMPDEST PUSH0 PUSH2 0x1B19 DUP3 PUSH2 0x1ABD JUMP JUMPDEST PUSH2 0x1B23 DUP2 DUP6 PUSH2 0x1AC7 JUMP JUMPDEST SWAP4 POP PUSH2 0x1B33 DUP2 DUP6 PUSH1 0x20 DUP7 ADD PUSH2 0x1AD7 JUMP JUMPDEST PUSH2 0x1B3C DUP2 PUSH2 0x1AFF JUMP JUMPDEST DUP5 ADD SWAP2 POP POP SWAP3 SWAP2 POP POP JUMP JUMPDEST PUSH0 PUSH20 0xFFFFFFFFFFFFFFFFFFFFFFFFFFFFFFFFFFFFFFFF DUP3 AND SWAP1 POP SWAP2 SWAP1 POP JUMP JUMPDEST PUSH0 PUSH2 0x1B70 DUP3 PUSH2 0x1B47 JUMP JUMPDEST SWAP1 POP SWAP2 SWAP1 POP JUMP JUMPDEST PUSH2 0x1B80 DUP2 PUSH2 0x1B66 JUMP JUMPDEST DUP3 MSTORE POP POP JUMP JUMPDEST PUSH0 DUP2 ISZERO ISZERO SWAP1 POP SWAP2 SWAP1 POP JUMP JUMPDEST PUSH2 0x1B9A DUP2 PUSH2 0x1B86 JUMP JUMPDEST DUP3 MSTORE POP POP JUMP JUMPDEST PUSH0 PUSH2 0x120 DUP3 ADD SWAP1 POP PUSH2 0x1BB4 PUSH0 DUP4 ADD DUP13 PUSH2 0x1AAE JUMP JUMPDEST DUP2 DUP2 SUB PUSH1 0x20 DUP4 ADD MSTORE PUSH2 0x1BC6 DUP2 DUP12 PUSH2 0x1B0F JUMP JUMPDEST SWAP1 POP PUSH2 0x1BD5 PUSH1 0x40 DUP4 ADD DUP11 PUSH2 0x1AAE JUMP JUMPDEST PUSH2 0x1BE2 PUSH1 0x60 DUP4 ADD DUP10 PUSH2 0x1B77 JUMP JUMPDEST PUSH2 0x1BEF PUSH1 0x80 DUP4 ADD DUP9 PUSH2 0x1AAE JUMP JUMPDEST PUSH2 0x1BFC PUSH1 0xA0 DUP4 ADD DUP8 PUSH2 0x1AAE JUMP JUMPDEST PUSH2 0x1C09 PUSH1 0xC0 DUP4 ADD DUP7 PUSH2 0x1B91 JUMP JUMPDEST PUSH2 0x1C16 PUSH1 0xE0 DUP4 ADD DUP6 PUSH2 0x1B91 JUMP JUMPDEST PUSH2 0x1C24 PUSH2 0x100 DUP4 ADD DUP5 PUSH2 0x1B91 JUMP JUMPDEST SWAP11 SWAP10 POP POP POP POP POP POP POP POP POP POP JUMP JUMPDEST PUSH0 PUSH2 0x1C3C DUP3 PUSH2 0x1B47 JUMP JUMPDEST SWAP1 POP SWAP2 SWAP1 POP JUMP JUMPDEST PUSH2 0x1C4C DUP2 PUSH2 0x1C32 JUMP JUMPDEST DUP2 EQ PUSH2 0x1C56 JUMPI PUSH0 DUP1 REVERT JUMPDEST POP JUMP JUMPDEST PUSH0 DUP2 CALLDATALOAD SWAP1 POP PUSH2 0x1C67 DUP2 PUSH2 0x1C43 JUMP JUMPDEST SWAP3 SWAP2 POP POP JUMP JUMPDEST PUSH0 DUP1 PUSH1 0x40 DUP4 DUP6 SUB SLT ISZERO PUSH2 0x1C83 JUMPI PUSH2 0x1C82 PUSH2 0x1A48 JUMP JUMPDEST JUMPDEST PUSH0 PUSH2 0x1C90 DUP6 DUP3 DUP7 ADD PUSH2 0x1A6F JUMP JUMPDEST SWAP3 POP POP PUSH1 0x20 PUSH2 0x1CA1 DUP6 DUP3 DUP7 ADD PUSH2 0x1C59 JUMP JUMPDEST SWAP2 POP POP SWAP3 POP SWAP3 SWAP1 POP JUMP JUMPDEST PUSH0 PUSH1 0x20 DUP3 ADD SWAP1 POP PUSH2 0x1CBE PUSH0 DUP4 ADD DUP5 PUSH2 0x1AAE JUMP JUMPDEST SWAP3 SWAP2 POP POP JUMP JUMPDEST PUSH2 0x1CCD DUP2 PUSH2 0x1C32 JUMP JUMPDEST DUP3 MSTORE POP POP JUMP JUMPDEST PUSH0 PUSH1 0x20 DUP3 ADD SWAP1 POP PUSH2 0x1CE6 PUSH0 DUP4 ADD DUP5 PUSH2 0x1CC4 JUMP JUMPDEST SWAP3 SWAP2 POP POP JUMP JUMPDEST PUSH0 PUSH1 0x20 DUP3 DUP5 SUB SLT ISZERO PUSH2 0x1D01 JUMPI PUSH2 0x1D00 PUSH2 0x1A48 JUMP JUMPDEST JUMPDEST PUSH0 PUSH2 0x1D0E DUP5 DUP3 DUP6 ADD PUSH2 0x1C59 JUMP JUMPDEST SWAP2 POP POP SWAP3 SWAP2 POP POP JUMP JUMPDEST PUSH0 DUP1 REVERT JUMPDEST PUSH0 DUP1 REVERT JUMPDEST PUSH0 DUP1 REVERT JUMPDEST PUSH0 DUP1 DUP4 PUSH1 0x1F DUP5 ADD SLT PUSH2 0x1D38 JUMPI PUSH2 0x1D37 PUSH2 0x1D17 JUMP JUMPDEST JUMPDEST DUP3 CALLDATALOAD SWAP1 POP PUSH8 0xFFFFFFFFFFFFFFFF DUP2 GT ISZERO PUSH2 0x1D55 JUMPI PUSH2 0x1D54 PUSH2 0x1D1B JUMP JUMPDEST JUMPDEST PUSH1 0x20 DUP4 ADD SWAP2 POP DUP4 PUSH1 0x1 DUP3 MUL DUP4 ADD GT ISZERO PUSH2 0x1D71 JUMPI PUSH2 0x1D70 PUSH2 0x1D1F JUMP JUMPDEST JUMPDEST SWAP3 POP SWAP3 SWAP1 POP JUMP JUMPDEST PUSH2 0x1D81 DUP2 PUSH2 0x1B66 JUMP JUMPDEST DUP2 EQ PUSH2 0x1D8B JUMPI PUSH0 DUP1 REVERT JUMPDEST POP JUMP JUMPDEST PUSH0 DUP2 CALLDATALOAD SWAP1 POP PUSH2 0x1D9C DUP2 PUSH2 0x1D78 JUMP JUMPDEST SWAP3 SWAP2 POP POP JUMP JUMPDEST PUSH0 DUP1 PUSH0 DUP1 PUSH1 0x60 DUP6 DUP8 SUB SLT ISZERO PUSH2 0x1DBA JUMPI PUSH2 0x1DB9 PUSH2 0x1A48 JUMP JUMPDEST JUMPDEST PUSH0 DUP6 ADD CALLDATALOAD PUSH8 0xFFFFFFFFFFFFFFFF DUP2 GT ISZERO PUSH2 0x1DD7 JUMPI PUSH2 0x1DD6 PUSH2 0x1A4C JUMP JUMPDEST JUMPDEST PUSH2 0x1DE3 DUP8 DUP3 DUP9 ADD PUSH2 0x1D23 JUMP JUMPDEST SWAP5 POP SWAP5 POP POP PUSH1 0x20 PUSH2 0x1DF6 DUP8 DUP3 DUP9 ADD PUSH2 0x1A6F JUMP JUMPDEST SWAP3 POP POP PUSH1 0x40 PUSH2 0x1E07 DUP8 DUP3 DUP9 ADD PUSH2 0x1D8E JUMP JUMPDEST SWAP2 POP POP SWAP3 SWAP6 SWAP2 SWAP5 POP SWAP3 POP JUMP JUMPDEST PUSH0 DUP2 MLOAD SWAP1 POP SWAP2 SWAP1 POP JUMP JUMPDEST PUSH0 DUP3 DUP3 MSTORE PUSH1 0x20 DUP3 ADD SWAP1 POP SWAP3 SWAP2 POP POP JUMP JUMPDEST PUSH0 DUP2 SWAP1 POP PUSH1 0x20 DUP3 ADD SWAP1 POP SWAP2 SWAP1 POP JUMP JUMPDEST PUSH2 0x1E45 DUP2 PUSH2 0x1A50 JUMP JUMPDEST DUP3 MSTORE POP POP JUMP JUMPDEST PUSH0 DUP3 DUP3 MSTORE PUSH1 0x20 DUP3 ADD SWAP1 POP SWAP3 SWAP2 POP POP JUMP JUMPDEST PUSH0 PUSH2 0x1E65 DUP3 PUSH2 0x1ABD JUMP JUMPDEST PUSH2 0x1E6F DUP2 DUP6 PUSH2 0x1E4B JUMP JUMPDEST SWAP4 POP PUSH2 0x1E7F DUP2 DUP6 PUSH1 0x20 DUP7 ADD PUSH2 0x1AD7 JUMP JUMPDEST PUSH2 0x1E88 DUP2 PUSH2 0x1AFF JUMP JUMPDEST DUP5 ADD SWAP2 POP POP SWAP3 SWAP2 POP POP JUMP JUMPDEST PUSH2 0x1E9C DUP2 PUSH2 0x1B66 JUMP JUMPDEST DUP3 MSTORE POP POP JUMP JUMPDEST PUSH2 0x1EAB DUP2 PUSH2 0x1B86 JUMP JUMPDEST DUP3 MSTORE POP POP JUMP JUMPDEST PUSH0 PUSH2 0x120 DUP4 ADD PUSH0 DUP4 ADD MLOAD PUSH2 0x1EC7 PUSH0 DUP7 ADD DUP3 PUSH2 0x1E3C JUMP JUMPDEST POP PUSH1 0x20 DUP4 ADD MLOAD DUP5 DUP3 SUB PUSH1 0x20 DUP7 ADD MSTORE PUSH2 0x1EDF DUP3 DUP3 PUSH2 0x1E5B JUMP JUMPDEST SWAP2 POP POP PUSH1 0x40 DUP4 ADD MLOAD PUSH2 0x1EF4 PUSH1 0x40 DUP7 ADD DUP3 PUSH2 0x1E3C JUMP JUMPDEST POP PUSH1 0x60 DUP4 ADD MLOAD PUSH2 0x1F07 PUSH1 0x60 DUP7 ADD DUP3 PUSH2 0x1E93 JUMP JUMPDEST POP PUSH1 0x80 DUP4 ADD MLOAD PUSH2 0x1F1A PUSH1 0x80 DUP7 ADD DUP3 PUSH2 0x1E3C JUMP JUMPDEST POP PUSH1 0xA0 DUP4 ADD MLOAD PUSH2 0x1F2D PUSH1 0xA0 DUP7 ADD DUP3 PUSH2 0x1E3C JUMP JUMPDEST POP PUSH1 0xC0 DUP4 ADD MLOAD PUSH2 0x1F40 PUSH1 0xC0 DUP7 ADD DUP3 PUSH2 0x1EA2 JUMP JUMPDEST POP PUSH1 0xE0 DUP4 ADD MLOAD PUSH2 0x1F53 PUSH1 0xE0 DUP7 ADD DUP3 PUSH2 0x1EA2 JUMP JUMPDEST POP PUSH2 0x100 DUP4 ADD MLOAD PUSH2 0x1F68 PUSH2 0x100 DUP7 ADD DUP3 PUSH2 0x1EA2 JUMP JUMPDEST POP DUP1 SWAP2 POP POP SWAP3 SWAP2 POP POP JUMP JUMPDEST PUSH0 PUSH2 0x1F7E DUP4 DUP4 PUSH2 0x1EB1 JUMP JUMPDEST SWAP1 POP SWAP3 SWAP2 POP POP JUMP JUMPDEST PUSH0 PUSH1 0x20 DUP3 ADD SWAP1 POP SWAP2 SWAP1 POP JUMP JUMPDEST PUSH0 PUSH2 0x1F9C DUP3 PUSH2 0x1E13 JUMP JUMPDEST PUSH2 0x1FA6 DUP2 DUP6 PUSH2 0x1E1D JUMP JUMPDEST SWAP4 POP DUP4 PUSH1 0x20 DUP3 MUL DUP6 ADD PUSH2 0x1FB8 DUP6 PUSH2 0x1E2D JUMP JUMPDEST DUP1 PUSH0 JUMPDEST DUP6 DUP2 LT ISZERO PUSH2 0x1FF3 JUMPI DUP5 DUP5 SUB DUP10 MSTORE DUP2 MLOAD PUSH2 0x1FD4 DUP6 DUP3 PUSH2 0x1F73 JUMP JUMPDEST SWAP5 POP PUSH2 0x1FDF DUP4 PUSH2 0x1F86 JUMP JUMPDEST SWAP3 POP PUSH1 0x20 DUP11 ADD SWAP10 POP POP PUSH1 0x1 DUP2 ADD SWAP1 POP PUSH2 0x1FBB JUMP JUMPDEST POP DUP3 SWAP8 POP DUP8 SWAP6 POP POP POP POP POP POP SWAP3 SWAP2 POP POP JUMP JUMPDEST PUSH0 PUSH1 0x20 DUP3 ADD SWAP1 POP DUP2 DUP2 SUB PUSH0 DUP4 ADD MSTORE PUSH2 0x201D DUP2 DUP5 PUSH2 0x1F92 JUMP JUMPDEST SWAP1 POP SWAP3 SWAP2 POP POP JUMP JUMPDEST PUSH0 DUP1 PUSH1 0x40 DUP4 DUP6 SUB SLT ISZERO PUSH2 0x203B JUMPI PUSH2 0x203A PUSH2 0x1A48 JUMP JUMPDEST JUMPDEST PUSH0 PUSH2 0x2048 DUP6 DUP3 DUP7 ADD PUSH2 0x1C59 JUMP JUMPDEST SWAP3 POP POP PUSH1 0x20 PUSH2 0x2059 DUP6 DUP3 DUP7 ADD PUSH2 0x1A6F JUMP JUMPDEST SWAP2 POP POP SWAP3 POP SWAP3 SWAP1 POP JUMP JUMPDEST PUSH0 PUSH1 0x20 DUP3 ADD SWAP1 POP PUSH2 0x2076 PUSH0 DUP4 ADD DUP5 PUSH2 0x1B91 JUMP JUMPDEST SWAP3 SWAP2 POP POP JUMP JUMPDEST PUSH32 0x4E487B7100000000000000000000000000000000000000000000000000000000 PUSH0 MSTORE PUSH1 0x22 PUSH1 0x4 MSTORE PUSH1 0x24 PUSH0 REVERT JUMPDEST PUSH0 PUSH1 0x2 DUP3 DIV SWAP1 POP PUSH1 0x1 DUP3 AND DUP1 PUSH2 0x20C0 JUMPI PUSH1 0x7F DUP3 AND SWAP2 POP JUMPDEST PUSH1 0x20 DUP3 LT DUP2 SUB PUSH2 0x20D3 JUMPI PUSH2 0x20D2 PUSH2 0x207C JUMP JUMPDEST JUMPDEST POP SWAP2 SWAP1 POP JUMP JUMPDEST PUSH32 0x596F7520617265206E6F7420616E20696E766573746F72000000000000000000 PUSH0 DUP3 ADD MSTORE POP JUMP JUMPDEST PUSH0 PUSH2 0x210D PUSH1 0x17 DUP4 PUSH2 0x1AC7 JUMP JUMPDEST SWAP2 POP PUSH2 0x2118 DUP3 PUSH2 0x20D9 JUMP JUMPDEST PUSH1 0x20 DUP3 ADD SWAP1 POP SWAP2 SWAP1 POP JUMP JUMPDEST PUSH0 PUSH1 0x20 DUP3 ADD SWAP1 POP DUP2 DUP2 SUB PUSH0 DUP4 ADD MSTORE PUSH2 0x213A DUP2 PUSH2 0x2101 JUMP JUMPDEST SWAP1 POP SWAP2 SWAP1 POP JUMP JUMPDEST PUSH32 0x4E487B7100000000000000000000000000000000000000000000000000000000 PUSH0 MSTORE PUSH1 0x11 PUSH1 0x4 MSTORE PUSH1 0x24 PUSH0 REVERT JUMPDEST PUSH0 PUSH2 0x2178 DUP3 PUSH2 0x1A50 JUMP JUMPDEST SWAP2 POP PUSH2 0x2183 DUP4 PUSH2 0x1A50 JUMP JUMPDEST SWAP3 POP DUP3 DUP3 MUL PUSH2 0x2191 DUP2 PUSH2 0x1A50 JUMP JUMPDEST SWAP2 POP DUP3 DUP3 DIV DUP5 EQ DUP4 ISZERO OR PUSH2 0x21A8 JUMPI PUSH2 0x21A7 PUSH2 0x2141 JUMP JUMPDEST JUMPDEST POP SWAP3 SWAP2 POP POP JUMP JUMPDEST PUSH32 0x4E487B7100000000000000000000000000000000000000000000000000000000 PUSH0 MSTORE PUSH1 0x12 PUSH1 0x4 MSTORE PUSH1 0x24 PUSH0 REVERT JUMPDEST PUSH0 PUSH2 0x21E6 DUP3 PUSH2 0x1A50 JUMP JUMPDEST SWAP2 POP PUSH2 0x21F1 DUP4 PUSH2 0x1A50 JUMP JUMPDEST SWAP3 POP DUP3 PUSH2 0x2201 JUMPI PUSH2 0x2200 PUSH2 0x21AF JUMP JUMPDEST JUMPDEST DUP3 DUP3 DIV SWAP1 POP SWAP3 SWAP2 POP POP JUMP JUMPDEST PUSH32 0x596F7520646F206E6F74206861766520746F20706F77657220746F2067697665 PUSH0 DUP3 ADD MSTORE PUSH32 0x207665746F000000000000000000000000000000000000000000000000000000 PUSH1 0x20 DUP3 ADD MSTORE POP JUMP JUMPDEST PUSH0 PUSH2 0x2266 PUSH1 0x25 DUP4 PUSH2 0x1AC7 JUMP JUMPDEST SWAP2 POP PUSH2 0x2271 DUP3 PUSH2 0x220C JUMP JUMPDEST PUSH1 0x40 DUP3 ADD SWAP1 POP SWAP2 SWAP1 POP JUMP JUMPDEST PUSH0 PUSH1 0x20 DUP3 ADD SWAP1 POP DUP2 DUP2 SUB PUSH0 DUP4 ADD MSTORE PUSH2 0x2293 DUP2 PUSH2 0x225A JUMP JUMPDEST SWAP1 POP SWAP2 SWAP1 POP JUMP JUMPDEST PUSH32 0x596F7520646F6E277420686176652074696873206D7563682073686172650000 PUSH0 DUP3 ADD MSTORE POP JUMP JUMPDEST PUSH0 PUSH2 0x22CE PUSH1 0x1E DUP4 PUSH2 0x1AC7 JUMP JUMPDEST SWAP2 POP PUSH2 0x22D9 DUP3 PUSH2 0x229A JUMP JUMPDEST PUSH1 0x20 DUP3 ADD SWAP1 POP SWAP2 SWAP1 POP JUMP JUMPDEST PUSH0 PUSH1 0x20 DUP3 ADD SWAP1 POP DUP2 DUP2 SUB PUSH0 DUP4 ADD MSTORE PUSH2 0x22FB DUP2 PUSH2 0x22C2 JUMP JUMPDEST SWAP1 POP SWAP2 SWAP1 POP JUMP JUMPDEST PUSH32 0x496E73756666696369656E742046756E64730000000000000000000000000000 PUSH0 DUP3 ADD MSTORE POP JUMP JUMPDEST PUSH0 PUSH2 0x2336 PUSH1 0x12 DUP4 PUSH2 0x1AC7 JUMP JUMPDEST SWAP2 POP PUSH2 0x2341 DUP3 PUSH2 0x2302 JUMP JUMPDEST PUSH1 0x20 DUP3 ADD SWAP1 POP SWAP2 SWAP1 POP JUMP JUMPDEST PUSH0 PUSH1 0x20 DUP3 ADD SWAP1 POP DUP2 DUP2 SUB PUSH0 DUP4 ADD MSTORE PUSH2 0x2363 DUP2 PUSH2 0x232A JUMP JUMPDEST SWAP1 POP SWAP2 SWAP1 POP JUMP JUMPDEST PUSH0 PUSH2 0x2374 DUP3 PUSH2 0x1A50 JUMP JUMPDEST SWAP2 POP PUSH2 0x237F DUP4 PUSH2 0x1A50 JUMP JUMPDEST SWAP3 POP DUP3 DUP3 SUB SWAP1 POP DUP2 DUP2 GT ISZERO PUSH2 0x2397 JUMPI PUSH2 0x2396 PUSH2 0x2141 JUMP JUMPDEST JUMPDEST SWAP3 SWAP2 POP POP JUMP JUMPDEST PUSH0 PUSH2 0x23A7 DUP3 PUSH2 0x1A50 JUMP JUMPDEST SWAP2 POP PUSH2 0x23B2 DUP4 PUSH2 0x1A50 JUMP JUMPDEST SWAP3 POP DUP3 DUP3 ADD SWAP1 POP DUP1 DUP3 GT ISZERO PUSH2 0x23CA JUMPI PUSH2 0x23C9 PUSH2 0x2141 JUMP JUMPDEST JUMPDEST SWAP3 SWAP2 POP POP JUMP JUMPDEST PUSH32 0x596F7520617265206E6F74206D616E6167657200000000000000000000000000 PUSH0 DUP3 ADD MSTORE POP JUMP JUMPDEST PUSH0 PUSH2 0x2404 PUSH1 0x13 DUP4 PUSH2 0x1AC7 JUMP JUMPDEST SWAP2 POP PUSH2 0x240F DUP3 PUSH2 0x23D0 JUMP JUMPDEST PUSH1 0x20 DUP3 ADD SWAP1 POP SWAP2 SWAP1 POP JUMP JUMPDEST PUSH0 PUSH1 0x20 DUP3 ADD SWAP1 POP DUP2 DUP2 SUB PUSH0 DUP4 ADD MSTORE PUSH2 0x2431 DUP2 PUSH2 0x23F8 JUMP JUMPDEST SWAP1 POP SWAP2 SWAP1 POP JUMP JUMPDEST PUSH32 0x4D616A6F7269747920646F6573206E6F7420737570706F727400000000000000 PUSH0 DUP3 ADD MSTORE POP JUMP JUMPDEST PUSH0 PUSH2 0x246C PUSH1 0x19 DUP4 PUSH2 0x1AC7 JUMP JUMPDEST SWAP2 POP PUSH2 0x2477 DUP3 PUSH2 0x2438 JUMP JUMPDEST PUSH1 0x20 DUP3 ADD SWAP1 POP SWAP2 SWAP1 POP JUMP JUMPDEST PUSH0 PUSH1 0x20 DUP3 ADD SWAP1 POP DUP2 DUP2 SUB PUSH0 DUP4 ADD MSTORE PUSH2 0x2499 DUP2 PUSH2 0x2460 JUMP JUMPDEST SWAP1 POP SWAP2 SWAP1 POP JUMP JUMPDEST PUSH32 0x5665746F20686173206265656E20676976656E20746F20746869732070726F70 PUSH0 DUP3 ADD MSTORE PUSH32 0x6F73616C00000000000000000000000000000000000000000000000000000000 PUSH1 0x20 DUP3 ADD MSTORE POP JUMP JUMPDEST PUSH0 PUSH2 0x24FA PUSH1 0x24 DUP4 PUSH2 0x1AC7 JUMP JUMPDEST SWAP2 POP PUSH2 0x2505 DUP3 PUSH2 0x24A0 JUMP JUMPDEST PUSH1 0x40 DUP3 ADD SWAP1 POP SWAP2 SWAP1 POP JUMP JUMPDEST PUSH0 PUSH1 0x20 DUP3 ADD SWAP1 POP DUP2 DUP2 SUB PUSH0 DUP4 ADD MSTORE PUSH2 0x2527 DUP2 PUSH2 0x24EE JUMP JUMPDEST SWAP1 POP SWAP2 SWAP1 POP JUMP JUMPDEST PUSH32 0x5468652070726F706F73616C20686173206265656E2063616E63656C65640000 PUSH0 DUP3 ADD MSTORE POP JUMP JUMPDEST PUSH0 PUSH2 0x2562 PUSH1 0x1E DUP4 PUSH2 0x1AC7 JUMP JUMPDEST SWAP2 POP PUSH2 0x256D DUP3 PUSH2 0x252E JUMP JUMPDEST PUSH1 0x20 DUP3 ADD SWAP1 POP SWAP2 SWAP1 POP JUMP JUMPDEST PUSH0 PUSH1 0x20 DUP3 ADD SWAP1 POP DUP2 DUP2 SUB PUSH0 DUP4 ADD MSTORE PUSH2 0x258F DUP2 PUSH2 0x2556 JUMP JUMPDEST SWAP1 POP SWAP2 SWAP1 POP JUMP JUMPDEST PUSH32 0x436F6E747269627574696F6E2074696D65206578706972656400000000000000 PUSH0 DUP3 ADD MSTORE POP JUMP JUMPDEST PUSH0 PUSH2 0x25CA PUSH1 0x19 DUP4 PUSH2 0x1AC7 JUMP JUMPDEST SWAP2 POP PUSH2 0x25D5 DUP3 PUSH2 0x2596 JUMP JUMPDEST PUSH1 0x20 DUP3 ADD SWAP1 POP SWAP2 SWAP1 POP JUMP JUMPDEST PUSH0 PUSH1 0x20 DUP3 ADD SWAP1 POP DUP2 DUP2 SUB PUSH0 DUP4 ADD MSTORE PUSH2 0x25F7 DUP2 PUSH2 0x25BE JUMP JUMPDEST SWAP1 POP SWAP2 SWAP1 POP JUMP JUMPDEST PUSH32 0x43616E206E6F742073656E64207A65726F206574686572000000000000000000 PUSH0 DUP3 ADD MSTORE POP JUMP JUMPDEST PUSH0 PUSH2 0x2632 PUSH1 0x17 DUP4 PUSH2 0x1AC7 JUMP JUMPDEST SWAP2 POP PUSH2 0x263D DUP3 PUSH2 0x25FE JUMP JUMPDEST PUSH1 0x20 DUP3 ADD SWAP1 POP SWAP2 SWAP1 POP JUMP JUMPDEST PUSH0 PUSH1 0x20 DUP3 ADD SWAP1 POP DUP2 DUP2 SUB PUSH0 DUP4 ADD MSTORE PUSH2 0x265F DUP2 PUSH2 0x2626 JUMP JUMPDEST SWAP1 POP SWAP2 SWAP1 POP JUMP JUMPDEST PUSH32 0x4E6F7420656E6F7567682066756E647300000000000000000000000000000000 PUSH0 DUP3 ADD MSTORE POP JUMP JUMPDEST PUSH0 PUSH2 0x269A PUSH1 0x10 DUP4 PUSH2 0x1AC7 JUMP JUMPDEST SWAP2 POP PUSH2 0x26A5 DUP3 PUSH2 0x2666 JUMP JUMPDEST PUSH1 0x20 DUP3 ADD SWAP1 POP SWAP2 SWAP1 POP JUMP JUMPDEST PUSH0 PUSH1 0x20 DUP3 ADD SWAP1 POP DUP2 DUP2 SUB PUSH0 DUP4 ADD MSTORE PUSH2 0x26C7 DUP2 PUSH2 0x268E JUMP JUMPDEST SWAP1 POP SWAP2 SWAP1 POP JUMP JUMPDEST PUSH32 0x4E487B7100000000000000000000000000000000000000000000000000000000 PUSH0 MSTORE PUSH1 0x41 PUSH1 0x4 MSTORE PUSH1 0x24 PUSH0 REVERT JUMPDEST PUSH0 DUP2 SWAP1 POP DUP2 PUSH0 MSTORE PUSH1 0x20 PUSH0 KECCAK256 SWAP1 POP SWAP2 SWAP1 POP JUMP JUMPDEST PUSH0 PUSH1 0x20 PUSH1 0x1F DUP4 ADD DIV SWAP1 POP SWAP2 SWAP1 POP JUMP JUMPDEST PUSH0 DUP3 DUP3 SHL SWAP1 POP SWAP3 SWAP2 POP POP JUMP JUMPDEST PUSH0 PUSH1 0x8 DUP4 MUL PUSH2 0x2757 PUSH32 0xFFFFFFFFFFFFFFFFFFFFFFFFFFFFFFFFFFFFFFFFFFFFFFFFFFFFFFFFFFFFFFFF DUP3 PUSH2 0x271C JUMP JUMPDEST PUSH2 0x2761 DUP7 DUP4 PUSH2 0x271C JUMP JUMPDEST SWAP6 POP DUP1 NOT DUP5 AND SWAP4 POP DUP1 DUP7 AND DUP5 OR SWAP3 POP POP POP SWAP4 SWAP3 POP POP POP JUMP JUMPDEST PUSH0 DUP2 SWAP1 POP SWAP2 SWAP1 POP JUMP JUMPDEST PUSH0 PUSH2 0x279C PUSH2 0x2797 PUSH2 0x2792 DUP5 PUSH2 0x1A50 JUMP JUMPDEST PUSH2 0x2779 JUMP JUMPDEST PUSH2 0x1A50 JUMP JUMPDEST SWAP1 POP SWAP2 SWAP1 POP JUMP JUMPDEST PUSH0 DUP2 SWAP1 POP SWAP2 SWAP1 POP JUMP JUMPDEST PUSH2 0x27B5 DUP4 PUSH2 0x2782 JUMP JUMPDEST PUSH2 0x27C9 PUSH2 0x27C1 DUP3 PUSH2 0x27A3 JUMP JUMPDEST DUP5 DUP5 SLOAD PUSH2 0x2728 JUMP JUMPDEST DUP3 SSTORE POP POP POP POP JUMP JUMPDEST PUSH0 SWAP1 JUMP JUMPDEST PUSH2 0x27DD PUSH2 0x27D1 JUMP JUMPDEST PUSH2 0x27E8 DUP2 DUP5 DUP5 PUSH2 0x27AC JUMP JUMPDEST POP POP POP JUMP JUMPDEST JUMPDEST DUP2 DUP2 LT ISZERO PUSH2 0x280B JUMPI PUSH2 0x2800 PUSH0 DUP3 PUSH2 0x27D5 JUMP JUMPDEST PUSH1 0x1 DUP2 ADD SWAP1 POP PUSH2 0x27EE JUMP JUMPDEST POP POP JUMP JUMPDEST PUSH1 0x1F DUP3 GT ISZERO PUSH2 0x2850 JUMPI PUSH2 0x2821 DUP2 PUSH2 0x26FB JUMP JUMPDEST PUSH2 0x282A DUP5 PUSH2 0x270D JUMP JUMPDEST DUP2 ADD PUSH1 0x20 DUP6 LT ISZERO PUSH2 0x2839 JUMPI DUP2 SWAP1 POP JUMPDEST PUSH2 0x284D PUSH2 0x2845 DUP6 PUSH2 0x270D JUMP JUMPDEST DUP4 ADD DUP3 PUSH2 0x27ED JUMP JUMPDEST POP POP JUMPDEST POP POP POP JUMP JUMPDEST PUSH0 DUP3 DUP3 SHR SWAP1 POP SWAP3 SWAP2 POP POP JUMP JUMPDEST PUSH0 PUSH2 0x2870 PUSH0 NOT DUP5 PUSH1 0x8 MUL PUSH2 0x2855 JUMP JUMPDEST NOT DUP1 DUP4 AND SWAP2 POP POP SWAP3 SWAP2 POP POP JUMP JUMPDEST PUSH0 PUSH2 0x2888 DUP4 DUP4 PUSH2 0x2861 JUMP JUMPDEST SWAP2 POP DUP3 PUSH1 0x2 MUL DUP3 OR SWAP1 POP SWAP3 SWAP2 POP POP JUMP JUMPDEST PUSH2 0x28A1 DUP3 PUSH2 0x1ABD JUMP JUMPDEST PUSH8 0xFFFFFFFFFFFFFFFF DUP2 GT ISZERO PUSH2 0x28BA JUMPI PUSH2 0x28B9 PUSH2 0x26CE JUMP JUMPDEST JUMPDEST PUSH2 0x28C4 DUP3 SLOAD PUSH2 0x20A9 JUMP JUMPDEST PUSH2 0x28CF DUP3 DUP3 DUP6 PUSH2 0x280F JUMP JUMPDEST PUSH0 PUSH1 0x20 SWAP1 POP PUSH1 0x1F DUP4 GT PUSH1 0x1 DUP2 EQ PUSH2 0x2900 JUMPI PUSH0 DUP5 ISZERO PUSH2 0x28EE JUMPI DUP3 DUP8 ADD MLOAD SWAP1 POP JUMPDEST PUSH2 0x28F8 DUP6 DUP3 PUSH2 0x287D JUMP JUMPDEST DUP7 SSTORE POP PUSH2 0x295F JUMP JUMPDEST PUSH1 0x1F NOT DUP5 AND PUSH2 0x290E DUP7 PUSH2 0x26FB JUMP JUMPDEST PUSH0 JUMPDEST DUP3 DUP2 LT ISZERO PUSH2 0x2935 JUMPI DUP5 DUP10 ADD MLOAD DUP3 SSTORE PUSH1 0x1 DUP3 ADD SWAP2 POP PUSH1 0x20 DUP6 ADD SWAP5 POP PUSH1 0x20 DUP2 ADD SWAP1 POP PUSH2 0x2910 JUMP JUMPDEST DUP7 DUP4 LT ISZERO PUSH2 0x2952 JUMPI DUP5 DUP10 ADD MLOAD PUSH2 0x294E PUSH1 0x1F DUP10 AND DUP3 PUSH2 0x2861 JUMP JUMPDEST DUP4 SSTORE POP JUMPDEST PUSH1 0x1 PUSH1 0x2 DUP9 MUL ADD DUP9 SSTORE POP POP POP JUMPDEST POP POP POP POP POP POP JUMP JUMPDEST PUSH0 PUSH2 0x2971 DUP3 PUSH2 0x1A50 JUMP JUMPDEST SWAP2 POP PUSH32 0xFFFFFFFFFFFFFFFFFFFFFFFFFFFFFFFFFFFFFFFFFFFFFFFFFFFFFFFFFFFFFFFF DUP3 SUB PUSH2 0x29A3 JUMPI PUSH2 0x29A2 PUSH2 0x2141 JUMP JUMPDEST JUMPDEST PUSH1 0x1 DUP3 ADD SWAP1 POP SWAP2 SWAP1 POP JUMP JUMPDEST PUSH32 0x4E487B7100000000000000000000000000000000000000000000000000000000 PUSH0 MSTORE PUSH1 0x32 PUSH1 0x4 MSTORE PUSH1 0x24 PUSH0 REVERT JUMPDEST PUSH32 0x596F75206861766520616C726561647920766F74656420666F72207468697320 PUSH0 DUP3 ADD MSTORE PUSH32 0x70726F706F73616C000000000000000000000000000000000000000000000000 PUSH1 0x20 DUP3 ADD MSTORE POP JUMP JUMPDEST PUSH0 PUSH2 0x2A35 PUSH1 0x28 DUP4 PUSH2 0x1AC7 JUMP JUMPDEST SWAP2 POP PUSH2 0x2A40 DUP3 PUSH2 0x29DB JUMP JUMPDEST PUSH1 0x40 DUP3 ADD SWAP1 POP SWAP2 SWAP1 POP JUMP JUMPDEST PUSH0 PUSH1 0x20 DUP3 ADD SWAP1 POP DUP2 DUP2 SUB PUSH0 DUP4 ADD MSTORE PUSH2 0x2A62 DUP2 PUSH2 0x2A29 JUMP JUMPDEST SWAP1 POP SWAP2 SWAP1 POP JUMP JUMPDEST PUSH32 0x566F74696E672054696D6520456E646564000000000000000000000000000000 PUSH0 DUP3 ADD MSTORE POP JUMP JUMPDEST PUSH0 PUSH2 0x2A9D PUSH1 0x11 DUP4 PUSH2 0x1AC7 JUMP JUMPDEST SWAP2 POP PUSH2 0x2AA8 DUP3 PUSH2 0x2A69 JUMP JUMPDEST PUSH1 0x20 DUP3 ADD SWAP1 POP SWAP2 SWAP1 POP JUMP JUMPDEST PUSH0 PUSH1 0x20 DUP3 ADD SWAP1 POP DUP2 DUP2 SUB PUSH0 DUP4 ADD MSTORE PUSH2 0x2ACA DUP2 PUSH2 0x2A91 JUMP JUMPDEST SWAP1 POP SWAP2 SWAP1 POP JUMP JUMPDEST PUSH32 0x497420697320616C726561647920457865637574656400000000000000000000 PUSH0 DUP3 ADD MSTORE POP JUMP JUMPDEST PUSH0 PUSH2 0x2B05 PUSH1 0x16 DUP4 PUSH2 0x1AC7 JUMP JUMPDEST SWAP2 POP PUSH2 0x2B10 DUP3 PUSH2 0x2AD1 JUMP JUMPDEST PUSH1 0x20 DUP3 ADD SWAP1 POP SWAP2 SWAP1 POP JUMP JUMPDEST PUSH0 PUSH1 0x20 DUP3 ADD SWAP1 POP DUP2 DUP2 SUB PUSH0 DUP4 ADD MSTORE PUSH2 0x2B32 DUP2 PUSH2 0x2AF9 JUMP JUMPDEST SWAP1 POP SWAP2 SWAP1 POP JUMP JUMPDEST PUSH32 0x43616E63616C6174696F6E2074696D6520686173206578706972656400000000 PUSH0 DUP3 ADD MSTORE POP JUMP JUMPDEST PUSH0 PUSH2 0x2B6D PUSH1 0x1C DUP4 PUSH2 0x1AC7 JUMP JUMPDEST SWAP2 POP PUSH2 0x2B78 DUP3 PUSH2 0x2B39 JUMP JUMPDEST PUSH1 0x20 DUP3 ADD SWAP1 POP SWAP2 SWAP1 POP JUMP JUMPDEST PUSH0 PUSH1 0x20 DUP3 ADD SWAP1 POP DUP2 DUP2 SUB PUSH0 DUP4 ADD MSTORE PUSH2 0x2B9A DUP2 PUSH2 0x2B61 JUMP JUMPDEST SWAP1 POP SWAP2 SWAP1 POP JUMP INVALID LOG2 PUSH5 0x6970667358 0x22 SLT KECCAK256 MUL PUSH7 0x6BA946EFC11010 PUSH19 0x49BE63E3162BE88EABA43504832DBBE065260B PUSH10 0xEC0564736F6C63430008 ISZERO STOP CALLER "
				},
				"gasEstimates": {
					"creation": {
						"codeDepositCost": "2244600",
						"executionCost": "infinite",
						"totalCost": "infinite"
					},
					"external": {
						"CancelProposal(uint256)": "29131",
						"ProposalList()": "infinite",
						"Veto(uint256)": "infinite",
						"availableFunds()": "2514",
						"contribution()": "infinite",
						"contributionTimeEnd()": "2491",
						"createProposal(string,uint256,address)": "infinite",
						"executeProposal(uint256)": "infinite",
						"investorsList(uint256)": "4989",
						"isVoted(address,uint256)": "3115",
						"manager()": "2619",
						"nextProposalId()": "2448",
						"numOfShares(address)": "2847",
						"proposals(uint256)": "infinite",
						"quorum()": "2537",
						"reedemShare(uint256)": "infinite",
						"totalShares()": "2492",
						"transferShare(uint256,address)": "infinite",
						"voteProposal(uint256)": "infinite",
						"voteTime()": "2513"
					},
					"internal": {
						"_transfer(uint256,address payable)": "infinite"
					}
				},
				"methodIdentifiers": {
					"CancelProposal(uint256)": "8896f24c",
					"ProposalList()": "6dfc1099",
					"Veto(uint256)": "016bc65f",
					"availableFunds()": "46fcff4c",
					"contribution()": "50520b1f",
					"contributionTimeEnd()": "afc8275b",
					"createProposal(string,uint256,address)": "6ac1e01f",
					"executeProposal(uint256)": "0d61b519",
					"investorsList(uint256)": "2ccc8727",
					"isVoted(address,uint256)": "8ee36f05",
					"manager()": "481c6a75",
					"nextProposalId()": "2ab09d14",
					"numOfShares(address)": "6a907803",
					"proposals(uint256)": "013cf08b",
					"quorum()": "1703a018",
					"reedemShare(uint256)": "c1188cff",
					"totalShares()": "3a98ef39",
					"transferShare(uint256,address)": "039383e6",
					"voteProposal(uint256)": "807896d5",
					"voteTime()": "bcf93dd6"
				}
			},
			"storageLayout": {
				"storage": [
					{
						"astId": 24,
						"contract": "contracts/DAO_Project/dao.sol:dao",
						"label": "isInvestor",
						"offset": 0,
						"slot": "0",
						"type": "t_mapping(t_address,t_bool)"
					},
					{
						"astId": 28,
						"contract": "contracts/DAO_Project/dao.sol:dao",
						"label": "numOfShares",
						"offset": 0,
						"slot": "1",
						"type": "t_mapping(t_address,t_uint256)"
					},
					{
						"astId": 34,
						"contract": "contracts/DAO_Project/dao.sol:dao",
						"label": "isVoted",
						"offset": 0,
						"slot": "2",
						"type": "t_mapping(t_address,t_mapping(t_uint256,t_bool))"
					},
					{
						"astId": 37,
						"contract": "contracts/DAO_Project/dao.sol:dao",
						"label": "investorsList",
						"offset": 0,
						"slot": "3",
						"type": "t_array(t_address)dyn_storage"
					},
					{
						"astId": 42,
						"contract": "contracts/DAO_Project/dao.sol:dao",
						"label": "proposals",
						"offset": 0,
						"slot": "4",
						"type": "t_mapping(t_uint256,t_struct(Proposal)20_storage)"
					},
					{
						"astId": 44,
						"contract": "contracts/DAO_Project/dao.sol:dao",
						"label": "totalShares",
						"offset": 0,
						"slot": "5",
						"type": "t_uint256"
					},
					{
						"astId": 46,
						"contract": "contracts/DAO_Project/dao.sol:dao",
						"label": "availableFunds",
						"offset": 0,
						"slot": "6",
						"type": "t_uint256"
					},
					{
						"astId": 48,
						"contract": "contracts/DAO_Project/dao.sol:dao",
						"label": "contributionTimeEnd",
						"offset": 0,
						"slot": "7",
						"type": "t_uint256"
					},
					{
						"astId": 50,
						"contract": "contracts/DAO_Project/dao.sol:dao",
						"label": "nextProposalId",
						"offset": 0,
						"slot": "8",
						"type": "t_uint256"
					},
					{
						"astId": 52,
						"contract": "contracts/DAO_Project/dao.sol:dao",
						"label": "voteTime",
						"offset": 0,
						"slot": "9",
						"type": "t_uint256"
					},
					{
						"astId": 54,
						"contract": "contracts/DAO_Project/dao.sol:dao",
						"label": "quorum",
						"offset": 0,
						"slot": "10",
						"type": "t_uint256"
					},
					{
						"astId": 56,
						"contract": "contracts/DAO_Project/dao.sol:dao",
						"label": "manager",
						"offset": 0,
						"slot": "11",
						"type": "t_address"
					}
				],
				"types": {
					"t_address": {
						"encoding": "inplace",
						"label": "address",
						"numberOfBytes": "20"
					},
					"t_address_payable": {
						"encoding": "inplace",
						"label": "address payable",
						"numberOfBytes": "20"
					},
					"t_array(t_address)dyn_storage": {
						"base": "t_address",
						"encoding": "dynamic_array",
						"label": "address[]",
						"numberOfBytes": "32"
					},
					"t_bool": {
						"encoding": "inplace",
						"label": "bool",
						"numberOfBytes": "1"
					},
					"t_mapping(t_address,t_bool)": {
						"encoding": "mapping",
						"key": "t_address",
						"label": "mapping(address => bool)",
						"numberOfBytes": "32",
						"value": "t_bool"
					},
					"t_mapping(t_address,t_mapping(t_uint256,t_bool))": {
						"encoding": "mapping",
						"key": "t_address",
						"label": "mapping(address => mapping(uint256 => bool))",
						"numberOfBytes": "32",
						"value": "t_mapping(t_uint256,t_bool)"
					},
					"t_mapping(t_address,t_uint256)": {
						"encoding": "mapping",
						"key": "t_address",
						"label": "mapping(address => uint256)",
						"numberOfBytes": "32",
						"value": "t_uint256"
					},
					"t_mapping(t_uint256,t_bool)": {
						"encoding": "mapping",
						"key": "t_uint256",
						"label": "mapping(uint256 => bool)",
						"numberOfBytes": "32",
						"value": "t_bool"
					},
					"t_mapping(t_uint256,t_struct(Proposal)20_storage)": {
						"encoding": "mapping",
						"key": "t_uint256",
						"label": "mapping(uint256 => struct dao.Proposal)",
						"numberOfBytes": "32",
						"value": "t_struct(Proposal)20_storage"
					},
					"t_string_storage": {
						"encoding": "bytes",
						"label": "string",
						"numberOfBytes": "32"
					},
					"t_struct(Proposal)20_storage": {
						"encoding": "inplace",
						"label": "struct dao.Proposal",
						"members": [
							{
								"astId": 3,
								"contract": "contracts/DAO_Project/dao.sol:dao",
								"label": "id",
								"offset": 0,
								"slot": "0",
								"type": "t_uint256"
							},
							{
								"astId": 5,
								"contract": "contracts/DAO_Project/dao.sol:dao",
								"label": "description",
								"offset": 0,
								"slot": "1",
								"type": "t_string_storage"
							},
							{
								"astId": 7,
								"contract": "contracts/DAO_Project/dao.sol:dao",
								"label": "amount",
								"offset": 0,
								"slot": "2",
								"type": "t_uint256"
							},
							{
								"astId": 9,
								"contract": "contracts/DAO_Project/dao.sol:dao",
								"label": "recipient",
								"offset": 0,
								"slot": "3",
								"type": "t_address_payable"
							},
							{
								"astId": 11,
								"contract": "contracts/DAO_Project/dao.sol:dao",
								"label": "votes",
								"offset": 0,
								"slot": "4",
								"type": "t_uint256"
							},
							{
								"astId": 13,
								"contract": "contracts/DAO_Project/dao.sol:dao",
								"label": "end",
								"offset": 0,
								"slot": "5",
								"type": "t_uint256"
							},
							{
								"astId": 15,
								"contract": "contracts/DAO_Project/dao.sol:dao",
								"label": "isExecuted",
								"offset": 0,
								"slot": "6",
								"type": "t_bool"
							},
							{
								"astId": 17,
								"contract": "contracts/DAO_Project/dao.sol:dao",
								"label": "veto",
								"offset": 1,
								"slot": "6",
								"type": "t_bool"
							},
							{
								"astId": 19,
								"contract": "contracts/DAO_Project/dao.sol:dao",
								"label": "canceled",
								"offset": 2,
								"slot": "6",
								"type": "t_bool"
							}
						],
						"numberOfBytes": "224"
					},
					"t_uint256": {
						"encoding": "inplace",
						"label": "uint256",
						"numberOfBytes": "32"
					}
				}
			},
			"userdoc": {
				"kind": "user",
				"methods": {},
				"version": 1
			}
		}
	}
}